:100000000C94FD010C9435020C941A020C941A0203
:100010000C94AE180C94BA170C9481180C942718F1
:100020000C9454180C948D170C94FA170C943A17DE
:100030000C941A020C941A020C941A020C941A02D0
:100040000C941A020C941A020C941A020C941A02C0
:100050000C941A02520A420A7A0A830A440A460A8D
:100060004A0A7A0A4E0A500A4C0A5A0A700A540A74
:10007000740A780A810A7A0A7A0A7A0A7A0A7A0A61
:100080007A0A7A0A7A0A7A0A6C0A6A0A720A580A98
:10009000760A7C0A680A7A0A7A0A7A0A7A0A7A0A54
:1000A0007A0A7A0A7A0A7A0A7A0A7A0A7A0A7A0A30
:1000B0007A0A7A0A7A0A7A0A7A0A7A0A7A0A7A0A20
:1000C0007A0A7A0A7A0A7A0A7A0A5C0A640A600A5E
:1000D000480A560A830A7A0A7A0A7A0A7A0A7A0A4D
:1000E0007A0A7A0A7A0A7A0A7A0A7A0A7A0A7A0AF0
:1000F0007A0A7A0A7A0A7A0A7A0A7A0A7A0A7A0AE0
:100100007A0A7A0A7A0A7A0A7A0A5E0A660A620A17
:100110006E0A0403090412034C00450045004B001D
:10012000550012034D0058002D00310038002F00FB
:10013000330030001201100100000008424231E19A
:100140000001010200010000FC001C322123242BCD
:100150003433433B424B3A31444D152D1B2C3C2A42
:100160001D22351A161E26252E363D3E46455A7648
:10017000660D294E55545B5D5D4C520E41494A58FF
:100180000506040C030B830A010978077C7E77704F
:100190006C7D71697A746B7275774A7C7B795A6968
:1001A000727A6B73746C757D7071612F370F0810E4
:1001B0001820283038404850575F000000000000E9
:1001C00000000000000000000000006D0051136AF4
:1001D000646727000000F2F163625F000000000026
:1001E0000000000000000000000000001412111FB9
:1001F0001459112700004D153B3423000032210013
:1002000000000050482B40103A38302820180000D9
:1002100000000000373F5E0000000000000000000A
:1002200000000000000000000000000000000000CE
:1002300000000000000000000000000000000000BE
:10024000000000000000464800004891900095968C
:100250009700A9AAADAC6546494A4B4C4D4E525049
:100260004F515458959697BDC0C1C2C3C4C5C6AFBF
:10027000B0B1B2B3B6B7BCBEBFC8C9CACBC7000025
:10028000494C4A4D4B4EA9AD65504F525154000058
:100290004D4143524F207265636F7264206D6F64ED
:1002A00065400000407265636F726420646F6E6524
:1002B00040000000000000004D4143524F20657295
:1002C000617365000000000000000000646F6E654F
:1002D00040000000000000000000000000000000DE
:1002E00005010906A10175019508050719E029E72F
:1002F0001500250181029501750881039505750199
:1003000005081901290591029501750391039506C8
:100310007508150025FF0507190029FF8100C00594
:10032000010902A10185010901A10005091901299D
:10033000051500250175019505810275039501815B
:10034000030501093009311581257F750895028162
:100350000609381581257F3500450075089501810E
:1003600006050C0A38021581257F7508950181065E
:10037000C0C005010980A1018502150125B7190139
:1003800029B7751095018100C0050C0901A10185EF
:10039000031501269C0219012A9C02751095018102
:1003A00000C009023B0002010080FA0904000001BC
:1003B00003010100092101010001223F000705811D
:1003C0000308000A090401000103000000092101DB
:1003D0000100012283000705830308000A000001D1
:1003E0000008004000000100040000010008002097
:1003F0000040008000000100040011241FBECFE572
:10040000D8E0DEBFCDBF11E0A0E6B0E0EAEDF8E352
:1004100002C005900D92A436B107D9F717E0A4E603
:10042000B1E001C01D92A030B107E1F70E94321582
:100430000C946B1C0C940000A82FB92F80E090E066
:1004400041E050EA609530E009C02D9182279795F0
:10045000879510F084279527305EC8F36F5FA8F367
:100460000895EADF8D939D930895CF93CFB7CF93EF
:10047000C395839BE9F7839B09C0839B07C0839B3C
:1004800005C0839B03C0839B01C0A3C0DF93C091C1
:10049000B904DD27C054DB4F839B02C0DF91EBCF53
:1004A0002F930F931F9300B32FEF03FB20F94F936C
:1004B0003F9310B34FEF012703FB21F93BE031C01D
:1004C0004E7F012F10B3216028C0102F4D7F226076
:1004D000000000B329C04B7F2460012F000010B33F
:1004E0002BC010B3477F28602AC04F7E00B3206125
:1004F0002CC04F7D10B320622FC04F7B00B320640F
:1005000032C0422700B349934FEF0000102713FB7E
:1005100020F910B31C70C9F1297F91F2012703FB68
:1005200021F900B3237F89F2315058F1102713FBD2
:1005300022F910B3277E79F2012703FB23F92F7CE0
:1005400081F200B3102713FB24F92F7971F200C058
:1005500010B3012703FB25F92F7359F200C000B334
:10056000102713FB26F9223040F200C010B30127F8
:1005700003FB27F9243028F64F77206810B30000DA
:10058000F9CF10E41ABF002719C03B503195C31BA7
:10059000D04010E41ABF0881033CF9F00B34E9F0B5
:1005A0002091B7041981110F1213EDCF4A81441F16
:1005B000093641F10D3211F0013E29F70093BE04D6
:1005C0003F914F911F910F912F91DF91CAB7C6FDB7
:1005D0004FCFCF91CFBFCF9118952091BE0422234A
:1005E00079F31091BC041123C1F53430C2F130937A
:1005F000BC042093B8041091B9043BE0311B309344
:10060000B9042DC00091BC0401303CF50AE54F70DF
:1006100049F43091600034FD24C000936000C0EACA
:10062000D4E023C0433049F03091AB0434FD19C00D
:100630000093AB04CCEAD4E018C03091D60434FD6A
:1006400010C00093D604C7EDD4E00FC02795A8F4DE
:100650005150A9F4220F0000F9CF4AE503C042ED42
:1006600001C0432FC4E1D0E032E011B31C60939A83
:1006700011BB02B320E41CE05F93012756E002BBEC
:10068000279520F4515021F4220FF9CF012756E08D
:1006900000003B5A02BBD0F2279528F4515029F4B0
:1006A000220F0000F9CF012756E0279502BB20F466
:1006B000515021F4220FF9CF012756E0299133231D
:1006C00002BB21F6037F1091BD04110FC651D0402B
:1006D00002BB11F01093B70410E41ABF086011B305
:1006E000137F402F437F5F9100C000C002BB11BB4E
:1006F00042BB66CF85B7826085BF8BB780648BBFF6
:100700008BE48093AC048093D7048AE58093AB0498
:100710008093D60408951F93CF93DF936091BC0418
:10072000635067FDACC08091B904CCE0D0E0C81B39
:10073000D109C054DB4F8091B8048D3209F08CC0D0
:10074000683009F09AC083EC8093A0048AE5809316
:100750006000109264018881807629F0CE010E94A9
:10076000A90E282F66C09A811092A9048981882336
:1007700021F41092AA0422E055C0853019F4909318
:10078000BD044FC08630B9F58B81813019F484E304
:1007900091E01DC0823029F18330F9F48A818823E9
:1007A00041F482E191E09093BB048093BA0424E089
:1007B0001EC0813041F486E191E09093BB048093A8
:1007C000BA042CE014C0823089F482E291E0909364
:1007D000BB048093BA0422E10AC0813211F0823254
:1007E00029F4CE010E946F0E282F01C020E080E482
:1007F000809364011EC0883021F421E08FEB94E0E7
:1008000013C0893019F49093BF040BC08A3011F4DF
:1008100021E008C08B3029F48BE48093AC048093F2
:10082000D70420E089EA94E09093BB048093BA0453
:1008300009C02F3F39F4888187FD2E8180E880939D
:10084000640106C08F81882319F48E81821708F015
:10085000822F8093610011C08091640187FF0DC0D9
:10086000CE010E9492108F3F21F48EE180936000B0
:1008700004C0882311F0109261001092BC04809192
:10088000600084FF46C0809161008F3F09F441C041
:10089000182F893008F018E0811B80936100809147
:1008A000A00498E889278093A004112321F12091C6
:1008B000BA043091BB048091640186FF0AC0912F75
:1008C000F901A1EAB4E084918D9331969150D9F762
:1008D00008C0912FD901E1EAF4E08D918193915004
:1008E000E1F7C90101961150810F911D1F5F90938F
:1008F000BB048093BA0481EA94E0612F0E94310224
:10090000612F6C5F6C3019F08FEF80936100609302
:10091000600094E180B38C7031F49150D9F710925B
:10092000BD041092B704DF91CF911F9108951F93DA
:10093000CF93DF93DC01162FEA01888184FF05C085
:10094000898198E88927898302C08AE58883AE0176
:100950004E5F5F4F212FFA018D9181932150121626
:10096000DCF3CA01612F0E9431021C5F1883DF9102
:10097000CF911F91089546ED54E00E949704089589
:100980004BEA54E00E9497040895982F929596950B
:10099000977021E030E002C0220F331F9A95E2F7F2
:1009A00027BB98B32095292328BB98E29A95F1F7A5
:1009B000E9B363B36095462F469550E04870507098
:1009C000262F26952695269530E024703070422BF0
:1009D000532B262F221F2227221F30E0422B532B7E
:1009E000262F22952695277030E022703070422BFA
:1009F000532B70E0660F771F60717070462B572B7A
:100A0000542F4427E095F0E04E2B5F2B8F7102C0EE
:100A1000569547958A95E2F740FF04C088E0809399
:100A2000760104C080917601882311F084E0089556
:100A3000809169010895982F80916C01282F21FDE4
:100A40001CC08091620080FF07C0993311F496EAC0
:100A500003C0963A09F499E38091630080FF07C0D0
:100A6000983A11F499EA03C0993A09F498EA20FFF8
:100A700005C0993A11F09D3A09F490E0892F089544
:100A80008FE090E0609163000E945E1C8EE090E039
:100A9000609162000E945E1C08950F931F93182FAF
:100AA000062F863A69F1873A20F4893309F085C028
:100AB00007C0883A09F444C0893A09F07EC05FC093
:100AC000662349F4809162008068809362001092EE
:100AD0006E0110926D0180916D0190916E010196F1
:100AE00090936E0180936D0101978050944008F4BB
:100AF00064C080E094E090936E0180936D015DC0CE
:100B0000662349F4809162008068809362001092AD
:100B1000700110926F0180916F01909170010196A8
:100B20009093700180936F0101978050944008F476
:100B300044C080E094E09093700180936F013DC0C9
:100B4000662349F48091630080688093630010926B
:100B50007201109271018091710190917201019660
:100B6000909372018093710101978050944028F115
:100B700080E094E090937201809371011EC066231F
:100B800049F480916300806880936300109274013F
:100B9000109273018091730190917401019690936A
:100BA00074018093730101978050944030F080E08D
:100BB00094E0909374018093730180916D01909102
:100BC0006E018050944091F480916F01909170017A
:100BD0008050944059F49091620097FF07C081E0E3
:100BE00098279F77909362000E944005809173013F
:100BF000909174018050944091F480917101909192
:100C000072018050944059F49091630097FF07C09F
:100C100081E098279F77909363000E944005812F81
:100C20008C5C8033D8F4002321F410924B05109291
:100C30004A0580914A0590914B05019690934B058A
:100C400080934A05019780509440D9F5812F0E94E6
:100C5000D30C10924B0510924A0533C0812F885651
:100C60008430C0F4002321F41092DE051092DD05DB
:100C70008091DD059091DE0501969093DE058093CD
:100C8000DD05019780509440E1F41092DE0510924A
:100C9000DD0517C01237A9F4002321F41092D50501
:100CA0001092D4058091D4059091D505019690932A
:100CB000D5058093D40501978050944011F40E948B
:100CC0006E0C80E01F910F910895982F8856843004
:100CD00008F44EC08450853008F44AC0692F675824
:100CE0006730F0F460936901E62FF0E0EE0FFF1F2C
:100CF000EE0FFF1FEC59FF4F0190F081E02DE05BFC
:100D0000FF4FE49110927501E03519F481E0809372
:100D100075018DE090E00E945E1C0E94AF1A26C013
:100D20009C3C30F5933781F481B38C6081BB82B3F6
:100D3000837F82BB2DE088E190E00FB6F894A89500
:100D400081BD0FBE21BDFFCF923791F0983921F4BC
:100D500080916C0192E007C0993911F080E008950C
:100D600080916C0191E0892780936C0181E0089566
:100D700081E00895CF92DF92EF92FF920F931F933D
:100D8000CF93DF938091650190916601A0916701F7
:100D9000B09168010196A11DB11D809365019093EA
:100DA0006601A0936701B09368010197A109B10999
:100DB000805D9B4FA140B04060F080ED9BEFA1E0D3
:100DC000B0E08093650190936601A0936701B093B2
:100DD00068018091650190916601A0916701B091D1
:100DE0006801805D9B4FA140B04089F480916A0109
:100DF000882369F481E080936A0184E08093FC0693
:100E00006091430487E090E070E00E94791A04EC5E
:100E100015E0FF24C0E0D0E0F1E0CF2ED12CE8E2D5
:100E2000EE2EC6010C2E02C0880F991F0A94E2F71D
:100E300087BB809588BB8E2D8A95F1F769B343B344
:100E40004095242F269530E028703070842F8695A9
:100E50008695869590E084709070282B392B842F8E
:100E6000881F8827881F90E0282B392B842F829594
:100E70008695877090E082709070282B392B50E017
:100E8000440F551F40715070242B352B322F2227D1
:100E9000609570E0262B372BF80131832083232BBC
:100EA000B1F0F4E0FF2A10926501109266011092F1
:100EB00067011092680180916A01813041F40E94BB
:100EC000AF1A8091FA060E94801910926A01219649
:100ED0000E5F1F4FC830D10509F0A3CF8F2DDF91D2
:100EE000CF911F910F91FF90EF90DF90CF900895D9
:100EF000982F8856843000F58091FC0690E02BE016
:100F000030E0829FF001839FF00D929FF00D11243D
:100F1000E05FFB4F67816F5F6783615087E090E020
:100F200070E00E94791A80E194E040E058E660E0C9
:100F300070E00E949A0A11C0892F8C56853068F0A3
:100F40009C3C68F08091ED06882321F0892F0E9457
:100F5000C90B03C0892F0E94B80A81E00895933716
:100F600051F42DE088E190E00FB6F894A89581BD8A
:100F70000FBE21BDFFCF80E0923709F481E00895D4
:100F80002F923F924F925F926F927F928F929F9299
:100F9000AF92BF92CF92DF92EF92FF920F931F9387
:100FA000DF93CF93CDB7DEB760970FB6F894DEBF6F
:100FB0000FBECDBF0E94BA06182F882339F4809146
:100FC000760118161CF481508093760180916A0195
:100FD000882341F480916C010E94F7188091690187
:100FE0000E94F618812F90E00E94161A0E94E81ABB
:100FF0000E94F20FE0916901F0E0E852FA4F80811F
:101000000E94C504ECE42E2EE5E03E2E24EC35E0F3
:101010003C832B831D82442455241A821982A82ED6
:10102000BB24AA0CBB1CAA0CBB1C64E670E0A60E79
:10103000B71ED1018D919C9111977C0100E010E0C9
:10104000EB81FC81808191819C0140E050E08D9397
:101050009C936DE070E0469EC001479E900D569EA9
:10106000900D1124DC01A45ABA4FB88BAF8762EE01
:10107000662E64E0762E680E791E88249924C801B5
:10108000B70196958795779567956B877C878D8750
:101090009E87DA01C901B695A795979587958F83A5
:1010A0009887A987BA87D501ED91FC9169817A81EA
:1010B000E60FF71FE80DF91DD490DD2009F487C075
:1010C000CC24C394C22220FF08C080916C0181FD12
:1010D00004C08D2D6FEF0E944D057E2D71707E83B3
:1010E000E0FC08C0CC2091F00E94F8188D2D0E94E1
:1010F000650609C0CC2051F48D2D60E00E944D059D
:101100008D2D0E947807882309F061C08D2D0E94E3
:101110001B05182F8758873008F459C0815E8D3021
:1011200008F455C01C3C08F052C0112309F44FC00C
:101130008091ED06882309F1AF85B8898C91CC2088
:1011400061F08F5F8C93815084300CF440C0812F0C
:101150000E943F0F8D8328E037C08150AF85B8894A
:101160008C938F5F84302CF0812F0E943F0F8D83F2
:101170002EC0EF85F88910822AC0FE81FF2331F44A
:10118000CC2049F0AF85B8891C9205C0CC2019F459
:10119000EF85F8891082AF85B8898C9187FD17C0DB
:1011A0008F5F8C938150843094F0CC2039F0812F64
:1011B00061E00E942E11F301108305C0D3018C91D0
:1011C00060E00E942E112FEFEF85F88920830894AC
:1011D000811C911C6F8578896F5F7F4F788B6F873B
:1011E0000894611C711C7DE08716910449F02F81E1
:1011F000388549855A85EB84FC840D851E853FCF53
:101200000894411C511C82E090E0280E391EAB81ED
:10121000BC811296BC83AB83E981FA813D96FA8347
:10122000E983F8E04F16510409F003CF8D81856002
:1012300060960FB6F894DEBF0FBECDBFCF91DF91A1
:101240001F910F91FF90EF90DF90CF90BF90AF90E4
:101250009F908F907F906F905F904F903F902F90D6
:101260000895CF93DF93E1EEF5E0119226E0E13EA1
:10127000F207D9F7C4E6D0E0FE0180E093E6A0E0F3
:10128000B0E081939193A193B19380509F4FAF4F62
:10129000BF4F20E0E438F207A1F726E432E006C0B1
:1012A000FC01EF51FA4F808182608083F9018491C3
:1012B00090E02F5F3F4F009799F72AE432E006C095
:1012C000FC01EF51FA4F808184608083F9018491A1
:1012D00090E02F5F3F4F009799F72EE432E006C071
:1012E000FC01EF51FA4F808188608083F90184917D
:1012F00090E02F5F3F4F009799F722E532E006C05C
:10130000FC01EF51FA4F808181608083F901849163
:1013100090E02F5F3F4F009799F720E832E006C03A
:10132000FC01EF51FA4F808180618083F901849143
:1013300090E02F5F3F4F009799F7ECE4F5E01192B2
:10134000119225E0E636F207D1F7A8EDB5E01C9240
:101350006881798140E050E015C0F901E60FF71F80
:10136000E491E43719F4892F822B8C932F5F3F4F40
:101370002D30310591F74F5F5F4F635F7F4F4830EE
:10138000510539F0942F9295990F907E20E030E02E
:10139000E4CF8C91882319F48091D8058C93119611
:1013A000249685E0AD3DB80791F6A4ECB5E020E0C9
:1013B00030E04DE050E06FEF0CC0619301968D304E
:1013C0009105D9F71D921D922F5F3F4F28303105AF
:1013D00061F0249FF001259FF00D349FF00D112442
:1013E000E45AFA4F80E090E0E8CF8DE090E00E9470
:1013F000561C80936901853010F0109269018FE0CE
:1014000090E00E94561C80936300813011F010928E
:1014100063008EE090E00E94561C80936200813051
:1014200011F010926200DF91CF910895982F8156AC
:101430008A3118F4292F2D5510C0892F81548A31F3
:1014400020F4292F2D5332E009C0892F8153893090
:1014500010F020E002C0292F235130E0892F992776
:1014600087FD9095A92FB92FFC01B097EF35F105B5
:1014700008F040C0E65DFF4FEE0FFF1F0590F491AE
:10148000E02D09942EE139C021E237C022E235C0B7
:1014900023E233C024E231C025E22FC026E22DC072
:1014A00027E22BC02CE22AC02DE228C02DE225C065
:1014B0002EE224C02EE221C02FE220C02FE21DC068
:1014C00020E31CC020E319C021E318C021E315C0AC
:1014D00028E214C023E312C023E30FC025E30DC0AC
:1014E00026E30CC026E309C027E308C027E305C0B4
:1014F00028E304C0222311F428E332E0832F922F43
:10150000089527E2FBCF25E3F9CFE7E7F2E080E09B
:101510009EE3A0E0B0E081939193A193B1938050BA
:101520009F4FAF4FBF4F23E0E730F207A1F780E0B6
:1015300008950895CF93DF93403024E4520720E0CC
:10154000620720E0720778F488E10FB6F89481BD55
:1015500011BC0FBEC8EBDBE085E00E94F618CE019F
:101560000197F1F7F9CF0E94003EDF91CF910895E6
:10157000AF92BF92CF92DF92EF92FF920F931F93A1
:10158000CF93DF938C5C843208F08EC090E0FC0136
:10159000EE0FFF1FEE0FFF1FE958FD4FC080D180F7
:1015A000E280F3808C599F4F0E94561C813009F0D5
:1015B0007BC000E0BB2488E2A82EC1E0D0E005C0DB
:1015C0000894C11CD11CE11CF11C043031F484E0EE
:1015D00090E00E94601900E005C00F5F84E090E099
:1015E0000E94DB18F6011491112309F45DC0812FCC
:1015F000865A883070F5812F90E0865A90409E017F
:10160000082E02C0220F331F0A94E2F7B2262B2DB8
:1016100030E002C0359527958A95E2F720FF03C098
:10162000812F61E002C0812F60E00E942E110BC06B
:101630008091EC0684FFFCCF8A2D8A95F1F7892FE3
:1016400060E00E94BB110E94E610982F8C3F81F74A
:10165000B7CF812F61E00E942E110BC08091EC0664
:1016600084FFFCCF8A2D8A95F1F7892F60E00E94D4
:10167000BB110E94E610982F8C3F81F7812F60E00C
:101680000E942E110BC08091EC0684FFFCCF8A2DA6
:101690008A95F1F7892F60E00E94BB110E94E61045
:1016A000982F8C3F81F78CCFDF91CF911F910F91B5
:1016B000FF90EF90DF90CF90BF90AF900895DF93B1
:1016C000CF93CDB7DEB728970FB6F894DEBF0FBE25
:1016D000CDBF982F8091AB0484FFFCCFFE013196E3
:1016E00088E0DF011D928A95E9F799836B83CF012A
:1016F00068E00E94C00428960FB6F894DEBF0FBEC3
:10170000CDBFCF91DF9108958091ED06882321F020
:1017100080E060E00E945F0B08950F931F93282FD5
:10172000192F8091ED06882329F0822F692F0E94BE
:101730005F0B2CC0892F61E00E942E1108E20BC0C4
:101740008091EC0684FFFCCF802F8A95F1F7892FDA
:1017500060E00E94BB110E94E610982F8C3F81F739
:10176000812F60E00E942E1118E20BC08091EC06E0
:1017700084FFFCCF812F8A95F1F7892F60E00E94CA
:10178000BB110E94E610982F8C3F81F71F910F919B
:101790000895CF92DF92EF92FF920F931F93CF9312
:1017A000DF938C5C843208F061C090E0FC01EE0FA6
:1017B000FF1FEE0FFF1FE958FD4FE080F18002810F
:1017C00013818C599F4F0E94561C813009F04EC0E6
:1017D000F7010894E11CF11C1491CC2400E0DD24F5
:1017E000C1E0D0E0812F865A883070F5812F90E0DB
:1017F000865A90409E0102C0220F331F8A95E2F75D
:10180000D226F70114911DC0043031F484E090E039
:101810000E94601900E005C00F5F84E090E00E9424
:10182000DB18A8951C1521F48D2D90E00E948D0BDE
:101830008D2D912F0E948D0BA895F7018491C12EBB
:10184000182F0894E11CF11C812F855A8A3028F04A
:10185000112331F01C3CC0F2C5CF112309F0C2CFD7
:1018600080E090E00E948D0B0E94AF1ADF91CF9133
:101870001F910F91FF90EF90DF90CF900895CF923E
:10188000DF92EF92FF920F931F93CF93DF936C0140
:10189000C0E0D0E00FC0812F0E94160A082FF92E59
:1018A0001E1511F40E94840B802F9F2D0E948D0B1A
:1018B0002196E12EF601EC0FFD1F1491112319F072
:1018C000C032D10541F70E94840BDF91CF911F9167
:1018D0000F91FF90EF90DF90CF900895CF93DF931B
:1018E00088EB92E00E943F0CC4E6D0E0A895CE01C0
:1018F00060E00E945E1C88E790E00E943F0C219609
:10190000C838D10599F78EE090E060E80E945E1C2F
:101910008FE090E060E80E945E1C8CEC92E00E94F8
:101920003F0CDF91CF910895FF920F931F93182FD3
:10193000F62E662319F401E382E002C00FE280E094
:10194000902F0E948D0BA895193AC1F01A3A38F4DD
:10195000173A81F0183A80F4163A89F409C01B3A14
:1019600049F01B3A28F01C3A39F01D3A41F406C000
:1019700006E005C006E103C004E001C00AE080E023
:10198000902F0E948D0BA895FF2019F091E382E023
:1019900002C090E380E00E948D0B0E94840B1F9197
:1019A0000F91FF9008952F923F924F925F926F9206
:1019B0007F928F929F92AF92BF92CF92DF92EF92DF
:1019C000FF920F931F93DF93CF93CDB7DEB763974B
:1019D0000FB6F894DEBF0FBECDBF8C5C8987843212
:1019E00008F064C1E82FF0E0EE0FFF1FEE0FFF1FBD
:1019F000E958FD4F2081318138872F83A89584E7EE
:101A000090E060E070E00E944D0529E635E080E05E
:101A100090E04DE050E06FEF0BC06193E217F307E9
:101A2000E1F701969F01235F3F4F8830910551F008
:101A3000849FF001859FF00D949FF00D1124E45ACE
:101A4000FA4FEBCF80E992E00E943F0CCC24DD24DA
:101A5000EE24FF2487018F819885BC0180E090E00F
:101A60006E877F87888B998BA8950E94BA06809194
:101A70006901ACE4B5E0BE83AD83E4ECF5E0FC8342
:101A8000EB83222433241A821982482E5524440CD5
:101A9000551C440C551C24E630E0420E531EAD810B
:101AA000BE818D919C9111979C0140E050E0EB81AB
:101AB000FC81808191814C01AA24BB248D939C934D
:101AC0008DE090E0289EB001299E700D389E700D2B
:101AD0001124645A7A4F7B8B6A8B66247724682D95
:101AE0006170DA01C901B695A795979587958A87A0
:101AF0009B87AC87BD87B694A79497948794D201AF
:101B0000ED91FC9189819A81E80FF91FE60DF71D8F
:101B10009491892F84508A3A08F09DC020FD06C018
:101B2000662349F0AA89BB891C9205C0662319F473
:101B3000EA89FB891082AA89BB898C9187FD8BC0B9
:101B40008F5F8C93815084300CF485C0662309F438
:101B50006FC0943751F0B1E0EB16F10401051105A7
:101B600081F5EFE7CE16D10461F527E731E0C20E2B
:101B7000D31ED6011C9284EA92E00E943F0CA895E5
:101B8000F7E0EE0CFF1C001F111FFA95D1F7EF8153
:101B9000F885CF01A0E0B0E0E80EF91E0A1F1B1F78
:101BA00087E791E0B801A7010E949A0AA895F985F4
:101BB0008F2F90E08C599F4F61E00E945E1CA8958A
:101BC00075C0F601E958FE4F9083892F865A8830F8
:101BD00028F4892F61E00E94940C05C080E00E94E7
:101BE0008D0B0E94840B2FE7C216D104E9F4B801D3
:101BF000A701E7E0440F551F661F771FEA95D1F74D
:101C00008E859F85A889B989480F591F6A1F7B1F38
:101C100087E791E00E949A0A0894E11CF11C011DDB
:101C2000111DCC24DD2413C00894C11CD11C0FC08D
:101C3000892F865A883058F4F601E958FE4F908370
:101C40000894C11CD11C892F60E00E94940CEFEF16
:101C5000AA89BB89EC930894611C711C2A893B8971
:101C60002F5F3F4F3B8B2A8B3DE06316710429F0B9
:101C70002A853B854C855D8532CF0894211C311C1B
:101C80006D817E816E5F7F4F7E836D838B819C81B2
:101C900002969C838B83A981BA811D96BA83A983FE
:101CA000B8E02B16310409F0FACEDECE63960FB6FB
:101CB000F894DEBF0FBECDBFCF91DF911F910F9182
:101CC000FF90EF90DF90CF90BF90AF909F908F905C
:101CD0007F906F905F904F903F902F900895FC0100
:101CE0008381813261F08232D9F0823081F582EADB
:101CF00093E09093BB048093BA048BE308958281B0
:101D0000882319F0813019F503C084EB93E002C0F9
:101D10008DEC93E09093BB048093BA0489E008951E
:101D200084819581009719F0019789F408C080EEAD
:101D300092E09093BB048093BA048FE308958FE1FF
:101D400093E09093BB048093BA0483E8089580E005
:101D50000895FC0141E0409307032DE033E0309308
:101D6000BB042093BA04808180768032D1F58181D2
:101D7000813011F488E00895893061F48281938183
:101D80008050924061F584819581892B41F5409383
:101D9000080325C0823019F48CE093E01AC08A3021
:101DA00061F4838180930C03882319F040936300CE
:101DB00002C01092630080E00895833031F4838183
:101DC000882379F410927C0008958B3051F48CE7CD
:101DD00090E09093BB048093BA0481E008958FEF64
:101DE000089580E00895582FDB01642F282F392FA4
:101DF000F90108C090818C91981711F081E0089545
:101E0000319611968E2F851B8617A0F380E00895DA
:101E1000EDE0F3E0A5E1B3E090818C91981749F4EF
:101E200083E0E431F80711F480E0089531961196CB
:101E3000F3CF81E0089580910B0391E0892780938F
:101E40000B03882329F081E090E00E946019089537
:101E500081E090E00E94DB18089580910A0391E0F0
:101E6000892780930A03882329F082E090E00E946A
:101E70006019089582E090E00E94DB180895982F81
:101E8000865A883088F4892F90E0865A904021E065
:101E900030E002C0220F331F8A95E2F780910D03D4
:101EA000822B80930D039BC0892F8F5A8D3108F0B0
:101EB00062C083E08093E106933B19F482EE90E0E8
:101EC00072C0963B19F489EE90E06DC0973B19F40F
:101ED0008AEE90E068C09F3A19F485EB90E063C009
:101EE000903B19F486EB90E05EC0913B19F487EBD0
:101EF00090E059C0973C19F48CEC90E054C0923BB0
:101F000019F48DEC90E04FC09C3B19F483E891E00C
:101F10004AC09D3B19F48AE891E045C09E3B19F404
:101F200082E991E040C09F3B19F484E991E03BC015
:101F3000903C19F481E292E036C0913C19F483E2BE
:101F400092E031C0923C19F484E292E02CC0933CC0
:101F500019F485E292E027C0943C19F486E292E0FD
:101F600022C0953C19F487E292E01DC0963CB1F482
:101F70008AE292E018C0892F84598430D0F482E03C
:101F80008093E106953919F481E890E00CC0963908
:101F900019F482E890E007C0973919F080E090E0EA
:101FA00002C083E890E09093E3068093E20684E029
:101FB00017C08091E706883050F08FE093E061E031
:101FC00070E046E050E00E944F1C82E009C0E82F1C
:101FD000F0E0E35FFC4F90838F5F8093E70680E043
:101FE0008160089582E08093E70688E0EDE0F3E009
:101FF000DF011D928A95E9F71092E3061092E2063E
:1020000080E00895ADE0B3E0E5E1F3E088E0019021
:102010000D928150E1F70895A5E1B3E0EDE0F3E022
:1020200088E001900D928150E1F70895EF92FF92C0
:102030000F931F9310920703F8940E947A038B9AD0
:1020400080E69AEE0197F1F78B9878942FE088E17B
:1020500090E00FB6F894A89581BD0FBE21BD00E0B9
:10206000EE24E39401C00F2DA8950E948B030E94DB
:10207000C007182F8823C1F380910C038823C1F473
:102080000E94080F882309F41E7F9091E406809136
:10209000E106981769F49091E5068091E206981799
:1020A00039F49091E6068091E306981709F41B7FB6
:1020B00008B600FE0DC0E8BEF0900C03FF2041F012
:1020C000053020F08BEFF82EF00E03C0116001C038
:1020D000F02E10FF12C08091AB0484FF0EC08DE083
:1020E00093E068E00E94C004A5E1B3E0EDE0F3E016
:1020F00088E001900D928150E1F712FFB4CF8091FA
:10210000D60484FFB0CF81EE96E063E00E94BB046A
:10211000A4EEB6E0E1EEF6E083E001900D9281508E
:10212000E1F7A1CFFC0180910803882339F06130E9
:1021300029F480818093FA060E9480191092080386
:1021400081E00895282F8F3F31F410921E0381E023
:102150008093240308958E3F21F08D3F29F410923F
:102160001E0310922403089580912403882351F0C4
:1021700080911E03E82FF0E0E251FC4F20838F5F37
:1021800080931E038091220390912303019668ECB3
:1021900070E00E94FF1BFC019093230380932203B5
:1021A00080912003909121038E179F0759F4009787
:1021B00019F487EC90E001C001979093230380937A
:1021C00022030895EB5DFC4F2083089520912003A6
:1021D000309121038091220390912303281739071E
:1021E00011F480E00895C901019668EC70E00E9446
:1021F000FF1BFC019093210380932003EB5DFC4FB8
:102200008081089540E02091200330912103809146
:102210002203909123032817390709F441E0842F02
:10222000089510922103109220031092230310921C
:10223000220310921E0310921F031092F8031092B3
:10224000F9031092FA031092FB03ECE4F5E011920B
:10225000119285E0EC35F807D1F708951F93CF93DD
:10226000DF93982F282F30E0F901EA5BFE4F14919D
:10227000662309F44EC08093ED031092F803109288
:10228000F9031092FA031092FB031092EA06E90197
:10229000CF51DA4F888181FF2EC0963421F09834D7
:1022A00009F065C00EC08FEF0E94A21080EE0E9460
:1022B000A21082E10E94A21080EE0E94A2108CE780
:1022C00024C08DEF0E94A21081EE0E94A21084E132
:1022D0000E94A21087E70E94A21081EE0E94A21025
:1022E00080EF0E94A21084E10E94A21080EF0E9461
:1022F000A21087E737C08FEF0E94A210888180FF6D
:1023000003C080EE0E94A210812F0E94A2108EEFC7
:1023100029C08091ED03891711F410921E03E92F53
:10232000F0E0EF51FA4F808181FF13C09634F9F449
:1023300080EE0E94A21080EF0E94A2108CE70E9403
:10234000A21080EE0E94A21080EF0E94A21082E1F3
:1023500009C080FF03C080EE0E94A21080EF0E949F
:10236000A210812F0E94A2108CEF0E94A210DF9178
:10237000CF911F9108951F93162F8E3F11F08093D8
:10238000E9060E94B9131093EA061F910895EF928F
:10239000FF920F931F938091EA06843009F4E1C005
:1023A000853030F4882371F0833009F0EAC0D7C05B
:1023B000883009F4DBC08C3009F45DC0853009F049
:1023C000E0C0D2C0209120033091210380912203EC
:1023D000909123032817390711F40E94C0070E9427
:1023E000E610182F8C3F09F4CDC0882361F060E01F
:1023F0000E94BB111092F8031092F9031092FA0395
:102400001092FB03BFC080911E03882309F4BAC059
:102410008091F8039091F903A091FA03B091FB0326
:102420000196A11DB11D8093F8039093F903A09329
:10243000FA03B093FB0320917D0062E3269F900195
:1024400011242C593F4F442737FD4095542F8217B4
:102450009307A407B5070CF495C01092F8031092E7
:10246000F9031092FA031092FB0310921F038CE001
:102470008093EA0687C080911F03882311F40E948D
:10248000C00780911E038823C1F020912003309162
:10249000210380912203909123032817390769F4BF
:1024A0008091F8039091F903A091FA03B091FB0396
:1024B0000197A105B10561F40FC01092EA061092D0
:1024C000F8031092F9031092FA031092FB0359C01B
:1024D00080911F038823A9F090911F03E92FF0E05A
:1024E000E251FC4F80819F5F90931F036CE00E943C
:1024F000BB1160911E0380911F030E94DF1B90930C
:102500001F03E090F803F090F9030091FA03109193
:10251000FB030894E11CF11C011D111D60917E005C
:1025200070917F0080918000909181002AE030E0DE
:1025300040E050E00E94C01B9B01AC012D5F3F4F6B
:102540004F4F5F4FC801B7010E94341C6093F803DE
:102550007093F9038093FA039093FB0312C082E017
:102560000DC08BEA65E00BC083E808C00E94111122
:1025700080E00E94D1190E94AF1A8AEA60E00E94AE
:10258000BB1110E0812F90E01F910F91FF90EF9011
:1025900008951F930E94C813182F6091EA066230B5
:1025A00099F0633020F4613009F06CC007C06630E8
:1025B00009F448C0673009F065C00FC0853F09F4D1
:1025C0009FC08AEF61E09EC00E941111112311F09B
:1025D00060E001C063E08AEF95C0682F70E0CB0136
:1025E00080769070A5E095958795AA95E1F7809300
:1025F0007D00AB0148715070F3E055954795FA9511
:10260000E1F780E090E021E030E003C0220F331FCB
:10261000019684179507D4F367707070269FC001E8
:10262000279F900D369F900D1124AA2797FDA09506
:10263000BA2F80937E0090937F00A0938000B09388
:1026400081005EC02091FA0680FF02C0246001C0B4
:102650002B7F2093FA062091FA0681FF02C02160A9
:1026600001C02E7F2093FA062091FA0682FF02C055
:10267000226001C02D7F2093FA068091FA060E9405
:1026800080193EC0133F41F1143F60F41E3E99F0A3
:102690001F3E18F41D3EA1F51CC0103FB9F0123FBB
:1026A00079F50BC0163FD9F0173F50F11E3F59F096
:1026B0001F3F31F505C08EEE25C08AEF64E022C0D1
:1026C0008AEF68E01FC08091E9061CC08AEF62E0D3
:1026D00019C08AEF66E016C08AEF67E013C081E098
:1026E00080937D0085E090E0A0E0B0E080937E00E4
:1026F00090937F00A0938000B09381000E941111FD
:102700008AEF60E00E94BB1180E090E01F91089585
:10271000CF93DF9388E08093EA06F8940E94E01458
:102720002FE088E190E00FB6F894A89581BD0FBE28
:1027300021BD7894C0E0D0E0A8958091EC0682FF9E
:1027400010C0CC3FD10559F02091200330912103D6
:1027500080912203909123032817390711F40E94D6
:10276000C9128091EC0684FFE7CF0E94C711EC01EB
:10277000E3CF8093FD03F8948091EC068F7E8093E5
:10278000EC068091EC0688608093EC0678940895BE
:10279000F8948091EC068B7F8093EC06789480917E
:1027A000FC0308958FEC82BF8091EB06833000F527
:1027B0008B98939A8091EC0680FF23C0829BA3C0E4
:1027C0008091EB06813031F0813040F0823009F0A9
:1027D000F6C006C0839902C08DE096C082E094C026
:1027E0008091EC0683FFEBC093988B9A84E28CC0B7
:1027F0008091EB068A3108F079C08091EC0680FD6B
:1028000008C08091EC0681608093EC068A98929AC9
:102810000895829B76C08091EB06873140F4803129
:1028200018F58D3061F08F3009F055C00CC088313B
:10283000E1F1883158F1893109F04DC049C08091EA
:10284000EC068D7F4DC08091EC068B7F8093EC066B
:10285000839B05C080E88093FC0381E014C0109244
:10286000FF031092FC0337C08091FC038695809390
:10287000FC03839B30C08091FC0380688093FC0341
:102880008091FF038F5F8093FF0325C0839B05C06A
:102890008091FF038F5F8093FF038091FF0380FD92
:1028A0001AC08091EC06826010C0839905C08091A7
:1028B000EC0682608093EC068091EC0681FD0BC0F3
:1028C00093988B9A8091EC0684608093EC0603C009
:1028D0008B98939A6CC092988A9A8091EC068E7F1E
:1028E0008093EC068091EB068F5F0EC08091EB0623
:1028F0008F3208F064C08091EC0680FF10C082998E
:1029000006C08B98939A81E08093EB06089580919E
:10291000EC068E7F8093EC0692988A9A08958091B7
:10292000EC0681608093EC068A98929A8091EB067F
:102930008C3228F4853280F48432E1F507C08D3280
:1029400099F18D32E8F08E32A9F531C08091FD0306
:102950008093FE031092FF038091FE0380FF08C066
:102960008B98939A8091FF038F5F8093FF0302C03F
:1029700093988B9A8091FE0386958093FE031AC0EC
:102980008091FF0380FF03C093988B9A02C08B98BD
:10299000939A8091EC06877F8093EC068091EC06F9
:1029A00080618093EC0606C08B98939A03C01092C6
:1029B000EB0608958091EB068F5F8093EB060895F8
:1029C0001092EB0681E18093EC068A98929A8B989C
:1029D000939A0E949D1582E00E94C41580E062EDEA
:1029E00073E10E94FA1589B7816089BF8FEC82BFBD
:1029F00008950895882329F0969A8E988F9A97982B
:102A000008958E9A9698979A8F9808958FEF8BBB1A
:102A100085BB88BB1ABA14BA17BA83EB81BB80E4B2
:102A200082BB80E090E00895BA9AC29888E28A95C5
:102A3000F1F7CF9907C08CE090E061E00E945E1C46
:102A400081E008959D9907C08CE090E060E00E94CD
:102A50005E1C80E008958CE090E00E94561C81117D
:102A600081E008950E9406150E9414158093ED06DA
:102A70000E94FA140E946E1588E00E94C21688E037
:102A800090E00E941C170E9431090E94850A8091E3
:102A9000ED068823A1F081E00E94D11985E090E045
:102AA0000E94DB1887E090E00E94DB1888E090E04D
:102AB0000E94DB180E94AF1A0E9416100BC085E01E
:102AC00090E00E94601980E00E94D1190E94AF1A24
:102AD0000E94881380E090E00895089580E090E0DF
:102AE000FC01EE0FFF1FE050FC4F11821082019697
:102AF00088309105A9F783B7887F826083BF12BEB3
:102B00001092EE061092EF061092F0061092F10667
:102B10008EB5887F82608EBD1DBC1CBC85B5887F4C
:102B2000826085BD14BC1092F6061092F7061092D2
:102B3000F8061092F9067894089583B7887F82602A
:102B400083BF12BE1092EE061092EF061092F006AE
:102B50001092F10608958EB5887F82608EBD1DBCEF
:102B60001CBC089585B5887F826085BD14BC109219
:102B7000F6061092F7061092F8061092F9060895DC
:102B800089B7806489BF089593B7987F982B93BFC6
:102B900008959EB5987F982B9EBD089595B5987F12
:102BA000982B95BD089583B7E82FF0E0E770F0709B
:102BB000EE0FFF1FE352FC4F25913491C901089598
:102BC0008EB5E82FF0E0E770F070EE0FFF1FE352D4
:102BD000FC4F25913491C901089585B5E82FF0E0A7
:102BE000E770F070EE0FFF1FE751FC4F2591349115
:102BF000C9010895883040F4E82FF0E0EE0FFF1F80
:102C0000E050FC4F718360830895883040F4E82FD2
:102C1000F0E0EE0FFF1FE050FC4F1182108208958C
:102C2000EF92FF920F931F93CF93DF93EC0112B7B4
:102C30001092F2061092F3061092F4061092F50626
:102C400083B7E82FF0E0E770F070EE0FFF1FE3525C
:102C5000FC4F2591349140E050E060E07BE187EB50
:102C600090E00E94121CB901CA01693B2DE872076D
:102C700026E0820720E09207A0F437E2C131D307B3
:102C800080F49E0140E050E00E94C01B28EE33E03B
:102C900040E050E00E94121CC901DA01BC01CD01E4
:102CA00021C028EE33E040E050E00E94121CCA012F
:102CB000B9019E0140E050E00E94C01B13C080910A
:102CC000F2069091F306A091F406B091F50685B74F
:102CD0008F7885BF85B7806885BF889585B78F77E2
:102CE00085BF08C09B01AC01210F311D411D511D45
:102CF00079018A012091F2063091F3064091F406A1
:102D00005091F50682B790E0A0E0B0E0542F432F39
:102D1000322F2227822B932BA42BB52B8E159F05A8
:102D2000A007B10760F2DF91CF911F910F91FF9043
:102D3000EF9008951092EE061092EF061092F006B2
:102D40001092F10608952091EE063091EF06409121
:102D5000F0065091F106B901CA0108951092F606E5
:102D60001092F7061092F8061092F9060895209135
:102D7000F6063091F7064091F8065091F906B90130
:102D8000CA010895893031F48FB582608FBD8FB547
:102D90008E7F0AC08A3019F48FB5826002C08FB569
:102DA0008D7F8FBD8FB581608FBD1BBC1ABC19BCD8
:102DB00018BC08952FB52E7F2FBD2FB522602FBDD3
:102DC0002EB528602EBD2EB520612EBD97BD86BDC7
:102DD0001BBC1ABC19BC18BC08958FB58D7F8FBD64
:102DE0008FB58E7F8FBD8FB58F778FBD8FB58F7B62
:102DF0008FBD8FB58F7D8FBD8FB58F7E8FBD0895B1
:102E00008FB580688FBD8FB58F7B8FBD08958FB5CF
:102E100080628FBD8FB58F7E8FBD08958FB58F7700
:102E20008FBD8FB58F7B8FBD08958FB58F7D8FBD83
:102E30008FB58F7E8FBD089585B5877F85BD85B59C
:102E4000806485BD13BC089585B5806285BD85B558
:102E50008F7E85BD089585B58F7D85BD85B58F7EB7
:102E600085BD089583BD08959BBD8ABD089599BD14
:102E700088BD08951F920F920FB60F9211242F93C1
:102E80003F934F935F936F937F938F939F93AF93F2
:102E9000BF93EF93FF938091EE069091EF06A09180
:102EA000F006B091F1060196A11DB11D8093EE06CA
:102EB0009093EF06A093F006B093F1068091F2068E
:102EC0009091F306A091F406B091F5060196A11D2C
:102ED000B11D8093F2069093F306A093F406B0938D
:102EE000F5068091000490910104892B29F0E0916E
:102EF0000004F09101040995FF91EF91BF91AF910A
:102F00009F918F917F916F915F914F913F912F9101
:102F10000F900FBE0F901F9018951F920F920FB633
:102F20000F9211242F933F934F935F936F937F934F
:102F30008F939F93AF93BF93EF93FF93809102047E
:102F400090910304892B29F0E0910204F09103048D
:102F50000995FF91EF91BF91AF919F918F917F91D3
:102F60006F915F914F913F912F910F900FBE0F90F6
:102F70001F9018951F920F920FB60F9211242F9346
:102F80003F934F935F936F937F938F939F93AF93F1
:102F9000BF93EF93FF938091F6069091F706A0916F
:102FA000F806B091F9060196A11DB11D8093F606B1
:102FB0009093F706A093F806B093F90680910A045F
:102FC00090910B04892B29F0E0910A04F0910B04F5
:102FD0000995FF91EF91BF91AF919F918F917F9153
:102FE0006F915F914F913F912F910F900FBE0F9076
:102FF0001F9018951F920F920FB60F9211242F93C6
:103000003F934F935F936F937F938F939F93AF9370
:10301000BF93EF93FF9380910E0490910F04892B3F
:1030200029F0E0910E04F0910F040995FF91EF91C2
:10303000BF91AF919F918F917F916F915F914F91D0
:103040003F912F910F900FBE0F901F9018951F92D8
:103050000F920FB60F9211242F933F934F935F93CC
:103060006F937F938F939F93AF93BF93EF93FF9350
:103070008091040490910504892B29F0E0910404C7
:10308000F09105040995FF91EF91BF91AF919F9148
:103090008F917F916F915F914F913F912F910F9001
:1030A0000FBE0F901F9018951F920F920FB60F92A0
:1030B00011242F933F934F935F936F937F938F933D
:1030C0009F93AF93BF93EF93FF93809106049091EA
:1030D0000704892B29F0E0910604F0910704099573
:1030E000FF91EF91BF91AF919F918F917F916F91E0
:1030F0005F914F913F912F910F900FBE0F901F90B6
:1031000018951F920F920FB60F9211242F933F9391
:103110004F935F936F937F938F939F93AF93BF93DF
:10312000EF93FF938091080490910904892B29F073
:10313000E0910804F09109040995FF91EF91BF9186
:10314000AF919F918F917F916F915F914F913F913F
:103150002F910F900FBE0F901F9018951F920F92F6
:103160000FB60F9211242F933F934F935F936F935A
:103170007F938F939F93AF93BF93EF93FF93809130
:103180000C0490910D04892B29F0E0910C04F0912E
:103190000D040995FF91EF91BF91AF919F918F9190
:1031A0007F916F915F914F913F912F910F900FBE43
:1031B0000F901F901895DC018B309105B0F4FC0145
:1031C000EE0FFF1FEE5BFE4F0190F081E02DA85A3D
:1031D000BE4F81E090E00C9002C0880F991F0A94C6
:1031E000E2F780952081282320830895089508958B
:1031F00020914E042431B0F48FEF91E0909361045C
:1032000080936004922F9F5F90934E048FEF989F5E
:10321000C001112464E170E00E94FF1B70937704E9
:103220006093760408958BE090E06091FC060E9424
:103230005E1C08958730910581F08830910518F45F
:103240000597F1F406C08830910559F00B97C1F449
:103250000CC0CB010E9434170895CB010E94371790
:103260000895CB010E9432170895CB010E943417B4
:1032700080EA90E00E94371780EA90E00E943217BF
:1032800008958730910579F08830910518F40597F5
:10329000B1F406C08830910549F00B9781F409C05C
:1032A0000E940E1708950E94151708950E942B176B
:1032B00008950E940E170E9415170E942B1708955B
:1032C000CF93DF93EC018B309105B8F40E94411944
:1032D000FE01EE0FFF1FEE5BFE4F0190F081E02D2F
:1032E000C85ADE4F81E090E0088002C0880F991F25
:1032F0000A94E2F72081282B2083DF91CF91089553
:10330000CF93DF93C82F80FF05C080E090E00E943C
:10331000601904C080E090E00E94DB18C1FF1AC071
:1033200081E090E00E9460198091FC0690E02BE023
:1033300030E0829FF001839FF00D929FF00D1124E9
:10334000E05FFB4F87818630F1F487E090E00E94D8
:10335000601919C081E090E00E94DB188091FC06A2
:1033600090E02BE030E0829FF001839FF00D929F70
:10337000F00D1124E05FFB4F8781863021F487E058
:1033800090E00E94DB18C2FF05C082E090E00E943E
:10339000601904C082E090E00E94DB18DF91CF91B9
:1033A00008951F93182F8BE090E00E94DB181123E3
:1033B00019F080E090E002C082E090E00E94601985
:1033C00088EE93E02CE231E0F9013197F1F70197B3
:1033D000D9F78BE090E00E94DB1881E090E00E943A
:1033E000601988EE93E02CE231E0F9013197F1F7B2
:1033F0000197D9F78BE090E00E94DB18112319F0B8
:1034000082E090E002C080E090E00E94601988EEC7
:1034100093E02CE231E0F9013197F1F70197D9F708
:103420008BE090E00E94DB181F9108952091FC062C
:1034300082FF23C030E08BE090E0289FF001299FBD
:10344000F00D389FF00D1124E05FFB4F8781833032
:1034500021F0843039F0813061F587E090E00E94FE
:103460006019089587E090E00E94411987E090E09C
:1034700060E070E00E941A1913C030E08BE090E029
:10348000289FF001299FF00D389FF00D1124E05F77
:10349000FB4F8781833021F0843039F0813049F44B
:1034A00087E090E00E94DB18089587E090E00E949A
:1034B000601908958730910579F08830910518F4E6
:1034C0000597B1F406C08830910549F00B9781F457
:1034D00009C00E94001708950E94071708950E94CE
:1034E000241708950E9407170E9400170E942417AE
:1034F0000895CF93DF93EC016430710534F46230AA
:1035000071056CF477FF28C016C06630710524F091
:103510006830710584F403C00E9460191DC0CE019B
:103520000E94DB18CE0160E070E00E941A19CE0103
:103530000E945A1A11C08091FC0690E02BE030E006
:10354000829FF001839FF00D929FF00D1124EC0FEC
:10355000FD1FE05FFB4F1082DF91CF9108958BE05C
:1035600090E00E94561C8093FC06853010F010926B
:10357000FC06A0E1B4E020E038E6F90184918D93E7
:103580002F5F3F4FF4E0A734BF07B9F710928504CF
:1035900010929904109298048091FC0690E0D797BD
:1035A0002BE030E0AC01429FC001439F900D529F41
:1035B000900D1124A80FB91F17966C9187E090E029
:1035C00070E00E94791A8091FA060E94801908958D
:1035D0008091FC0690E02BE030E0829FF001839F19
:1035E000F00D929FF00D1124E05FFB4F878188233F
:1035F00059F0813009F06CC08091650190916601AD
:10360000895E934008F4ABC0809185048823B1F4AF
:10361000809198049091990463E070E00E94EB1B04
:1036200087E090E00E941A19809198049091990483
:103630008D5F924008F43EC081E01BC08230E1F40F
:10364000809198049091990465E070E00E94EB1BD2
:10365000CB016FEF70E0681B790B87E090E00E9470
:103660001A1980919804909199048B5F944010F1FD
:1036700083E0809385041EC0813069F480919804B2
:10368000909199048B5F9440A8F010929904109245
:10369000980482E0EECF833069F480919804909191
:1036A00099048D5F924030F0109299041092980422
:1036B0001092850487E090E00E945A1A8091980445
:1036C0009091990401969093990480939804089599
:1036D000823009F044C080916004909161040097A9
:1036E00031F0019790936104809360042FC0209182
:1036F0007604309177042115310511F180919804F9
:103700009091990401969093990480939804059759
:10371000E8F01092990410929804215030403093B0
:103720007704209376048FEF90E0821B930B6CE07C
:1037300070E00E94EB1B84E1861B80934E0406C060
:1037400010924E041092990410929804609176049D
:103750007091770487E090E00E941A19089587E03D
:1037600090E060E070E00E941A1987E090E00E940B
:1037700041191092990410929804109285040895AA
:10378000629FD001739FF001829FE00DF11D649F45
:10379000E00DF11D929FF00D839FF00D749FF00DD1
:1037A000659FF00D9927729FB00DE11DF91F639F72
:1037B000B00DE11DF91FBD01CF0111240895991B22
:1037C00079E004C0991F961708F0961B881F7A9518
:1037D000C9F780950895AA1BBB1B51E107C0AA1F1A
:1037E000BB1FA617B70710F0A61BB70B881F991FA2
:1037F0005A95A9F780959095BC01CD01089597FB46
:10380000092E07260AD077FD04D0E5DF06D0002078
:103810001AF4709561957F4F0895F6F7909581950C
:103820009F4F0895A1E21A2EAA1BBB1BFD010DC0DC
:10383000AA1FBB1FEE1FFF1FA217B307E407F50760
:1038400020F0A21BB30BE40BF50B661F771F881F3C
:10385000991F1A9469F760957095809590959B01D2
:10386000AC01BD01CF01089597FB092E05260ED0AE
:1038700057FD04D0D7DF0AD0001C38F4509540958E
:10388000309521953F4F4F4F5F4F0895F6F7909534
:103890008095709561957F4F8F4F9F4F0895DC0104
:1038A00001C06D9341505040E0F70895E199FECF7B
:1038B0009FBB8EBBE09A99278DB30895262FE1997F
:1038C000FECF9FBB8EBB2DBB0FB6F894E29AE19A58
:0A38D0000FBE01960895F894FFCF93
:1038DA005AFF808000630000006400000065000059
:1038EA0000660000006700002D00007001020A0057
:1038FA0000000101010101010101010101010101B0
:10390A0001010100000000000000000000000000AA
:10391A00000001000100000000000000000000009B
:10392A00000001000100010000000000000000008A
:10393A000000010001000100010000000000000079
:10394A000000010001000100010001000100010066
:10395A00010001010101010101010101010101014E
:10396A00010101000000000000000000000000004A
:10397A000000010001000100010001000100010036
:10398A000100010001000100010001000100010025
:10399A000100010001000100000000000000000019
:1039AA000000010001000100010000000000000009
:1039BA000000320032003200320032003500350099
:1039CA003200350035003500000105050500000408
:0439DA0000000000E9
:10630000293A3B3C3D3E3F404142434445351E1FF8
:1063100020212223242526272D2E2B141A08151779
:106320001C180C12132F3039041607090A0B0D0E16
:106330000F333428A71D1B0619051110363738AB4B
:1063400052A6A82CACAA50514F494A4B2A315F6043
:106350006156595A5B584C4D4E46475C5D5E5763DB
:08636000A9AD655354557462A8
:10640000293A3B3C3D3E3F404142434445351E1FF7
:1064100020212223242526272D2E2B141A08151778
:106420001C180C12132F3039041607090A0B0D0E15
:106430000F333428A71D1B0619051110363738AB4A
:1064400052A6A82CACAA50514F494A4B2A315F6042
:106450006156595A5B584C4D4E46475C5D5E5763DA
:08646000A9AD655354557462A7
:10650000293A3B3C3D3E3F404142434445351E1FF6
:1065100020212223242526272D2E2B141A08151777
:106520001C180C12132F3039041607090A0B0D0E14
:106530000F333428A71D1B0619051110363738AB49
:1065400052A6A82CACAA50514F494A4B2A31ECED27
:10655000EE56E6E7E8584C4D4E4647E9EAEB5763FE
:08656000A9AD6553545574EF19
:10660000293A3B3C3D3E3F404142434445351E1FF5
:1066100020212223242526272D2E2B141A08151776
:106620001C180C12132F3039041607090A0B0D0E13
:106630000F333428A71D1B0619051110363738AB48
:1066400052A6A82CACAA50514F494A4B2A31ECED26
:10665000EE56E6E7E8584C4D4E4647E9EAEB5763FD
:08666000A9AD6553545574EF18
:10670000688788898A3E3F404142437273351E1F25
:1067100020212223242526272D2E2BCCCDCECFD0D1
:10672000D1D2D3D4D52F3039D6D7D8D9DADBDCDDE6
:10673000DE333428A7DFE0E1E2E3E4E5363738ABC7
:1067400052A6A82CACAA50514F494A4B2A315F603F
:106750006156595A5B584C4D4E46485C5D5E5763D6
:08676000A9AD655354557462A4
:10680000050505050505050205050505050505053B
:10681000050000000000050505050506020202024C
:106820000205050505050602020202020505050529
:106830000506020202020200000000000000000043
:106840000000000000000000000000000000000048
:1068500000000000000000000068000000000000D0
:10686000293A3B3C3D3E3F404142434445351E1F93
:1068700020212223242526272D2E2B141A08151714
:106880001C180C12132F3039041607090A0B0D0EB1
:106890000F333428A71D1B0619051110363738ABE6
:1068A00052A6A82CACAA50514F494A4B2A315F60DE
:1068B0006156595A5B584C4D4E46475C5D5E576376
:1068C000A9AD655354557462293A3B3C3D3E3F4067
:1068D0004142434445351E1F2021222324252627DB
:1068E0002D2E2B141A0815171C180C12132F3039C3
:1068F000041607090A0B0D0E0F333428A71D1B06BB
:1070000067C000009AC000007EC000007CC0000085
:107010007AC0000078C0000076C0000074C0000094
:1070200072C0000070C000006EC000006CC00000A4
:107030006AC0000068C0000066C0000064C00000B4
:1070400062C0000060C000005EC000005CC00000C4
:107050005AC000000403090412036F0062006400B8
:10706000650076002E00610074001003480049009E
:10707000440042006F006F00740012011001000014
:107080000008C016DF05000101020001090222000C
:107090000101008032090400000103000000092101
:1070A00001010001222100070581030800C8060034
:1070B000FF0901A101150026FF007508850195064D
:1070C0000900B20201850295830900B20201C000E5
:1070D00011241FBECFE5D8E0DEBFCDBF10E0A0E693
:1070E000B0E0EEEFF7E702C005900D92AA36B107C7
:1070F000D9F710E0AAE6B0E001C01D92A23AB107AC
:10710000E1F7D2D17AC37CCFA82FB92F80E090E0ED
:1071100041E050EA609530E009C02D9182279795B3
:10712000879510F084279527305EC8F36F5FA8F32A
:107130000895EADF8D939D930895CF93CFB7CF93B2
:10714000C395839BE9F7839B09C0839B07C0839BFF
:1071500005C0839B03C0839B01C0A3C0DF93C09184
:107160008500DD27C457DF4F839B02C0DF91EBCF43
:107170002F930F931F9300B32FEF03FB20F94F932F
:107180003F9310B34FEF012703FB21F93BE031C0E0
:107190004E7F012F10B3216028C0102F4D7F226039
:1071A000000000B329C04B7F2460012F000010B302
:1071B0002BC010B3477F28602AC04F7E00B32061E8
:1071C0002CC04F7D10B320622FC04F7B00B32064D2
:1071D00032C0422700B349934FEF0000102713FB42
:1071E00020F910B31C70C9F1297F91F2012703FB2C
:1071F00021F900B3237F89F2315058F1102713FB96
:1072000022F910B3277E79F2012703FB23F92F7CA3
:1072100081F200B3102713FB24F92F7971F200C01B
:1072200010B3012703FB25F92F7359F200C000B3F7
:10723000102713FB26F9223040F200C010B30127BB
:1072400003FB27F9243028F64F77206810B300009D
:10725000F9CF10E41ABF002719C03B503195C31B6A
:10726000D04010E41ABF0881033CF9F00B34E9F078
:10727000209183001981110F1213EDCF4A81441F11
:10728000093641F10D3211F0013E29F700938A00D1
:107290003F914F911F910F912F91DF91CAB7C6FD7A
:1072A0004FCFCF91CFBFCF91189520918A00222345
:1072B00079F310918800112321F5343022F13093B5
:1072C000880020938400109185003BE0311B3093AF
:1072D000850019C00091880001309CF40AE54F70C8
:1072E00081F43091600034FD10C000936000C8E765
:1072F000D0E00FC02795A8F45150A9F4220F000048
:10730000F9CF4AE503C042ED01C0432FC4E1D0E00C
:1073100032E011B31C60939A11BB02B320E41CE06D
:107320005F93012756E002BB279520F4515021F4CA
:10733000220FF9CF012756E000003B5A02BBD0F2E2
:10734000279528F4515029F4220F0000F9CF012786
:1073500056E0279502BB20F4515021F4220FF9CFBB
:10736000012756E02991332302BB21F6037F1091B8
:107370008900110FC651D04002BB11F01093830059
:1073800010E41ABF086011B3137F402F437F5F9151
:1073900000C000C002BB11BB42BB7ACF909891984D
:1073A000959891980895813049F0813028F0823085
:1073B00039F0833041F406C0909A0895919A089567
:1073C000959A0895919A089589B3282F30E02170F5
:1073D000307040916C0050916D0011C089B390E005
:1073E000817090702817390719F040E050E002C012
:1073F0004F5F5F4F89B3282F30E0217030704B30E2
:10740000510564F320936F003093700050936D002A
:1074100040936C00232B19F481E080936E008091DF
:107420006E00882309F43FC088EB9BE00197F1F7D9
:1074300080916A008F5F80936A008F3711F081E03E
:10744000089580916B008230F9F0833028F488230E
:1074500051F0813011F50CC08430B1F0843078F0F7
:107460008530D9F416C09ADF80E09DDF81E004C04A
:1074700095DF81E098DF82E080936B0011C08EDFA2
:1074800083E091DF84E0F8CF89DF82E08CDF85E064
:10749000F3CF84DF81E087DF01C080DF10926B00D3
:1074A00010926A0081E008958E9A969A8F9A979822
:1074B000889A899A8D9A899A71DFD098D89AB89AC1
:1074C000C09882DF882309F487C181E08BBF82E006
:1074D0008BBFF89485B7836085BF8BB780648BBF03
:1074E0008B9A80E395E70197F1F78B98789400E009
:1074F000A89590918800392F335037FD19C180919C
:107500008500ACE0B0E0A81BB109A457BF4F809143
:1075100084008D3209F0BDC0383009F007C183EC1A
:10752000809378008AE580936000109271002C911E
:10753000822F807611969C9111978823E1F09930E3
:1075400079F412968C911297823031F41092740073
:1075500027FD8CC09FEF8CC081E0809375004BC1EC
:10756000913009F048C182E690E0909387008093C3
:10757000860027E081C012968C91129710928100AC
:10758000992331F41092820081E890E022E069C0F2
:10759000953019F48093890061C0963009F04EC08F
:1075A00013968C911397813019F48AE790E71DC0E8
:1075B000823041F48CE890E79093870080938600B6
:1075C00022E238C0833009F512968C9112978823F5
:1075D00041F484E590E7909387008093860024E04F
:1075E00029C0813041F488E590E79093870080932B
:1075F000860022E11FC08230E1F48AE690E7909392
:1076000087008093860020E115C0813241F48EE925
:1076100090E7909387008093860029E00BC0823228
:1076200041F48EEA90E7909387008093860021E2F0
:1076300001C020E080E4809371001EC0983019F4EE
:107640008BE890E009C0993019F480938B0006C054
:107650009A3021F481E890E021E003C081E890E0D5
:1076600020E0909387008093860006C016969C9138
:1076700080E8809371000AC017968C911797882331
:1076800021F416969C91921708F0922F9093610026
:107690004DC08091710087FF49C0C0917200D091A8
:1076A000730080917400882349F41196CC9111974E
:1076B0001296DC9112971496392F3750632F680F6A
:1076C00060937400AE014F7751F4F89483E0FE01AB
:1076D00080935700E895789407B600FCFDCFF894A6
:1076E000AE018D919C91119721E0FE010C01209338
:1076F0005700E895112478942296FE01EF7751F413
:10770000F89485E0FA0180935700E895789407B6DD
:1077100000FCFDCF325011F01296D4CFD0937300FD
:10772000C093720067FF02C010926100109288003F
:107730008091600084FF3CC0809161008F3FC1F167
:10774000182F893008F018E0811B80936100809128
:10775000780098E88927809378001123E1F0E09180
:107760008600F09187008091710086FF09C0912FFB
:10777000A9E7B0E084918D9331969150D9F707C075
:10778000912FA9E7B0E081918D939150E1F7F093AB
:107790008700E093860089E790E0612FCADC612FC3
:1077A0006C5F6C3019F08FEF809361006093600024
:1077B00094E180B38C7031F49150D9F71092890024
:1077C0001092830080917500882311F0015021F000
:1077D000FBDD882309F08CCEF89481E1809357007B
:1077E000E8951BBE15BE81E08BBF1BBEE091760005
:0E77F000F0917700099520E03FCFF894FFCF8D
:0A77FE005AFF018000008000000027
:107C0000CF93DF93DC01EA01F89440E850E09E0155
:107C10002F7741F483E0FE0180935700E89507B683
:107C200000FCFDCF8D919C91119721E0FE010C018C
:107C300020935700E895112422969E012F7739F45E
:107C400085E080935700E89507B600FCFDCF4250D1
:107C5000504011F01296DBCF81E180935700E895F8
:087C60007894DF91CF910895A3
:040000030000700089
:00000001FF
