:1070000067C000009AC000007EC000007CC0000085
:107010007AC0000078C0000076C0000074C0000094
:1070200072C0000070C000006EC000006CC00000A4
:107030006AC0000068C0000066C0000064C00000B4
:1070400062C0000060C000005EC000005CC00000C4
:107050005AC000000403090412036F0062006400B8
:10706000650076002E00610074001003480049009E
:10707000440042006F006F00740012011001000014
:107080000008C016DF05000101020001090222000C
:107090000101008032090400000103000000092101
:1070A00001010001222100070581030800C8060034
:1070B000FF0901A101150026FF007508850195064D
:1070C0000900B20201850295830900B20201C000E5
:1070D00011241FBECFE5D8E0DEBFCDBF10E0A0E693
:1070E000B0E0EEEFF7E702C005900D92AA36B107C7
:1070F000D9F710E0AAE6B0E001C01D92A23AB107AC
:10710000E1F7D2D17AC37CCFA82FB92F80E090E0ED
:1071100041E050EA609530E009C02D9182279795B3
:10712000879510F084279527305EC8F36F5FA8F32A
:107130000895EADF8D939D930895CF93CFB7CF93B2
:10714000C395839BE9F7839B09C0839B07C0839BFF
:1071500005C0839B03C0839B01C0A3C0DF93C09184
:107160008500DD27C457DF4F839B02C0DF91EBCF43
:107170002F930F931F9300B32FEF03FB20F94F932F
:107180003F9310B34FEF012703FB21F93BE031C0E0
:107190004E7F012F10B3216028C0102F4D7F226039
:1071A000000000B329C04B7F2460012F000010B302
:1071B0002BC010B3477F28602AC04F7E00B32061E8
:1071C0002CC04F7D10B320622FC04F7B00B32064D2
:1071D00032C0422700B349934FEF0000102713FB42
:1071E00020F910B31C70C9F1297F91F2012703FB2C
:1071F00021F900B3237F89F2315058F1102713FB96
:1072000022F910B3277E79F2012703FB23F92F7CA3
:1072100081F200B3102713FB24F92F7971F200C01B
:1072200010B3012703FB25F92F7359F200C000B3F7
:10723000102713FB26F9223040F200C010B30127BB
:1072400003FB27F9243028F64F77206810B300009D
:10725000F9CF10E41ABF002719C03B503195C31B6A
:10726000D04010E41ABF0881033CF9F00B34E9F078
:10727000209183001981110F1213EDCF4A81441F11
:10728000093641F10D3211F0013E29F700938A00D1
:107290003F914F911F910F912F91DF91CAB7C6FD7A
:1072A0004FCFCF91CFBFCF91189520918A00222345
:1072B00079F310918800112321F5343022F13093B5
:1072C000880020938400109185003BE0311B3093AF
:1072D000850019C00091880001309CF40AE54F70C8
:1072E00081F43091600034FD10C000936000C8E765
:1072F000D0E00FC02795A8F45150A9F4220F000048
:10730000F9CF4AE503C042ED01C0432FC4E1D0E00C
:1073100032E011B31C60939A11BB02B320E41CE06D
:107320005F93012756E002BB279520F4515021F4CA
:10733000220FF9CF012756E000003B5A02BBD0F2E2
:10734000279528F4515029F4220F0000F9CF012786
:1073500056E0279502BB20F4515021F4220FF9CFBB
:10736000012756E02991332302BB21F6037F1091B8
:107370008900110FC651D04002BB11F01093830059
:1073800010E41ABF086011B3137F402F437F5F9151
:1073900000C000C002BB11BB42BB7ACF909891984D
:1073A000959891980895813049F0813028F0823085
:1073B00039F0833041F406C0909A0895919A089567
:1073C000959A0895919A089589B3282F30E02170F5
:1073D000307040916C0050916D0011C089B390E005
:1073E000817090702817390719F040E050E002C012
:1073F0004F5F5F4F89B3282F30E0217030704B30E2
:10740000510564F320936F003093700050936D002A
:1074100040936C00232B19F481E080936E008091DF
:107420006E00882309F43FC088EB9BE00197F1F7D9
:1074300080916A008F5F80936A008F3711F081E03E
:10744000089580916B008230F9F0833028F488230E
:1074500051F0813011F50CC08430B1F0843078F0F7
:107460008530D9F416C09ADF80E09DDF81E004C04A
:1074700095DF81E098DF82E080936B0011C08EDFA2
:1074800083E091DF84E0F8CF89DF82E08CDF85E064
:10749000F3CF84DF81E087DF01C080DF10926B00D3
:1074A00010926A0081E008958E9A969A8F9A979822
:1074B000889A899A8D9A899A71DFD098D89AB89AC1
:1074C000C09882DF882309F487C181E08BBF82E006
:1074D0008BBFF89485B7836085BF8BB780648BBF03
:1074E0008B9A80E395E70197F1F78B98789400E009
:1074F000A89590918800392F335037FD19C180919C
:107500008500ACE0B0E0A81BB109A457BF4F809143
:1075100084008D3209F0BDC0383009F007C183EC1A
:10752000809378008AE580936000109271002C911E
:10753000822F807611969C9111978823E1F09930E3
:1075400079F412968C911297823031F41092740073
:1075500027FD8CC09FEF8CC081E0809375004BC1EC
:10756000913009F048C182E690E0909387008093C3
:10757000860027E081C012968C91129710928100AC
:10758000992331F41092820081E890E022E069C0F2
:10759000953019F48093890061C0963009F04EC08F
:1075A00013968C911397813019F48AE790E71DC0E8
:1075B000823041F48CE890E79093870080938600B6
:1075C00022E238C0833009F512968C9112978823F5
:1075D00041F484E590E7909387008093860024E04F
:1075E00029C0813041F488E590E79093870080932B
:1075F000860022E11FC08230E1F48AE690E7909392
:1076000087008093860020E115C0813241F48EE925
:1076100090E7909387008093860029E00BC0823228
:1076200041F48EEA90E7909387008093860021E2F0
:1076300001C020E080E4809371001EC0983019F4EE
:107640008BE890E009C0993019F480938B0006C054
:107650009A3021F481E890E021E003C081E890E0D5
:1076600020E0909387008093860006C016969C9138
:1076700080E8809371000AC017968C911797882331
:1076800021F416969C91921708F0922F9093610026
:107690004DC08091710087FF49C0C0917200D091A8
:1076A000730080917400882349F41196CC9111974E
:1076B0001296DC9112971496392F3750632F680F6A
:1076C00060937400AE014F7751F4F89483E0FE01AB
:1076D00080935700E895789407B600FCFDCFF894A6
:1076E000AE018D919C91119721E0FE010C01209338
:1076F0005700E895112478942296FE01EF7751F413
:10770000F89485E0FA0180935700E895789407B6DD
:1077100000FCFDCF325011F01296D4CFD0937300FD
:10772000C093720067FF02C010926100109288003F
:107730008091600084FF3CC0809161008F3FC1F167
:10774000182F893008F018E0811B80936100809128
:10775000780098E88927809378001123E1F0E09180
:107760008600F09187008091710086FF09C0912FFB
:10777000A9E7B0E084918D9331969150D9F707C075
:10778000912FA9E7B0E081918D939150E1F7F093AB
:107790008700E093860089E790E0612FCADC612FC3
:1077A0006C5F6C3019F08FEF809361006093600024
:1077B00094E180B38C7031F49150D9F71092890024
:1077C0001092830080917500882311F0015021F000
:1077D000FBDD882309F08CCEF89481E1809357007B
:1077E000E8951BBE15BE81E08BBF1BBEE091760005
:0E77F000F0917700099520E03FCFF894FFCF8D
:0A77FE005AFF018000008000000027
:107C0000CF93DF93DC01EA01F89440E850E09E0155
:107C10002F7741F483E0FE0180935700E89507B683
:107C200000FCFDCF8D919C91119721E0FE010C018C
:107C300020935700E895112422969E012F7739F45E
:107C400085E080935700E89507B600FCFDCF4250D1
:107C5000504011F01296DBCF81E180935700E895F8
:087C60007894DF91CF910895A3
:040000030000700089
:00000001FF
