:100000000C9427020C945F020C9444020C9444025A
:100010000C94C2060C94CE050C9495060C943B06E9
:100020000C9468060C94A1050C940E060C944E05D5
:100030000C9444020C9444020C9444020C94440228
:100040000C9444020C9444020C9444020C94440218
:100050000C944402B10BA10BD50BE00BA30BA50B29
:10006000A90BD50BAD0BAF0BAB0BB90BCB0BB30B7C
:10007000CF0BD30BDC0BD50BD50BD50BD50BD50B81
:10008000D50BD50BD50BD50BC90BC70BCD0BB70BB0
:10009000D10BD70BDE0BD50BD50BD50BD50BD50B59
:1000A000D50BD50BD50BD50BD50BD50BD50BD50B50
:1000B000D50BD50BD50BD50BD50BD50BD50BD50B40
:1000C000D50BD50BD50BD50BD50BBB0BC30BBF0B72
:1000D000A70BB50BE00BD50BD50BD50BD50BD50B63
:1000E000D50BD50BD50BD50BD50BD50BD50BD50B10
:1000F000D50BD50BD50BD50BD50BD50BD50BD50B00
:10010000D50BD50BD50BD50BD50BBD0BC50BC10B2B
:10011000DE0B0000010008004000000100040000A8
:1001200001000800200040008000000100040501DB
:100130000906A101050719E029E715002501750148
:1001400095088102950175088103950575010508DB
:10015000190129059102950175039103950675080A
:10016000150025650507190029658100C0040309EC
:10017000040C034C00450045004B00550012036D74
:100180000078003100380033003000780078001229
:1001900001100100000008424231E10001010200AB
:1001A000010902220001010080320904000001035C
:1001B000010100092101010001223F00070581031F
:1001C00008000A0000FC001C322123242B34334396
:1001D0003B424B3A31444D152D1B2C3C2A1D2235F8
:1001E0001A161E26252E363D3E46455A76660D29A0
:1001F0004E55545B5D5D4C520E41494A580506040C
:100200000C030B830A010978077C7E7C706C7D717E
:10021000697A746B7275774A7C7B795A69727A6BEA
:1002200073746C757D7071612F370F08101820285A
:100230003038404850575F000000000000000000C8
:100240000000000000000000001412111F145911DA
:100250002700F1F2373F5E48103A38302820184D19
:10026000153B34233221502B404B1C43221D0046AA
:10027000480048908F0091929300898A8D8C654642
:10028000494A4B4C4D4E52504F5154589192939471
:1002900095969798999A9B9C9D9E9FA0A1A2A3A496
:1002A000A5A6A7A8A9AA00494C4A4D4B4E898D6521
:1002B000504F52515400FF0000008A00863E142B1C
:1002C00004291D00351E1A3916001B003A1F083C70
:1002D000073D06003B201517090A19052221181CA5
:1002E0000D0B101123240C300E3F36002E2512402A
:1002F0000F0037654126132F333400382D27470070
:100300000088008C0046002A314428454243000002
:10031000002C00514C0000000000004F490000007C
:10032000000000004B4E0000005200504A4D008774
:100330008B000000000000898D0000000000FF001D
:1003400000008A00863E142B04FE1D00351E1A395B
:1003500016001B003A1F083C073D06003B201517FE
:10036000090A190522215C1C590B6211235F5D30BB
:100370005A3F62002E605E405B0063654161552F0D
:10038000563400572D5448000088008C0046002A3F
:10039000314458454243000000FD00514C0000002C
:1003A0000000004F49000000000000004B4E00001C
:1003B000005200504A4D00878B0000000000008969
:1003C0008D0000000000530000008A00863E142BC0
:1003D00004291D00351E1A3916001B003A1F083C5F
:1003E000073D06003B201517090A190522215C1C50
:1003F000590B6211235F5D305A3F62002E605E40F0
:100400005B0063FF4161552F563400572D54FE00A9
:100410000088008C0046002A3144584542430000C1
:1004200000FD00514C0000000000004F490000009A
:10043000000000004B4E0000005200504A4D008763
:100440008B000000000000896500000000001124FE
:100450001FBECFE5D8E0DEBFCDBF10E0A0E6B0E024
:10046000E0E4F7E202C005900D92A238B107D9F797
:1004700013E0A2E8B0E001C01D92AA33B107E1F792
:100480000E94CE120C949E130C940000A82FB92F3A
:1004900080E090E041E050EA609530E009C02D91A5
:1004A00082279795879510F084279527305EC8F3AB
:1004B0006F5FA8F30895EADF8D939D930895CF931E
:1004C000CFB7CF93C395839BE9F7839B09C0839BE9
:1004D00007C0839B05C0839B03C0839B01C0A3C04F
:1004E000DF93C091C501DD27C453DE4F839B02C05B
:1004F000DF91EBCF2F930F931F9300B32FEF03FBED
:1005000020F94F933F9310B34FEF012703FB21F9DD
:100510003BE031C04E7F012F10B3216028C0102F67
:100520004D7F2260000000B329C04B7F2460012F63
:10053000000010B32BC010B3477F28602AC04F7E45
:1005400000B320612CC04F7D10B320622FC04F7BC1
:1005500000B3206432C0422700B349934FEF00003C
:10056000102713FB20F910B31C70C9F1297F91F2F9
:10057000012703FB21F900B3237F89F2315058F1A1
:10058000102713FB22F910B3277E79F2012703FB12
:1005900023F92F7C81F200B3102713FB24F92F7964
:1005A00071F200C010B3012703FB25F92F7359F234
:1005B00000C000B3102713FB26F9223040F200C020
:1005C00010B3012703FB27F9243028F64F77206862
:1005D00010B30000F9CF10E41ABF002719C03B5038
:1005E0003195C31BD04010E41ABF0881033CF9F0D9
:1005F0000B34E9F02091C3011981110F1213EDCFD3
:100600004A81441F093641F10D3211F0013E29F7AC
:100610000093CA013F914F911F910F912F91DF914C
:10062000CAB7C6FD4FCFCF91CFBFCF9118952091BC
:10063000CA01222379F31091C801112369F53430DE
:100640006AF13093C8012093C4011091C5013BE0C9
:10065000311B3093C50122C00091C8010130E4F480
:100660000AE54F7049F43091780034FD19C00093C9
:100670007800CCEAD1E018C03091B70134FD10C049
:100680000093B701C8EBD1E00FC02795A8F45150F3
:10069000A9F4220F0000F9CF4AE503C042ED01C0E2
:1006A000432FC4E1D0E032E011B31C60939A11BB38
:1006B00002B320E41CE05F93012756E002BB2795BC
:1006C00020F4515021F4220FF9CF012756E0000009
:1006D0003B5A02BBD0F2279528F4515029F4220F3F
:1006E0000000F9CF012756E0279502BB20F45150B6
:1006F00021F4220FF9CF012756E02991332302BBC1
:1007000021F6037F1091C901110FC651D04002BBE1
:1007100011F01093C30110E41ABF086011B3137FE6
:10072000402F437F5F9100C000C002BB11BB42BBA2
:1007300071CF089580E090E0FC01EE0FFF1FEE57AF
:10074000FF4F11821082019688309105A9F783B777
:10075000887F846083BF12BE10929A0110929B0121
:1007600010929C0110929D018EB5887F84608EBD91
:100770001DBC1CBC85B5887F846085BD14BC1092EF
:10078000A2011092A3011092A4011092A5017894E5
:10079000089583B7887F846083BF12BE10929A0148
:1007A00010929B0110929C0110929D0108958EB5AC
:1007B000887F84608EBD1DBC1CBC089585B5887F74
:1007C000846085BD14BC1092A2011092A301109206
:1007D000A4011092A501089589B7806489BF089586
:1007E00093B7987F982B93BF08959EB5987F982BC9
:1007F0009EBD089595B5987F982B95BD089583B7B4
:10080000E82FF0E0E770F070EE0FFF1FEE5EFE4F96
:1008100025913491C90108958EB5E82FF0E0E77075
:10082000F070EE0FFF1FEE5EFE4F25913491C9016F
:10083000089585B5E82FF0E0E770F070EE0FFF1F28
:10084000E25EFE4F25913491C9010895883040F44D
:10085000E82FF0E0EE0FFF1FEE57FF4F718360832C
:100860000895883040F4E82FF0E0EE0FFF1FEE57B8
:10087000FF4F118210820895EF92FF920F931F9302
:10088000CF93DF93EC0112B710929E0110929F015B
:100890001092A0011092A10183B7E82FF0E0E77059
:1008A000F070EE0FFF1FEE5EFE4F2591349140E099
:1008B00050E060E07BE187EB90E00E943113B901EA
:1008C000CA01693B2DE8720726E0820720E0920703
:1008D000A0F437E2C131D30780F49E0140E050E03C
:1008E0000E94F31228EE33E040E050E00E94311302
:1008F000C901DA01BC01CD0121C028EE33E040E09E
:1009000050E00E943113CA01B9019E0140E050E05D
:100910000E94F31213C080919E0190919F01A091BB
:10092000A001B091A10185B78F7885BF85B7806898
:1009300085BF889585B78F7785BF08C09B01AC01BF
:10094000210F311D411D511D79018A0120919E0108
:1009500030919F014091A0015091A10182B790E098
:10096000A0E0B0E0542F432F322F2227822B932B6D
:10097000A42BB52B8E159F05A007B10760F2DF9160
:10098000CF911F910F91FF90EF90089510929A01CF
:1009900010929B0110929C0110929D01089520914C
:1009A0009A0130919B0140919C0150919D01B901A8
:1009B000CA0108951092A2011092A3011092A401FD
:1009C0001092A50108952091A2013091A3014091B8
:1009D000A4015091A501B901CA010895893031F4EB
:1009E0008FB582608FBD8FB58E7F0AC08A3019F4B3
:1009F0008FB5826002C08FB58D7F8FBD8FB581604E
:100A00008FBD1BBC1ABC19BC18BC08952FB52E7F16
:100A10002FBD2FB522602FBD2EB528602EBD2EB55F
:100A200020612EBD97BD86BD1BBC1ABC19BC18BC6D
:100A300008958FB58D7F8FBD8FB58E7F8FBD8FB59C
:100A40008F778FBD8FB58F7B8FBD8FB58F7D8FBD1E
:100A50008FB58F7E8FBD08958FB580688FBD8FB5A0
:100A60008F7B8FBD08958FB580628FBD8FB58F7ED0
:100A70008FBD08958FB58F778FBD8FB58F7B8FBD5D
:100A800008958FB58F7D8FBD8FB58F7E8FBD0895F3
:100A90009BBD8ABD089599BD88BD08951F920F9290
:100AA0000FB60F9211242F933F934F935F936F9341
:100AB0007F938F939F93AF93BF93EF93FF93809117
:100AC0009A0190919B01A0919C01B0919D0101968A
:100AD000A11DB11D80939A0190939B01A0939C014D
:100AE000B0939D0180919E0190919F01A091A001E2
:100AF000B091A1010196A11DB11D80939E0190931B
:100B00009F01A093A001B093A101809182009091D8
:100B10008300892B29F0E0918200F09183000995F0
:100B2000FF91EF91BF91AF919F918F917F916F91C5
:100B30005F914F913F912F910F900FBE0F901F909B
:100B400018951F920F920FB60F9211242F933F9377
:100B50004F935F936F937F938F939F93AF93BF93C5
:100B6000EF93FF938091840090918500892B29F069
:100B7000E0918400F09185000995FF91EF91BF917C
:100B8000AF919F918F917F916F915F914F913F9125
:100B90002F910F900FBE0F901F9018951F920F92DC
:100BA0000FB60F9211242F933F934F935F936F9340
:100BB0007F938F939F93AF93BF93EF93FF93809116
:100BC000A2019091A301A091A401B091A501019669
:100BD000A11DB11D8093A2019093A301A093A40134
:100BE000B093A50180918C0090918D00892B29F004
:100BF000E0918C00F0918D000995FF91EF91BF91EC
:100C0000AF919F918F917F916F915F914F913F91A4
:100C10002F910F900FBE0F901F9018951F920F925B
:100C20000FB60F9211242F933F934F935F936F93BF
:100C30007F938F939F93AF93BF93EF93FF93809195
:100C4000900090919100892B29F0E0919000F09113
:100C500091000995FF91EF91BF91AF919F918F9175
:100C60007F916F915F914F913F912F910F900FBEA8
:100C70000F901F9018951F920F920FB60F9211248C
:100C80002F933F934F935F936F937F938F939F9394
:100C9000AF93BF93EF93FF9380918600909187006D
:100CA000892B29F0E0918600F09187000995FF914A
:100CB000EF91BF91AF919F918F917F916F915F91D4
:100CC0004F913F912F910F900FBE0F901F9018954D
:100CD0001F920F920FB60F9211242F933F934F93B1
:100CE0005F936F937F938F939F93AF93BF93EF9394
:100CF000FF938091880090918900892B29F0E091E1
:100D00008800F09189000995FF91EF91BF91AF9113
:100D10009F918F917F916F915F914F913F912F9113
:100D20000F900FBE0F901F9018951F920F920FB645
:100D30000F9211242F933F934F935F936F937F9361
:100D40008F939F93AF93BF93EF93FF9380918A000C
:100D500090918B00892B29F0E0918A00F0918B0013
:100D60000995FF91EF91BF91AF919F918F917F91E5
:100D70006F915F914F913F912F910F900FBE0F9008
:100D80001F9018951F920F920FB60F9211242F9358
:100D90003F934F935F936F937F938F939F93AF9303
:100DA000BF93EF93FF9380918E0090918F00892BDA
:100DB00029F0E0918E00F0918F000995FF91EF915D
:100DC000BF91AF919F918F917F916F915F914F9163
:100DD0003F912F910F900FBE0F901F901895282FC5
:100DE0008F3F31F41092930081E080939900089531
:100DF0008E3F21F08D3F29F41092930010929900BC
:100E0000089580919900882351F080919300E82FF4
:100E1000F0E0ED59FE4F20838F5F80939300809127
:100E2000970090919800019668EC70E00E941E1364
:100E3000FC01909398008093970080919500909189
:100E400096008E179F0759F4009719F487EC90E0ED
:100E500001C0019790939800809397000895E656FB
:100E6000FF4F208308952091950030919600809146
:100E70009700909198002817390711F480E00895A1
:100E8000C901019668EC70E00E941E13FC0190936A
:100E9000960080939500E656FF4F8081089540E0CC
:100EA0002091950030919600809197009091980044
:100EB0002817390709F441E0842F0895109296000D
:100EC0001092950010929800109297001092930043
:100ED0001092940010926D0110926E0110926F01A9
:100EE00010927001EAE6F2E0119282E0EB37F80727
:100EF000D9F708951F93CF93DF93982F282F30E0D1
:100F0000F901ED53FE4F1491662309F44EC080930E
:100F1000620110926D0110926E0110926F01109299
:100F200070011092A801E901C257DD4F888181FF4D
:100F30002EC0963421F0983409F065C00EC08FEFB2
:100F40000E94EF0680EE0E94EF0682E10E94EF060B
:100F500080EE0E94EF068CE724C08DEF0E94EF0622
:100F600081EE0E94EF0684E10E94EF0687E70E946F
:100F7000EF0681EE0E94EF0680EF0E94EF0684E10B
:100F80000E94EF0680EF0E94EF0687E737C08FEFE1
:100F90000E94EF06888180FF03C080EE0E94EF066A
:100FA000812F0E94EF068EEF29C080916201891780
:100FB00011F410929300E92FF0E0E257FD4F808189
:100FC00081FF13C09634F9F480EE0E94EF0680EFA3
:100FD0000E94EF068CE70E94EF0680EE0E94EF066B
:100FE00080EF0E94EF0682E109C080FF03C080EE1F
:100FF0000E94EF0680EF0E94EF06812F0E94EF060D
:101000008CEF0E94EF06DF91CF911F9108951F93FF
:10101000162F8E3F11F08093A7010E94FC091093B8
:10102000A8011F910895EF92FF920F931F93809153
:10103000A801843009F4E1C0853030F4882371F0D0
:10104000833009F0EAC0D7C0883009F4DBC08C30A7
:1010500009F45DC0853009F0E0C0D2C02091950050
:101060003091960080919700909198002817390749
:1010700011F40E94490F0E943307182F8C3F09F486
:10108000CDC0882361F060E00E94070810926D01D6
:1010900010926E0110926F0110927001BFC080918A
:1010A0009300882309F4BAC080916D0190916E017C
:1010B000A0916F01B09170010196A11DB11D8093A7
:1010C0006D0190936E01A0936F01B0937001209118
:1010D000600066E9269F900111242A513F4F442762
:1010E00037FD4095542F82179307A407B5070CF4DA
:1010F00095C010926D0110926E0110926F011092C6
:101100007001109294008CE08093A80187C08091B8
:101110009400882311F40E94490F80919300882342
:10112000C1F02091950030919600809197009091A8
:1011300098002817390769F480916D0190916E012C
:10114000A0916F01B09170010197A105B10561F403
:101150000FC01092A80110926D0110926E011092B2
:101160006F011092700159C0809194008823A9F0FA
:1011700090919400E92FF0E0ED59FE4F80819F5F40
:10118000909394006CE00E94070860919300809116
:1011900094000E94121390939400E0906D01F090DF
:1011A0006E0100916F01109170010894E11CF11C17
:1011B000011D111D609161007091620080916300BA
:1011C000909164002AE030E040E050E00E94F31289
:1011D0009B01AC012D5F3F4F4F4F5F4FC801B701DF
:1011E0000E94531360936D0170936E0180936F01A1
:1011F0009093700112C082E00DC08BEA65E00BC0D5
:1012000083E808C00E945E0780E00E94D7100E9419
:1012100040118AEA60E00E94070810E0812F90E008
:101220001F910F91FF90EF9008951F930E940B0A5A
:10123000182F6091A801623099F0633020F461307A
:1012400009F06DC007C0663009F448C0673009F086
:1012500066C00FC0853F09F4A0C08AEF61E09FC05F
:101260000E945E07112311F060E001C063E08AEF85
:1012700096C0682F70E0CB0180769070A5E09595C0
:101280008795AA95E1F780936000AB014871507093
:10129000F3E055954795FA95E1F780E090E021E07D
:1012A00030E003C0220F331F019684179507D4F353
:1012B00067707070269FC001279F900D369F900D1C
:1012C0001124AA2797FDA095BA2F809361009093CF
:1012D0006200A0936300B09364005FC020918D0210
:1012E00080FF02C0246001C02B7F20938D022091DB
:1012F0008D0281FF02C0216001C02E7F20938D02EC
:1013000020918D0282FF02C0226001C02D7F2093B8
:101310008D0280918D0290E00E94BB103EC0133F71
:1013200041F1143F60F41E3E99F01F3E18F41D3E3B
:10133000A1F51CC0103FB9F0123F79F50BC0163F64
:10134000D9F0173F50F11E3F59F01F3F31F505C04E
:101350008EEE25C08AEF64E022C08AEF68E01FC0ED
:101360008091A7011CC08AEF62E019C08AEF66E095
:1013700016C08AEF67E013C081E08093600085E0CB
:1013800090E0A0E0B0E08093610090936200A093B1
:101390006300B09364000E945E078AEF60E00E94E1
:1013A000070880E090E01F910895CF93DF9388E0D5
:1013B0008093A801F8940E94230B7894C0E0D0E0B9
:1013C0008091AA0182FF10C0CC3FD10559F0209135
:1013D0009500309196008091970090919800281781
:1013E000390711F40E9415098091AA0184FFE8CF02
:1013F0000E941308EC01E4CF80937201F89480916D
:10140000AA018F7E8093AA018091AA0188608093AF
:10141000AA0178940895F8948091AA018B7F809313
:10142000AA0178948091710108958FEC84BD809118
:10143000A901833000F58B98939A8091AA0180FFCF
:1014400023C0829BA3C08091A901813031F08130FB
:1014500040F0823009F0F6C006C0839902C08DE0EA
:1014600096C082E094C08091AA0183FFEBC093985C
:101470008B9A84E28CC08091A9018A3108F079C0EE
:101480008091AA0180FD08C08091AA0181608093AB
:10149000AA018A98929A0895829B76C08091A901A8
:1014A000873140F4803118F58D3061F08F3009F0CC
:1014B00055C00CC08831E1F1883158F1893109F00B
:1014C0004DC049C08091AA018D7F4DC08091AA0175
:1014D0008B7F8093AA01839B05C080E88093710174
:1014E00081E014C0109274011092710137C0809194
:1014F0007101869580937101839B30C08091710149
:10150000806880937101809174018F5F8093740172
:1015100025C0839B05C0809174018F5F8093740107
:101520008091740180FD1AC08091AA01826010C070
:10153000839905C08091AA0182608093AA0180915D
:10154000AA0181FD0BC093988B9A8091AA018460B7
:101550008093AA0103C08B98939A6CC092988A9A40
:101560008091AA018E7F8093AA018091A9018F5F4B
:101570000EC08091A9018F3208F064C08091AA0149
:1015800080FF10C0829906C08B98939A81E0809367
:10159000A90108958091AA018E7F8093AA01929853
:1015A0008A9A08958091AA0181608093AA018A98FD
:1015B000929A8091A9018C3228F4853280F4843289
:1015C000E1F507C08D3299F18D32E8F08E32A9F540
:1015D00031C08091720180937301109274018091E7
:1015E000730180FF08C08B98939A809174018F5F7C
:1015F0008093740102C093988B9A809173018695B1
:10160000809373011AC08091740180FF03C0939886
:101610008B9A02C08B98939A8091AA01877F8093BE
:10162000AA018091AA0180618093AA0106C08B98CB
:10163000939A03C01092A90108958091A9018F5F28
:101640008093A90108951092A90181E18093AA01D4
:101650008A98929A8B98939A0E94DE0382E00E9465
:10166000FA0385E065E17AE00E9426048FEC84BDF0
:101670000895FC0121E02093750189E791E09093A2
:10168000C7018093C60180818076803269F58181AF
:10169000813011F488E00895893041F48681978182
:1016A000019711F5209376018FEF0895823019F498
:1016B00088E791E013C08A3029F483818093780110
:1016C00080E00895833031F48381882369F4109297
:1016D000770008958B3041F487E790E09093C7013D
:1016E0008093C60181E0089580E00895982F815687
:1016F0008A3118F4292F2D5510C0892F81548A3131
:1017000020F4292F2D5332E009C0892F81538930CD
:1017100010F020E002C0292F235130E0892F9927B3
:1017200087FD9095A92FB92FFC01B097EF35F105F2
:10173000E0F5E65DFF4FEE0FFF1F0590F491E02D01
:1017400009942EE135C021E233C022E231C023E208
:101750002FC024E22DC025E22BC026E229C027E2BB
:1017600027C02CE226C02DE224C02DE221C02EE2AB
:1017700020C02EE21DC02FE21CC02FE219C020E3C2
:1017800018C020E315C021E314C021E311C023E3F6
:1017900010C023E30DC026E30CC026E309C027E3F5
:1017A00008C027E305C028E304C0222311F428E37E
:1017B00032E0832F922F089527E2FBCF25E3F8CF65
:1017C00025E3F7CF582FDB01642F282F392FF9019C
:1017D00008C090818C91981711F081E0089531969E
:1017E00011968E2F851B8617A0F380E00895E9E7F8
:1017F000F1E0A1E8B1E090818C91981749F481E083
:10180000E038F80711F480E0089531961196F3CF8F
:1018100081E00895DF93CF93CDB7DEB728970FB659
:10182000F894DEBF0FBECDBF982F8091B70184FF23
:10183000FCCFFE01319688E0DF011D928A95E9F721
:1018400099836B83CF0168E00E945A0E28960FB6E9
:10185000F894DEBF0FBECDBFCF91DF910895692F01
:101860000E940A0C80E060E00E940A0C0895982F04
:101870008658883068F4E92FF0E0EE0FFF1FE55A34
:10188000F040808190917901892B8093790116C075
:101890008091AB01883050F08BE791E061E070E01F
:1018A00046E050E00E94821382E009C0E82FF0E099
:1018B000E758FE4F90838F5F8093AB0180E081609B
:1018C000089582E08093AB0188E0E9E7F1E0DF0171
:1018D0001D928A95E9F780E00895A9E7B1E0E1E873
:1018E000F1E088E001900D928150E1F70895A1E8C0
:1018F000B1E0E9E7F1E088E001900D928150E1F775
:101900000895FF920F931F93CF93DF931092750169
:10191000F8940E942A0D82B3837F82BB81B38C60CE
:1019200081BB80E395E70197F1F781B3837F81BBAA
:1019300078942EE088E190E00FB6F894A89581BDE8
:101940000FBE21BD00E0C0E0D0E0FF24F394809101
:1019500075018823C1F48FE0C13AD80714F42196A9
:1019600012C01092800088E10FB6F89481BD11BCBE
:101970000FBE8BB78F7B8BBF80E0DF91CF911F9124
:101980000F91FF900895A8950E94370D0E94490F6E
:10199000182F8823E1F280917801882329F40E948E
:1019A000F70B882309F410E008B600FE0AC0F8BE61
:1019B00080917801882329F0053010F4082F04C0A5
:1019C0000550112309F4C3CF8091B70184FFBFCF25
:1019D00089E791E068E00E945A0EA1E8B1E0E9E7EA
:1019E000F1E088E001900D928150E1F7B0CFFF92D5
:1019F0000F931F93CF93DF938C01FF2408C0C00F78
:101A0000D11F88810E94760B0E942F0CF394CF2D5A
:101A1000D0E0F80101900020E9F73197E01BF10BCD
:101A2000CE17DF0760F3DF91CF911F910F91FF90E9
:101A30000895FC0180917601882341F0613031F4F2
:101A4000808180938D0290E00E94BB1010927601FD
:101A500081E0089585B7836085BF8BB780648BBFB5
:101A60008BE48093B8018AE58093B70108951F93B2
:101A7000CF93DF936091C801635067FDBFC0809131
:101A8000C501CCE0D0E0C81BD109C453DE4F809122
:101A9000C4018D3209F09FC0683009F0ADC083ECFD
:101AA0008093AC018AE58093780010928901888147
:101AB000807641F0CE010E94390B282F8F3F09F428
:101AC00079C07FC09A811092B5018981882321F461
:101AD0001092B60122E067C0853019F49093C901D5
:101AE00061C0863009F04AC08B81813019F48FE8DB
:101AF00091E025C0823041F481EA91E09093C701E2
:101B00008093C60122E236C08330F9F48A818823AB
:101B100041F48DE691E09093C7018093C60124E0E3
:101B200029C0813041F481E791E09093C70180930F
:101B3000C6012CE01FC08230E1F48DE791E0909364
:101B4000C7018093C60122E115C0813241F483EBC5
:101B500091E09093C7018093C60129E00BC08232C7
:101B600041F48EE291E09093C7018093C6012FE388
:101B700001C020E080E48093890123C0883021F4F3
:101B800021E08BEC91E011C0893019F49093CB01E6
:101B900009C08A3011F421E006C08B3019F48BE4BF
:101BA0008093B80120E085EB91E09093C70180938A
:101BB000C60107C0888187FD2E8180E88093890156
:101BC00006C08F81882319F48E81821708F0822F36
:101BD0008093790011C08091890187FF0DC0CE01EB
:101BE0000E94190D8F3F21F48EE18093780004C08C
:101BF000882311F0109279001092C801809178002A
:101C000084FF4AC0809179008F3F09F445C0182FA6
:101C1000893008F018E0811B809379008091AC0135
:101C200098E889278093AC01112341F12091C601E6
:101C30003091C7018091890186FF0DC0ADEAB1E006
:101C400080E090E0F901E80FF91FE491ED9301962F
:101C50001817C1F708C0912FD901EDEAF1E08D9175
:101C600081939150E1F71150812F90E01F5F019611
:101C7000820F931F9093C7018093C6018DEA91E074
:101C8000612F0E945B02612F6C5F6C3019F08FEF47
:101C9000809379006093780094E180B38C7031F484
:101CA0009150D9F71092C9011092C301DF91CF91E1
:101CB0001F9108951F93DC01162F8091B70184FFB7
:101CC00007C08091B80198E889278093B80103C0C4
:101CD0008AE58093B701912FE9EBF1E08D91819333
:101CE00091501916DCF389EB91E0612F0E945B02A1
:101CF0001C5F1093B7011F910895EEE8F2E0119276
:101D000083E0EA33F807D9F72FE632E006C0FC019A
:101D1000E257FD4F808182608083F901849190E0D9
:101D20002F5F3F4F009799F722E732E006C0FC0192
:101D3000E257FD4F808184608083F901849190E0B7
:101D40002F5F3F4F009799F726E732E006C0FC016E
:101D5000E257FD4F808188608083F901849190E093
:101D60002F5F3F4F009799F72AE732E006C0FC014A
:101D7000E257FD4F808181608083F901849190E07A
:101D80002F5F3F4F009799F727EA32E006C0FC012A
:101D9000E257FD4F808180618083F901849190E05A
:101DA0002F5F3F4F009799F7EAE6F2E0119282E049
:101DB000EB37F807D9F726EB32E040E011C0849109
:101DC0008F3F29F4842F8295807F892B0DC09F5FE0
:101DD00038969131A1F74F5F2F5F3F4F483019F090
:101DE000F90190E0ECCF80E080938C020895382FC9
:101DF0003F7082958F7041E050E0BA0102C0660FDB
:101E0000771F8A95E2F7CB0167BB809588BB88E294
:101E10008A95F1F7383038F429B302C0440F551FC2
:101E20003A95E2F713C0632F70E03850383020F451
:101E300023B38FE090E003C020B387E190E0861BDE
:101E4000970B02C0440F551F8A95E2F72095242373
:101E5000822F09F081E008958E3F11F080E008950F
:101E600080919201909193018730910528F0109212
:101E700093011092920105C0019690939301809373
:101E8000920180919201909193010E94241181E02E
:101E900008952F923F924F925F926F927F928F920E
:101EA0009F92AF92BF92CF92DF92EF92FF920F93E9
:101EB0001F93CF93DF9380918A0190918B01A09122
:101EC0008C01B0918D010196A11DB11D80938A01F5
:101ED00090938B01A0938C01B0938D010197A10980
:101EE000B10980362AEE920720E0A20720E0B2076F
:101EF000E8F080938A0190938B01A0938C01B093BA
:101F00008D0181E080938E0187E090E090939301B2
:101F10008093920180E090E00E944B050E9433057F
:101F200082B380938F0182B38C7C82BB00E0A0E0FF
:101F3000B0E0C1E0D0E058E2E52E47E1A42EB12C9C
:101F40003FE0C32ED12C9E010A2E02C0220F331F68
:101F50000A94E2F727BB822F809588BB8E2D8A9545
:101F6000F1F719B3109573B3709530B33095EBE773
:101F7000F2E040E050E0F22EF094842F483048F434
:101F8000CE01042E02C0880F991F0A94E2F7612F38
:101F90001AC08850883060F4C601841B950B4E012E
:101FA00002C0880C991C8A95E2F7C401672F0BC008
:101FB000C501841B950B4E0102C0880C991C8A95A3
:101FC000E2F7C401632F682309F004609081822F37
:101FD000892331F0662349F49F219083016005C075
:101FE000662319F0922B908302604F5F5F4F31960A
:101FF0004131510509F0C1CF1196A830B10509F062
:10200000A2CF10E0C8010E944C110E9489110370F8
:102010001070012B11F080E09BC00E94610C809138
:102020008C020E94F70E482E81E1489EE0011124A7
:1020300023E0CC0FDD1F2A95E1F7CA54DD4F55246C
:10204000AA24BB2491E0292E312C5DC0F701E6596A
:10205000FD4F9081F701E558FD4F2081F301149168
:10206000812F81508E3FC8F5DC2CD9220C2D022304
:102070008091920190919301029739F4DD2071F4DF
:10208000002329F00E940B1102C0DD2039F4002347
:1020900029F0812F0E942C0F8823F9F48091800071
:1020A000882339F00023C9F0812F0E94370C582E65
:1020B00014C0DD2049F4002381F0812F61E00E94EB
:1020C0007A07F401108309C0002339F41E3F29F078
:1020D000F401808160E00E947A070894E11CF11C01
:1020E00088E090E0680E791E880E991E91E1E9164D
:1020F000F10409F0ABCF0894A11CB11C2196E8E0D3
:10210000AE16B10491F0C1010A2C02C0880F991FCC
:102110000A94E2F7C82E82EE882E81E0982E8A0C6F
:102120009B1C3E01EE24FF2491CF20E030E0F9011A
:10213000E659FD4FD901A558BD4F8C9180832F5F83
:102140003F4F2131310599F740929101852D8160F2
:10215000DF91CF911F910F91FF90EF90DF90CF9083
:10216000BF90AF909F908F907F906F905F904F90B7
:102170003F902F90089580FF02C0909A01C09098E0
:10218000209192013091930181FF06C0919A2630EF
:10219000310539F4949A05C091982630310509F437
:1021A000949882FF02C0959A089595980895482FB3
:1021B00082B38C7C82BB442311F0909A01C0959A23
:1021C00088EE93E02CE231E0F9013197F1F70197C5
:1021D000D9F782B38C7C82BB919A88EE93E02CE293
:1021E00031E0F9013197F1F70197D9F782B38C7C8F
:1021F00082BB442311F0959A01C0909A88EE93E037
:102200002CE231E0F9013197F1F70197D9F782B368
:102210008C7C82BB0895209196012431A0F48FEF2D
:1022200091E09093980180939701922F9F5F9093F4
:1022300096018FEF989FC001112464E170E00E9425
:102240001E136093990108958630910534F484300B
:10225000910534F402976CF005C0089754F402C05D
:10226000949A07C00E94330580E090E00E944B05DD
:1022700094988BE090E0609192010E9491130895F0
:102280008BE090E00E948913809392011092930159
:1022900090E00E94241108952091920130919301C1
:1022A00082FF23C02330310531F02430310529F07D
:1022B0002130310549F4949A07C00E94330580E02B
:1022C00090E00E944B05949810928B0110928A0125
:1022D00080918E018130E1F40E94401180918D0245
:1022E0000E94BB1010928E0108952330310569F0D1
:1022F0002430310561F02130310551F480918A019B
:1023000090918B01895E93401CF494980895949A5F
:1023100008950F931F9380919201909193010097DC
:1023200061F08130910509F0ACC080918A019091F3
:102330008B01895E93400CF4E7C0809194019091E9
:102340009501009731F560917C0070917D0080913E
:102350007E0090917F000E941E13CB010E944B05CE
:1023600020917C0030917D008FEF90E0A901489F83
:102370009001499F300D589F300D112480917E00AF
:1023800090917F00821793070CF46FC081E090E07A
:1023900029C08230910559F560917A0070917B00D7
:1023A00080917E0090917F000E941E130FEF10E03D
:1023B000C801861B970B0E944B0580917A00909173
:1023C0007B00809F9001819F300D909F300D1124E4
:1023D00080917E0090917F00821793070CF445C096
:1023E00083E090E090939501809394013EC081300A
:1023F0009105E1F420917A0030917B008FEF90E01D
:10240000A901489F9001499F300D589F300D11241C
:1024100080917E0090917F008217930734F1109293
:102420007F0010927E0082E090E0DCCF0397E9F419
:1024300020917C0030917D008FEF90E0A901489FB2
:102440009001499F300D589F300D112480917E00DE
:1024500090917F008217930744F010927F001092B2
:102460007E0010929501109294010E943305809194
:102470007E0090917F00019690937F0080937E0074
:1024800051C0029709F040C0809197019091980146
:10249000009731F0019790939801809397012EC097
:1024A00040919901442321F180917E0090917F0019
:1024B000019690937F0080937E0020917A00309166
:1024C0007B0082179307D4F010927F0010927E0059
:1024D000242F2150209399018FEF90E0821B9109C6
:1024E00064EF7FEF0E941E136C5E6093960106C03E
:1024F0001092960110927F0010927E0080919901B7
:1025000090E00E944B050EC080E090E00E944B05D9
:102510000E94410510927F0010927E00109295015A
:10252000109294011F910F9108950895882319F036
:10253000969A8E9808958E9A969808958FEF8BBBF1
:1025400088BB85BB90E892BB1ABA87BB14BA8FE7E9
:1025500081BB80E090E0089581E087BB8EEF88BB6F
:1025600088E28A95F1F789B393B320B3809585FF0C
:1025700007C08CE090E061E00E94911381E0089533
:1025800097FD07C08CE090E060E00E94911380E02E
:1025900008958CE090E00E94891308950E949E1295
:1025A0000E94AC12809380000E9496120E949A03AF
:1025B00088E00E94EE040E947D0E0E9440118091EE
:1025C0008000882331F081E00E94D7100E94810CA6
:1025D00007C00E94EC0380E00E94D7100E94D5093A
:1025E00080E090E00895629FD001739FF001829F88
:1025F000E00DF11D649FE00DF11D929FF00D839F92
:10260000F00D749FF00D659FF00D9927729FB00D2E
:10261000E11DF91F639FB00DE11DF91FBD01CF0141
:1026200011240895991B79E004C0991F961708F0AA
:10263000961B881F7A95C9F78095089597FB092EF8
:1026400007260AD077FD04D049D006D000201AF41E
:10265000709561957F4F0895F6F7909581959F4FFE
:102660000895A1E21A2EAA1BBB1BFD010DC0AA1FD3
:10267000BB1FEE1FFF1FA217B307E407F50720F0EB
:10268000A21BB30BE40BF50B661F771F881F991F66
:102690001A9469F760957095809590959B01AC01AF
:1026A000BD01CF01089597FB092E05260ED057FDD9
:1026B00004D0D7DF0AD0001C38F4509540953095EF
:1026C00021953F4F4F4F5F4F0895F6F790958095B6
:1026D000709561957F4F8F4F9F4F0895AA1BBB1B2D
:1026E00051E107C0AA1FBB1FA617B70710F0A61B12
:1026F000B70B881F991F5A95A9F780959095BC0133
:10270000CD010895DC0101C06D9341505040E0F7C8
:102710000895E199FECF9FBB8EBBE09A99278DB3B8
:102720000895262FE199FECF9FBB8EBB2DBB0FB620
:10273000F894E29AE19A0FBE01960895F894FFCFBB
:102740000205000000000001000200040008001063
:1027500000200040008000015AFF04000A0004002D
:02276000010076
:00000001FF
