:100000000C94F7010C942F020C9414020C9414021B
:100010000C947D060C9489050C9450060C94F605FE
:100020000C9423060C945C050C94C9050C940905EA
:100030000C9414020C9414020C9414020C941402E8
:100040000C9414020C9414020C9414020C941402D8
:100050000C941402A30B930BC70BD20B950B970BAD
:100060009B0BC70B9F0BA10B9D0BAB0BBD0BA50BEC
:10007000C10BC50BCE0BC70BC70BC70BC70BC70BF1
:10008000C70BC70BC70BC70BBB0BB90BBF0BA90B20
:10009000C30BC90BD00BC70BC70BC70BC70BC70BC9
:1000A000C70BC70BC70BC70BC70BC70BC70BC70BC0
:1000B000C70BC70BC70BC70BC70BC70BC70BC70BB0
:1000C000C70BC70BC70BC70BC70BAD0BB50BB10BE2
:1000D000990BA70BD20BC70BC70BC70BC70BC70BD3
:1000E000C70BC70BC70BC70BC70BC70BC70BC70B80
:1000F000C70BC70BC70BC70BC70BC70BC70BC70B70
:10010000C70BC70BC70BC70BC70BAF0BB70BB30B9B
:10011000D00B0000010008004000000100040000B6
:1001200001000800200040008000000100040501DB
:100130000906A101050719E029E715002501750148
:1001400095088102950175088103950575010508DB
:10015000190129059102950175039103950675080A
:10016000150025650507190029658100C0040309EC
:10017000040C034C00450045004B00550012036D74
:100180000078003100380033003000780078001229
:1001900001100100000008424231E10001010200AB
:1001A000010902220001010080320904000001035C
:1001B000010100092101010001223F00070581031F
:1001C00008000A0000FC001C322123242B34334396
:1001D0003B424B3A31444D152D1B2C3C2A1D2235F8
:1001E0001A161E26252E363D3E46455A76660D29A0
:1001F0004E55545B5D5D4C520E41494A580506040C
:100200000C030B830A010978077C7E7C706C7D717E
:10021000697A746B7275774A7C7B795A69727A6BEA
:1002200073746C757D7071612F370F08101820285A
:100230003038404850575F000000000000000000C8
:100240000000000000000000001412111F145911DA
:100250002700F1F2373F5E48103A38302820184D19
:10026000153B34233221502B404B1C43221D0046AA
:10027000480048908F0091929300898A8D8C654642
:10028000494A4B4C4D4E52504F5154589192939471
:1002900095969798999A9B9C9D9E9FA0A1A2A3A496
:1002A000A5A6A7A8A9AA00494C4A4D4B4E898D6521
:1002B000504F5251540029352B3987865F5C3A1EC6
:1002C00014041D88605D3B1F1A161B2C615E3C20C8
:1002D0000807068C56573D211509198A59633E2295
:1002E000170A05505A893F231C0B11515B8D40247E
:1002F000180D104F586541250C0E36494C534226B7
:10030000120F374A4D5443271333384B4E55442D63
:100310002F348B2A46FF452E302852314762FE3556
:100320002B3987865F5C3A1E14041D88605D3B1F75
:100330001A161B2C615E3C200807068C56573D217F
:100340001509198A59633E22170A05505A893F2315
:100350001C0B11515B8D4024180D104F5865412521
:100360000C0E36494C534226120F374A4D54432740
:100370001333384B4E55442D2F348B2A46FF452ED0
:1003800030285231486229352B3987865F5C3A1E06
:1003900014041D88605D3B1F1A161B2C615E3C20F7
:1003A0000807068C56573D211509198A59633E22C4
:1003B000170A05505A893F231C0B11515B8D4024AD
:1003C000180D104F586541250C0E36494C534226E6
:1003D000120F374A4D5443271333384B4E55442D93
:1003E0002F348B2A4647452E30285231486211243B
:1003F0001FBECFE5D8E0DEBFCDBF10E0A0E6B0E085
:10040000E8E6F6E202C005900D92A238B107D9F7EE
:1004100013E0A2E8B0E001C01D92AE30B107E1F7F1
:100420000E9472120C9432130C940000A82FB92F62
:1004300080E090E041E050EA609530E009C02D9105
:1004400082279795879510F084279527305EC8F30B
:100450006F5FA8F30895EADF8D939D930895CF937E
:10046000CFB7CF93C395839BE9F7839B09C0839B49
:1004700007C0839B05C0839B03C0839B01C0A3C0AF
:10048000DF93C091C201DD27C753DE4F839B02C0BB
:10049000DF91EBCF2F930F931F9300B32FEF03FB4D
:1004A00020F94F933F9310B34FEF012703FB21F93E
:1004B0003BE031C04E7F012F10B3216028C0102FC8
:1004C0004D7F2260000000B329C04B7F2460012FC4
:1004D000000010B32BC010B3477F28602AC04F7EA6
:1004E00000B320612CC04F7D10B320622FC04F7B22
:1004F00000B3206432C0422700B349934FEF00009D
:10050000102713FB20F910B31C70C9F1297F91F259
:10051000012703FB21F900B3237F89F2315058F101
:10052000102713FB22F910B3277E79F2012703FB72
:1005300023F92F7C81F200B3102713FB24F92F79C4
:1005400071F200C010B3012703FB25F92F7359F294
:1005500000C000B3102713FB26F9223040F200C080
:1005600010B3012703FB27F9243028F64F772068C2
:1005700010B30000F9CF10E41ABF002719C03B5098
:100580003195C31BD04010E41ABF0881033CF9F039
:100590000B34E9F02091C0011981110F1213EDCF36
:1005A0004A81441F093641F10D3211F0013E29F70D
:1005B0000093C7013F914F911F910F912F91DF91B0
:1005C000CAB7C6FD4FCFCF91CFBFCF91189520911D
:1005D000C701222379F31091C501112369F5343045
:1005E0006AF13093C5012093C1011091C2013BE033
:1005F000311B3093C20122C00091C5010130E4F4E7
:100600000AE54F7049F43091780034FD19C0009329
:100610007800C9EAD1E018C03091B40134FD10C0AF
:100620000093B401C5EBD1E00FC02795A8F4515059
:10063000A9F4220F0000F9CF4AE503C042ED01C042
:10064000432FC4E1D0E032E011B31C60939A11BB98
:1006500002B320E41CE05F93012756E002BB27951C
:1006600020F4515021F4220FF9CF012756E0000069
:100670003B5A02BBD0F2279528F4515029F4220F9F
:100680000000F9CF012756E0279502BB20F4515016
:1006900021F4220FF9CF012756E02991332302BB21
:1006A00021F6037F1091C601110FC651D04002BB45
:1006B00011F01093C00110E41ABF086011B3137F4A
:1006C000402F437F5F9100C000C002BB11BB42BB03
:1006D00071CF089583B7887F826083BF12BE89B7C8
:1006E000816089BF10929701109298011092990130
:1006F00010929A0108958EB5887F83608EBD1DBCCF
:100700001CBC89B7846089BF089585B5887F8460E3
:1007100085BD14BC89B7806489BF10929F01109277
:10072000A0011092A1011092A201089580E090E032
:10073000FC01EE0FFF1FEE57FF4F11821082019652
:1007400088309105A9F70E946A030E947B030E94EA
:1007500085037894089593B7987F982B93BF089555
:100760009EB5987F982B9EBD089595B5987F982B40
:1007700095BD089583B7E82FF0E0E770F070EE0FB5
:10078000FF1FEE5EFE4F25913491C90108958EB58D
:10079000E82FF0E0E770F070EE0FFF1FEE5EFE4F07
:1007A00025913491C901089585B5E82FF0E0E770EF
:1007B000F070EE0FFF1FE25EFE4F25913491C901EC
:1007C0000895883040F4E82FF0E0EE0FFF1FEE5759
:1007D000FF4F718360830895883040F4E82FF0E084
:1007E000EE0FFF1FEE57FF4F118210820895EF9218
:1007F000FF920F931F93CF93DF93EC0112B71092E8
:100800009B0110929C0110929D0110929E0183B752
:10081000E82FF0E0E770F070EE0FFF1FEE5EFE4F86
:100820002591349140E050E060E07BE187EB90E07F
:100830000E94C512B901CA01693B2DE8720726E082
:10084000820720E09207A0F437E2C131D30780F499
:100850009E0140E050E00E94871228EE33E040E025
:1008600050E00E94C512C901DA01BC01CD0121C0CE
:1008700028EE33E040E050E00E94C512CA01B90101
:100880009E0140E050E00E94871213C080919B01BE
:1008900090919C01A0919D01B0919E0185B78F78A8
:1008A00085BF85B7806885BF889585B78F7785BFF9
:1008B00008C09B01AC01210F311D411D511D790163
:1008C0008A0120919B0130919C0140919D015091A2
:1008D0009E0182B790E0A0E0B0E0542F432F322F6A
:1008E0002227822B932BA42BB52B8E159F05A007B7
:1008F000B10760F2DF91CF911F910F91FF90EF90C0
:1009000008951092970110929801109299011092F7
:100910009A01089520919701309198014091990191
:1009200050919A01B901CA01089510929F01109245
:10093000A0011092A1011092A201089520919F019F
:100940003091A0014091A1015091A201B901CA01C9
:100950000895893031F48FB582608FBD8FB58E7F59
:100960000AC08A3019F48FB5826002C08FB58D7FBE
:100970008FBD8FB581608FBD1BBC1ABC19BC18BC64
:1009800008952FB52E7F2FBD2FB522602FBD2EB518
:1009900028602EBD2EB520612EBD97BD86BD1BBC27
:1009A0001ABC19BC18BC08958FB58D7F8FBD8FB54B
:1009B0008E7F8FBD8FB58F778FBD8FB58F7B8FBDAE
:1009C0008FB58F7D8FBD8FB58F7E8FBD08958FB50D
:1009D00080688FBD8FB58F7B8FBD08958FB5806286
:1009E0008FBD8FB58F7E8FBD08958FB58F778FBDEB
:1009F0008FB58F7B8FBD08958FB58F7D8FBD8FB5E0
:100A00008F7E8FBD08959BBD8ABD089599BD88BD19
:100A100008951F920F920FB60F9211242F933F93B8
:100A20004F935F936F937F938F939F93AF93BF93F6
:100A3000EF93FF938091970190919801A091990174
:100A4000B0919A010196A11DB11D809397019093D9
:100A50009801A0939901B0939A0180919B01909184
:100A60009C01A0919D01B0919E010196A11DB11D17
:100A700080939B0190939C01A0939D01B0939E0154
:100A80008091820090918300892B29F0E09182006F
:100A9000F09183000995FF91EF91BF91AF919F91E4
:100AA0008F917F916F915F914F913F912F910F9017
:100AB0000FBE0F901F9018951F920F920FB60F92B6
:100AC00011242F933F934F935F936F937F938F9353
:100AD0009F93AF93BF93EF93FF9380918400909186
:100AE0008500892B29F0E0918400F091850009951B
:100AF000FF91EF91BF91AF919F918F917F916F91F6
:100B00005F914F913F912F910F900FBE0F901F90CB
:100B100018951F920F920FB60F9211242F933F93A7
:100B20004F935F936F937F938F939F93AF93BF93F5
:100B3000EF93FF9380919F019091A001A091A1015B
:100B4000B091A2010196A11DB11D80939F019093C8
:100B5000A001A093A101B093A20180918C0090917B
:100B60008D00892B29F0E0918C00F0918D00099582
:100B7000FF91EF91BF91AF919F918F917F916F9175
:100B80005F914F913F912F910F900FBE0F901F904B
:100B900018951F920F920FB60F9211242F933F9327
:100BA0004F935F936F937F938F939F93AF93BF9375
:100BB000EF93FF938091900090919100892B29F001
:100BC000E0919000F09191000995FF91EF91BF9114
:100BD000AF919F918F917F916F915F914F913F91D5
:100BE0002F910F900FBE0F901F9018951F920F928C
:100BF0000FB60F9211242F933F934F935F936F93F0
:100C00007F938F939F93AF93BF93EF93FF938091C5
:100C1000860090918700892B29F0E0918600F09161
:100C200087000995FF91EF91BF91AF919F918F91AF
:100C30007F916F915F914F913F912F910F900FBED8
:100C40000F901F9018951F920F920FB60F921124BC
:100C50002F933F934F935F936F937F938F939F93C4
:100C6000AF93BF93EF93FF93809188009091890099
:100C7000892B29F0E0918800F09189000995FF9176
:100C8000EF91BF91AF919F918F917F916F915F9104
:100C90004F913F912F910F900FBE0F901F9018957D
:100CA0001F920F920FB60F9211242F933F934F93E1
:100CB0005F936F937F938F939F93AF93BF93EF93C4
:100CC000FF9380918A0090918B00892B29F0E0910D
:100CD0008A00F0918B000995FF91EF91BF91AF9140
:100CE0009F918F917F916F915F914F913F912F9144
:100CF0000F900FBE0F901F9018951F920F920FB676
:100D00000F9211242F933F934F935F936F937F9391
:100D10008F939F93AF93BF93EF93FF9380918E0038
:100D200090918F00892B29F0E0918E00F0918F0037
:100D30000995FF91EF91BF91AF919F918F917F9115
:100D40006F915F914F913F912F910F900FBE0F9038
:100D50001F901895282F8F3F31F41092930081E057
:100D60008093990008958E3F21F08D3F29F41092D1
:100D7000930010929900089580919900882351F072
:100D800080919300E82FF0E0ED59FE4F20838F5FB4
:100D9000809393008091970090919800019668EC61
:100DA00070E00E94B212FC0190939800809397002B
:100DB00080919500909196008E179F0759F40097A7
:100DC00019F487EC90E001C001979093980080930C
:100DD00097000895E656FF4F2083089520919500CF
:100DE00030919600809197009091980028173907CC
:100DF00011F480E00895C901019668EC70E00E944A
:100E0000B212FC019093960080939500E656FF4F36
:100E10008081089540E02091950030919600809166
:100E20009700909198002817390709F441E0842F22
:100E300008951092960010929500109298001092CA
:100E40009700109293001092940010926D011092EE
:100E50006E0110926F0110927001E7E4F2E01192BE
:100E600082E0E835F807D9F708951F93CF93DF9311
:100E7000982F282F30E0F901ED53FE4F149166238F
:100E800009F44EC08093620110926D0110926E01C0
:100E900010926F01109270011092A501E901CE59D4
:100EA000DD4F888181FF2EC0963421F0983409F0FF
:100EB00065C00EC08FEF0E94AA0680EE0E94AA06AF
:100EC00082E10E94AA0680EE0E94AA068CE724C056
:100ED0008DEF0E94AA0681EE0E94AA0684E10E947C
:100EE000AA0687E70E94AA0681EE0E94AA0680EF62
:100EF0000E94AA0684E10E94AA0680EF0E94AA0628
:100F000087E737C08FEF0E94AA06888180FF03C061
:100F100080EE0E94AA06812F0E94AA068EEF29C0A9
:100F200080916201891711F410929300E92FF0E08B
:100F3000EE59FD4F808181FF13C09634F9F480EEA5
:100F40000E94AA0680EF0E94AA068CE70E94AA06C9
:100F500080EE0E94AA0680EF0E94AA0682E109C0E4
:100F600080FF03C080EE0E94AA0680EF0E94AA06BE
:100F7000812F0E94AA068CEF0E94AA06DF91CF91D2
:100F80001F9108951F93162F8E3F11F08093A40197
:100F90000E94C5091093A5011F910895EF92FF9239
:100FA0000F931F938091A501843009F4E1C085302F
:100FB00030F4882371F0833009F0EAC0D7C088305C
:100FC00009F4DBC08C3009F45DC0853009F0E0C065
:100FD000D2C0209195003091960080919700909119
:100FE00098002817390711F40E94360F0E94EE0668
:100FF000182F8C3F09F4CDC0882361F060E00E9477
:10100000C20710926D0110926E0110926F01109242
:101010007001BFC080919300882309F4BAC0809109
:101020006D0190916E01A0916F01B09170010196D8
:10103000A11DB11D80936D0190936E01A0936F016E
:10104000B09370012091600066E9269F9001112401
:101050002A513F4F442737FD4095542F821793075D
:10106000A407B5070CF495C010926D0110926E01A3
:1010700010926F0110927001109294008CE0809396
:10108000A50187C080919400882311F40E94360F37
:10109000809193008823C1F02091950030919600B3
:1010A00080919700909198002817390769F48091F2
:1010B0006D0190916E01A0916F01B0917001019747
:1010C000A105B10561F40FC01092A50110926D0148
:1010D00010926E0110926F011092700159C08091B0
:1010E00094008823A9F090919400E92FF0E0ED5945
:1010F000FE4F80819F5F909394006CE00E94C20736
:1011000060919300809194000E94A61290939400A5
:10111000E0906D01F0906E0100916F0110917001EF
:101120000894E11CF11C011D111D6091610070917A
:10113000620080916300909164002AE030E040E01A
:1011400050E00E9487129B01AC012D5F3F4F4F4F33
:101150005F4FC801B7010E94E71260936D01709361
:101160006E0180936F019093700112C082E00DC0F8
:101170008BEA65E00BC083E808C00E94190780E095
:101180000E9481100E941B118AEA60E00E94C2073F
:1011900010E0812F90E01F910F91FF90EF90089544
:1011A0001F930E94D409182F6091A501623099F015
:1011B000633020F4613009F06AC007C0663009F47A
:1011C00048C0673009F063C00FC0853F09F49DC077
:1011D0008AEF61E09CC00E941907112311F060E0C2
:1011E00001C063E08AEF93C0682F70E0CB01807686
:1011F0009070A5E095958795AA95E1F7809360009A
:10120000AB0148715070F3E055954795FA95E1F7B9
:1012100080E090E021E030E003C0220F331F019610
:1012200084179507D4F367707070269FC001279FBD
:10123000900D369F900D1124AA2797FDA095BA2FE7
:101240008093610090936200A0936300B093640068
:101250005CC080FF02C0959A01C0959881FF02C0D2
:10126000909A01C0909820918F013091900182FF57
:1012700007C0919A2630310509F047C0949A45C0BD
:1012800091982630310509F040C094983EC0133F34
:1012900041F1143F60F41E3E99F01F3E18F41D3ECC
:1012A000A1F51CC0103FB9F0123F79F50BC0163FF5
:1012B000D9F0173F50F11E3F59F01F3F31F505C0DF
:1012C0008EEE25C08AEF64E022C08AEF68E01FC07E
:1012D0008091A4011CC08AEF62E019C08AEF66E029
:1012E00016C08AEF67E013C081E08093600085E05C
:1012F00090E0A0E0B0E08093610090936200A09342
:101300006300B09364000E9419078AEF60E00E94B6
:10131000C20780E090E01F910895CF93DF9388E0AB
:101320008093A501F8940E94960388E00E94A90486
:101330000E94EC0A0E94690E2EE088E190E00FB650
:10134000F894A89581BD0FBE21BD7894C0E0D0E08F
:10135000A8958091A70182FF10C0CC3FD10559F01C
:10136000209195003091960080919700909198007F
:101370002817390711F40E94D0088091A70184FF33
:10138000E7CF0E94CE07EC01E3CF80937201F8947F
:101390008091A7018F7E8093A7018091A70188602B
:1013A0008093A70178940895F8948091A7018B7F8A
:1013B0008093A70178948091710108958FEC84BD8A
:1013C0008091A601833000F58B98939A8091A701B4
:1013D00080FF23C0829BA3C08091A601813031F0A1
:1013E000813040F0823009F0F6C006C0839902C017
:1013F0008DE096C082E094C08091A70183FFEBC08E
:1014000093988B9A84E28CC08091A6018A3108F06F
:1014100079C08091A70180FD08C08091A7018160FB
:101420008093A7018A98929A0895829B76C08091B2
:10143000A601873140F4803118F58D3061F08F308E
:1014400009F055C00CC08831E1F1883158F189317B
:1014500009F04DC049C08091A7018D7F4DC080919A
:10146000A7018B7F8093A701839B05C080E88093B1
:10147000710181E014C0109274011092710137C0A3
:1014800080917101869580937101839B30C080911A
:101490007101806880937101809174018F5F8093E6
:1014A000740125C0839B05C0809174018F5F809378
:1014B00074018091740180FD1AC08091A70182603F
:1014C00010C0839905C08091A70182608093A70115
:1014D0008091A70181FD0BC093988B9A8091A70101
:1014E00084608093A70103C08B98939A6CC09298F4
:1014F0008A9A8091A7018E7F8093A7018091A6018F
:101500008F5F0EC08091A6018F3208F064C0809179
:10151000A70180FF10C0829906C08B98939A81E042
:101520008093A60108958091A7018E7F8093A701E3
:1015300092988A9A08958091A70181608093A7016B
:101540008A98929A8091A6018C3228F4853280F490
:101550008432E1F507C08D3299F18D32E8F08E3298
:10156000A9F531C0809172018093730110927401CA
:101570008091730180FF08C08B98939A80917401C9
:101580008F5F8093740102C093988B9A809173014E
:101590008695809373011AC08091740180FF03C007
:1015A00093988B9A02C08B98939A8091A701877F1A
:1015B0008093A7018091A70180618093A70106C055
:1015C0008B98939A03C01092A60108958091A6016A
:1015D0008F5F8093A60108951092A60181E1809308
:1015E000A7018A98929A8B98939A0E94850382E029
:1015F0000E94B50385E06EED79E00E94E1038FEC77
:1016000084BD0895FC0121E0209375018AE791E0F3
:101610009093C4018093C30180818076803269F504
:101620008181813011F488E00895893041F4868108
:101630009781019711F5209376018FEF08958230FD
:1016400019F489E791E013C08A3029F483818093EB
:10165000790180E00895833031F48381882369F42F
:101660001092770008958B3041F487E790E09093D3
:10167000C4018093C30181E0089580E00895FC01D6
:1016800080917601882301F16130F1F480818093AB
:10169000770180FF02C0909A01C0909820918F013D
:1016A0003091900181FF06C0919A2630310539F4BE
:1016B000949A05C091982630310509F4949882FFD8
:1016C00002C0959A01C095981092760181E0089524
:1016D000982F81568A3118F4292F2D5510C0892F43
:1016E00081548A3120F4292F2D5332E009C0892FEB
:1016F0008153893010F020E002C0292F235130E0BF
:10170000892F992787FD9095A92FB92FFC01B097B4
:10171000EF35F105E0F5E65DFF4FEE0FFF1F059099
:10172000F491E02D09942EE135C021E233C022E28C
:1017300031C023E22FC024E22DC025E22BC026E2D7
:1017400029C027E227C02CE226C02DE224C02DE2CA
:1017500021C02EE220C02EE21DC02FE21CC02FE2CD
:1017600019C020E318C020E315C021E314C021E311
:1017700011C023E310C023E30DC026E30CC026E311
:1017800009C027E308C027E305C028E304C02223DB
:1017900011F428E332E0832F922F089527E2FBCF44
:1017A00025E3F8CF25E3F7CF582FDB01642F282F4F
:1017B000392FF90108C090818C91981711F081E0C0
:1017C0000895319611968E2F851B8617A0F380E021
:1017D0000895EAE7F1E0A2E8B1E090818C919817D2
:1017E00049F481E0E138F80711F480E0089531967A
:1017F0001196F3CF81E00895DF93CF93CDB7DEB795
:1018000028970FB6F894DEBF0FBECDBF982F8091FA
:10181000B40184FFFCCFFE01319688E0DF011D9208
:101820008A95E9F799836B83CF0168E00E94460EA1
:1018300028960FB6F894DEBF0FBECDBFCF91DF91D3
:101840000895692F0E94FC0B80E060E00E94FC0B71
:101850000895982F8658883068F4E92FF0E0EE0F4D
:10186000FF1FE55AF040808190917A01892B809387
:101870007A0116C08091A801883050F08CE791E081
:1018800061E070E046E050E00E94161382E009C07B
:10189000E82FF0E0E658FE4F90838F5F8093A80119
:1018A00080E08160089582E08093A80188E0EAE703
:1018B000F1E0DF011D928A95E9F780E00895AAE73B
:1018C000B1E0E2E8F1E088E001900D928150E1F7AB
:1018D0000895A2E8B1E0EAE7F1E088E001900D9216
:1018E0008150E1F70895FF920F931F93CF93DF93F9
:1018F00010927501F8940E94160D82B3837F82BB0B
:1019000081B38C6081BB81E00E94811081B3837FB1
:1019100081BB85E00E94AB030E947B0388E00E94AC
:10192000A9040E94690E0E941B112EE088E190E03C
:101930000FB6F894A89581BD0FBE21BD789400E044
:10194000C0E0D0E0FF24F394809175018823C1F4B6
:101950008FE0C13AD80714F4219612C0109280008B
:1019600088E10FB6F89481BD11BC0FBE8BB78F7B99
:101970008BBF80E0DF91CF911F910F91FF90089571
:10198000A8950E94230D0E94360F182F8823E1F29C
:1019900080917901882329F40E94E90B882309F4B6
:1019A00010E008B600FE0AC0F8BE809179018823D5
:1019B00029F0053010F4082F04C00550112309F454
:1019C000C3CF8091B40184FFBFCF8AE791E068E084
:1019D0000E94460EA2E8B1E0EAE7F1E088E001905B
:1019E0000D928150E1F7B0CFFF920F931F93CF93E9
:1019F000DF938C01FF2408C0C00FD11F88810E9493
:101A0000680B0E94210CF394CF2DD0E0F8010190D7
:101A10000020E9F73197E01BF10BCE17DF0760F3E9
:101A2000DF91CF911F910F91FF90089585B783604B
:101A300085BF8BB780648BBF8BE48093B5018AE54B
:101A40008093B40108951F93CF93DF936091C501F4
:101A5000635067FDBFC08091C201CCE0D0E0C81BDD
:101A6000D109C753DE4F8091C1018D3209F09FC06B
:101A7000683009F0ADC083EC8093A9018AE58093BA
:101A8000780010928A018881807641F0CE010E9410
:101A9000020B282F8F3F09F479C07FC09A811092E2
:101AA000B2018981882321F41092B30122E067C03A
:101AB000853019F49093C60161C0863009F04AC0A0
:101AC0008B81813019F48FE891E025C0823041F498
:101AD00081EA91E09093C4018093C30122E236C071
:101AE0008330F9F48A81882341F48DE691E0909364
:101AF000C4018093C30124E029C0813041F481E70F
:101B000091E09093C4018093C3012CE01FC0823008
:101B1000E1F48DE791E09093C4018093C30122E149
:101B200015C0813241F483EB91E09093C40180931E
:101B3000C30129E00BC0823241F48EE291E0909320
:101B4000C4018093C3012FE301C020E080E48093AF
:101B50008A0123C0883021F421E088EC91E011C093
:101B6000893019F49093C80109C08A3011F421E03A
:101B700006C08B3019F48BE48093B50120E082EB32
:101B800091E09093C4018093C30107C0888187FDD1
:101B90002E8180E880938A0106C08F81882319F402
:101BA0008E81821708F0822F8093790011C0809176
:101BB0008A0187FF0DC0CE010E943F0B8F3F21F4A9
:101BC0008EE18093780004C0882311F01092790090
:101BD0001092C5018091780084FF4AC080917900FD
:101BE0008F3F09F445C0182F893008F018E0811B99
:101BF000809379008091A90198E889278093A901B1
:101C0000112341F12091C3013091C40180918A01D7
:101C100086FF0DC0AAEAB1E080E090E0F901E80F8C
:101C2000F91FE491ED9301961817C1F708C0912FA1
:101C3000D901EAEAF1E08D9181939150E1F71150D9
:101C4000812F90E01F5F0196820F931F9093C40134
:101C50008093C3018AEA91E0612F0E942B02612FD9
:101C60006C5F6C3019F08FEF80937900609378008F
:101C700094E180B38C7031F49150D9F71092C60181
:101C80001092C001DF91CF911F9108951F93DC0145
:101C9000162F8091B40184FF07C08091B50198E8A8
:101CA00089278093B50103C08AE58093B401912F01
:101CB000E6EBF1E08D91819391501916DCF386EB00
:101CC00091E0612F0E942B021C5F1093B4011F91C1
:101CD0000895E2E6F2E0119283E0EE30F807D9F7DA
:101CE0002FE632E006C0FC01EE59FD4F8081826094
:101CF0008083F901849190E02F5F3F4F009799F71F
:101D000022E732E006C0FC01EE59FD4F808184607D
:101D10008083F901849190E02F5F3F4F009799F7FE
:101D200026E732E006C0FC01EE59FD4F8081886055
:101D30008083F901849190E02F5F3F4F009799F7DE
:101D40002AE732E006C0FC01EE59FD4F8081816038
:101D50008083F901849190E02F5F3F4F009799F7BE
:101D600027EA32E006C0FC01EE59FD4F8081806118
:101D70008083F901849190E02F5F3F4F009799F79E
:101D8000E7E4F2E0119282E0E435F807D9F726EBB8
:101D900032E040E011C084918F3F29F4842F829576
:101DA000807F892B0DC09F5F38969D30A1F74F5FD4
:101DB0002F5F3F4F483019F0F90190E0ECCF80E001
:101DC000809361020895382F3F7082958F7041E0B3
:101DD00050E0BA0102C0660F771F8A95E2F7CB0187
:101DE00067BB809588BB8CE291E00197F1F73830B2
:101DF00038F429B302C0440F551F3A95E2F713C0D7
:101E0000632F70E03850383020F423B38FE090E037
:101E100003C020B387E190E0861B970B02C0440FFC
:101E2000551F8A95E2F720952423822F09F081E03F
:101E300008958E3F11F080E0089580918F01909178
:101E400090018730910528F01092900110928F0137
:101E500005C001969093900180938F0180918F012E
:101E6000909190010E94FF1081E008952F923F927F
:101E70004F925F926F927F928F929F92AF92BF929A
:101E8000CF92DF92EF92FF920F931F93CF93DF9346
:101E900080918B0190918C01019690938C0180939D
:101EA0008B01019723E18838920724F090938C01ED
:101EB00080938B0100E0A0E0B0E0C1E0D0E05CE204
:101EC000852E51E0952E47E1A42EB12C3FE0C32E84
:101ED000D12C9E010A2E02C0220F331F0A94E2F772
:101EE00027BB822F809588BBC4010197F1F719B3F6
:101EF000109573B3709530B33095E4E5F2E040E0AF
:101F000050E0F22EF094842F483048F4CE01042E95
:101F100002C0880F991F0A94E2F7612F1AC08850F7
:101F2000883060F4C601841B950B3E0102C0660C2C
:101F3000771C8A95E2F7C301672F0BC0C501841B8C
:101F4000950B3E0102C0660C771C8A95E2F7C3012F
:101F5000632F682309F004609081822F892331F078
:101F6000662349F49F219083016005C0662319F020
:101F7000922B908302604F5F5F4F31964D30510539
:101F800009F0C1CF1196A830B10509F0A2CF10E039
:101F9000C8010E94CE100E94271103701070012BFF
:101FA00011F080E09BC00E94530C809161020E945E
:101FB000E30E482E8DE0489EE001112423E0CC0F73
:101FC000DD1F2A95E1F7CA54DD4F5524AA24BB240E
:101FD00091E0292E312C5DC0F701E95BFD4F908126
:101FE000F701EC5AFD4F2081F3011491812F8150AC
:101FF0008E3FC8F5DC2CD9220C2D022380918F0155
:1020000090919001029739F4DD2071F4002329F0BA
:102010000E94B51002C0DD2039F4002329F0812F81
:102020000E94190F8823F9F480918000882339F0E9
:102030000023C9F0812F0E94290C582E14C0DD20E6
:1020400049F4002381F0812F61E00E943507F401FB
:10205000108309C0002339F41E3F29F0F401808168
:1020600060E00E9435070894E11CF11C88E090E0D4
:10207000680E791E880E991E9DE0E916F10409F09C
:10208000ABCF0894A11CB11C2196E8E0AE16B104B8
:1020900091F0C1010A2C02C0880F991F0A94E2F73F
:1020A000C82E8FED882E81E0982E8A0C9B1C3E0155
:1020B000EE24FF2491CF20E030E0F901E95BFD4FF1
:1020C000D901AC5ABD4F8C9180832F5F3F4F2D308B
:1020D000310599F740928E01852D8160DF91CF9176
:1020E0001F910F91FF90EF90DF90CF90BF90AF9036
:1020F0009F908F907F906F905F904F903F902F9028
:102100000895482F82B38C7C82BB442311F0909AAF
:1021100001C0959A88EE93E02CE231E0F901319705
:10212000F1F70197D9F782B38C7C82BB919A88EE44
:1021300093E02CE231E0F9013197F1F70197D9F7FB
:1021400082B38C7C82BB442311F0959A01C0909A93
:1021500088EE93E02CE231E0F9013197F1F7019735
:10216000D9F782B38C7C82BB0895209193012431EE
:10217000A0F48FEF91E09093950180939401922FBA
:102180009F5F909393018FEF989FC001112464E1AA
:1021900070E00E94B21260939601089520918F0121
:1021A0003091900182FF17C02330310531F0243087
:1021B000310529F02130310549F4949A07C00E9475
:1021C000EE0480E090E00E940605949810928C0145
:1021D00010928B0108952330310569F024303105C8
:1021E00061F02130310551F480918B0190918C0187
:1021F000895E93401CF494980895949A08958630CB
:10220000910534F48430910534F402976CF005C0E4
:10221000089754F402C0949A07C00E94EE0480E02C
:1022200090E00E94060594988BE090E060918F0109
:102230000E94251308958BE090E00E941D13809367
:102240008F011092900190E00E94FF1008950F936B
:102250001F9380918F0190919001009761F08130E0
:10226000910509F0ACC080918B0190918C01895E41
:1022700093400CF4E7C080919101909192010097F6
:1022800031F560917C0070917D0080917E0090918D
:102290007F000E94B212CB010E94060520917C00B3
:1022A00030917D008FEF90E0A901489F9001499FF8
:1022B000300D589F300D112480917E0090917F0049
:1022C000821793070CF46FC081E090E029C0823040
:1022D000910559F560917A0070917B0080917E00A4
:1022E00090917F000E94B2120FEF10E0C801861B90
:1022F000970B0E94060580917A0090917B00809F49
:102300009001819F300D909F300D112480917E00AF
:1023100090917F00821793070CF445C083E090E012
:1023200090939201809391013EC081309105E1F438
:1023300020917A0030917B008FEF90E0A901489FB7
:102340009001499F300D589F300D112480917E00DF
:1023500090917F008217930734F110927F001092C2
:102360007E0082E090E0DCCF0397E9F420917C00CE
:1023700030917D008FEF90E0A901489F9001499F27
:10238000300D589F300D112480917E0090917F0078
:102390008217930744F010927F0010927E001092F3
:1023A0009201109291010E94EE0480917E00909122
:1023B0007F00019690937F0080937E0051C002972A
:1023C00009F040C08091940190919501009731F0FF
:1023D000019790939501809394012EC040919601AE
:1023E000442321F180917E0090917F00019690938B
:1023F0007F0080937E0020917A0030917B008217CD
:102400009307D4F010927F0010927E00242F215069
:10241000209396018FEF90E0821B910964EF7FEF8C
:102420000E94B2126C5E6093930106C010929301F9
:1024300010927F0010927E008091960190E00E94A1
:1024400006050EC080E090E00E9406050E94FC0494
:1024500010927F0010927E001092920110929101D2
:102460001F910F9108950895882319F08E98969AD8
:1024700008958E9A969808959FEF9BBB98BB95BB45
:1024800012BA1ABA97BB14BA9FE791BB882311F00E
:1024900081E001C080E00E94341280E090E0089565
:1024A00011BA20E030E060E375E741E050E08A983F
:1024B000929A8B98939ACB010197F1F780B390E0B1
:1024C00096958795969587958427952781703817D7
:1024D00011F025E002C0222319F02150382FE7CF58
:1024E000832F08950E945012809380000E943C1216
:1024F00080918000882311F00E94730C80918000ED
:102500000E943C120E948D0980E090E00895629F35
:10251000D001739FF001829FE00DF11D649FE00DDB
:10252000F11D929FF00D839FF00D749FF00D659F3C
:10253000F00D9927729FB00DE11DF91F639FB00D3B
:10254000E11DF91FBD01CF0111240895991B79E008
:1025500004C0991F961708F0961B881F7A95C9F733
:102560008095089597FB092E07260AD077FD04D0A1
:1025700049D006D000201AF4709561957F4F0895D8
:10258000F6F7909581959F4F0895A1E21A2EAA1B08
:10259000BB1BFD010DC0AA1FBB1FEE1FFF1FA21713
:1025A000B307E407F50720F0A21BB30BE40BF50B10
:1025B000661F771F881F991F1A9469F76095709599
:1025C000809590959B01AC01BD01CF01089597FBCB
:1025D000092E05260ED057FD04D0D7DF0AD0001CE7
:1025E00038F450954095309521953F4F4F4F5F4FB0
:1025F0000895F6F790958095709561957F4F8F4F70
:102600009F4F0895AA1BBB1B51E107C0AA1FBB1F08
:10261000A617B70710F0A61BB70B881F991F5A956E
:10262000A9F780959095BC01CD010895DC0101C00A
:102630006D9341505040E0F70895E199FECF9FBB64
:102640008EBBE09A99278DB30895262FE199FECF8E
:102650009FBB8EBB2DBB0FB6F894E29AE19A0FBEDA
:0826600001960895F894FFCFE4
:10266800020500000000000100020004000800103C
:1026780000200040008000015AFF04000A00040006
:0226880001004F
:00000001FF
