:100000000C94F7010C942F020C9414020C9414021B
:100010000C9492060C949E050C9465060C940B06A9
:100020000C9438060C9471050C94DE050C941E0596
:100030000C9414020C9414020C9414020C941402E8
:100040000C9414020C9414020C9414020C941402D8
:100050000C941402810B710BA50BB00B730B750B79
:10006000790BA50B7D0B7F0B7B0B890B9B0B830BFC
:100070009F0BA30BAC0BA50BA50BA50BA50BA50B01
:10008000A50BA50BA50BA50B990B970B9D0B870B30
:10009000A10BA70BAE0BA50BA50BA50BA50BA50BD9
:1000A000A50BA50BA50BA50BA50BA50BA50BA50BD0
:1000B000A50BA50BA50BA50BA50BA50BA50BA50BC0
:1000C000A50BA50BA50BA50BA50B8B0B930B8F0BF2
:1000D000770B850BB00BA50BA50BA50BA50BA50BE3
:1000E000A50BA50BA50BA50BA50BA50BA50BA50B90
:1000F000A50BA50BA50BA50BA50BA50BA50BA50B80
:10010000A50BA50BA50BA50BA50B8D0B950B910BAB
:10011000AE0B0000010008004000000100040000D8
:1001200001000800200040008000000100040501DB
:100130000906A101050719E029E715002501750148
:1001400095088102950175088103950575010508DB
:10015000190129059102950175039103950675080A
:10016000150025650507190029658100C0040309EC
:10017000040C034C00450045004B00550012036D74
:100180000078003100380033003000780078001229
:1001900001100100000008424231E10001010200AB
:1001A000010902220001010080320904000001035C
:1001B000010100092101010001223F00070581031F
:1001C00008000A0000FC001C322123242B34334396
:1001D0003B424B3A31444D152D1B2C3C2A1D2235F8
:1001E0001A161E26252E363D3E46455A76660D29A0
:1001F0004E55545B5D5D4C520E41494A580506040C
:100200000C030B830A010978077C7E7C706C7D717E
:10021000697A746B7275774A7C7B795A69727A6BEA
:1002200073746C757D7071612F370F08101820285A
:100230003038404850575F000000000000000000C8
:100240000000000000000000001412111F145911DA
:100250002700F1F2373F5E48103A38302820184D19
:10026000153B34233221502B404B1C43221D0046AA
:10027000480048908F0091929300898A8D8C654642
:10028000494A4B4C4D4E52504F5154589192939471
:1002900095969798999A9B9C9D9E9FA0A1A2A3A496
:1002A000A5A6A7A8A9AA00494C4A4D4B4E898D6521
:1002B000504F5251540029352B3987865F5C3A1EC6
:1002C00014041D88605D3B1F1A161B2C615E3C20C8
:1002D0000807068C56573D211509198A59633E2295
:1002E000170A05505A893F231C0B11515B654024A6
:1002F000180D104F588D41250C0E36494C5342268F
:10030000120F374A4D5443271333384B4E55442D63
:100310002F348B2A46FF452E302852314762FE3556
:100320002B3987865F5C3A1E14041D88605D3B1F75
:100330001A161B2C615E3C200807068C56573D217F
:100340001509198A59633E22170A05505A893F2315
:100350001C0B11515B654024180D104F588D412521
:100360000C0E36494C534226120F374A4D54432740
:100370001333384B4E55442D2F348B2A46FF452ED0
:1003800030285231486229352B3987865F5C3A1E06
:1003900014041D88605D3B1F1A161B2C615E3C20F7
:1003A0000807068C56573D211509198A59633E22C4
:1003B000170A05505A893F231C0B11515B8D4024AD
:1003C000180D104F586541250C0E36494C534226E6
:1003D000120F374A4D5443271333384B4E55442D93
:1003E0002F348B2A4647452E30285231486211243B
:1003F0001FBECFE5D8E0DEBFCDBF10E0A0E6B0E085
:10040000E6EDF6E202C005900D92A238B107D9F7E9
:1004100013E0A2E8B0E001C01D92A131B107E1F7FD
:100420000E9499120C9469130C940000A82FB92F04
:1004300080E090E041E050EA609530E009C02D9105
:1004400082279795879510F084279527305EC8F30B
:100450006F5FA8F30895EADF8D939D930895CF937E
:10046000CFB7CF93C395839BE9F7839B09C0839B49
:1004700007C0839B05C0839B03C0839B01C0A3C0AF
:10048000DF93C091C401DD27C553DE4F839B02C0BB
:10049000DF91EBCF2F930F931F9300B32FEF03FB4D
:1004A00020F94F933F9310B34FEF012703FB21F93E
:1004B0003BE031C04E7F012F10B3216028C0102FC8
:1004C0004D7F2260000000B329C04B7F2460012FC4
:1004D000000010B32BC010B3477F28602AC04F7EA6
:1004E00000B320612CC04F7D10B320622FC04F7B22
:1004F00000B3206432C0422700B349934FEF00009D
:10050000102713FB20F910B31C70C9F1297F91F259
:10051000012703FB21F900B3237F89F2315058F101
:10052000102713FB22F910B3277E79F2012703FB72
:1005300023F92F7C81F200B3102713FB24F92F79C4
:1005400071F200C010B3012703FB25F92F7359F294
:1005500000C000B3102713FB26F9223040F200C080
:1005600010B3012703FB27F9243028F64F772068C2
:1005700010B30000F9CF10E41ABF002719C03B5098
:100580003195C31BD04010E41ABF0881033CF9F039
:100590000B34E9F02091C2011981110F1213EDCF34
:1005A0004A81441F093641F10D3211F0013E29F70D
:1005B0000093C9013F914F911F910F912F91DF91AE
:1005C000CAB7C6FD4FCFCF91CFBFCF91189520911D
:1005D000C901222379F31091C701112369F5343041
:1005E0006AF13093C7012093C3011091C4013BE02D
:1005F000311B3093C40122C00091C7010130E4F4E3
:100600000AE54F7049F43091780034FD19C0009329
:100610007800CBEAD1E018C03091B60134FD10C0AB
:100620000093B601C7EBD1E00FC02795A8F4515055
:10063000A9F4220F0000F9CF4AE503C042ED01C042
:10064000432FC4E1D0E032E011B31C60939A11BB98
:1006500002B320E41CE05F93012756E002BB27951C
:1006600020F4515021F4220FF9CF012756E0000069
:100670003B5A02BBD0F2279528F4515029F4220F9F
:100680000000F9CF012756E0279502BB20F4515016
:1006900021F4220FF9CF012756E02991332302BB21
:1006A00021F6037F1091C801110FC651D04002BB43
:1006B00011F01093C20110E41ABF086011B3137F48
:1006C000402F437F5F9100C000C002BB11BB42BB03
:1006D00071CF089580E090E0FC01EE0FFF1FEE5710
:1006E000FF4F11821082019688309105A9F783B7D8
:1006F000887F846083BF12BE1092990110929A0184
:1007000010929B0110929C018EB5887F84608EBDF3
:100710001DBC1CBC85B5887F846085BD14BC10924F
:10072000A1011092A2011092A3011092A401789449
:10073000089583B7887F846083BF12BE10929901A9
:1007400010929A0110929B0110929C0108958EB50F
:10075000887F84608EBD1DBC1CBC089585B5887FD4
:10076000846085BD14BC1092A1011092A201109268
:10077000A3011092A401089589B7806489BF0895E8
:1007800093B7987F982B93BF08959EB5987F982B29
:100790009EBD089595B5987F982B95BD089583B714
:1007A000E82FF0E0E770F070EE0FFF1FEE5EFE4FF7
:1007B00025913491C90108958EB5E82FF0E0E770D6
:1007C000F070EE0FFF1FEE5EFE4F25913491C901D0
:1007D000089585B5E82FF0E0E770F070EE0FFF1F89
:1007E000E25EFE4F25913491C9010895883040F4AE
:1007F000E82FF0E0EE0FFF1FEE57FF4F718360838D
:100800000895883040F4E82FF0E0EE0FFF1FEE5718
:10081000FF4F118210820895EF92FF920F931F9362
:10082000CF93DF93EC0112B710929D0110929E01BD
:1008300010929F011092A00183B7E82FF0E0E770BB
:10084000F070EE0FFF1FEE5EFE4F2591349140E0F9
:1008500050E060E07BE187EB90E00E94FC12B90180
:10086000CA01693B2DE8720726E0820720E0920763
:10087000A0F437E2C131D30780F49E0140E050E09C
:100880000E94BE1228EE33E040E050E00E94FC12CD
:10089000C901DA01BC01CD0121C028EE33E040E0FE
:1008A00050E00E94FC12CA01B9019E0140E050E0F4
:1008B0000E94BE1213C080919D0190919E01A09153
:1008C0009F01B091A00185B78F7885BF85B78068FB
:1008D00085BF889585B78F7785BF08C09B01AC0120
:1008E000210F311D411D511D79018A0120919D016A
:1008F00030919E0140919F015091A00182B790E0FC
:10090000A0E0B0E0542F432F322F2227822B932BCD
:10091000A42BB52B8E159F05A007B10760F2DF91C0
:10092000CF911F910F91FF90EF9008951092990130
:1009300010929A0110929B0110929C0108952091AF
:10094000990130919A0140919B0150919C01B9010C
:10095000CA0108951092A1011092A2011092A30160
:100960001092A40108952091A1013091A20140911B
:10097000A3015091A401B901CA010895893031F44D
:100980008FB582608FBD8FB58E7F0AC08A3019F413
:100990008FB5826002C08FB58D7F8FBD8FB58160AE
:1009A0008FBD1BBC1ABC19BC18BC08952FB52E7F77
:1009B0002FBD2FB522602FBD2EB528602EBD2EB5C0
:1009C00020612EBD97BD86BD1BBC1ABC19BC18BCCE
:1009D00008958FB58D7F8FBD8FB58E7F8FBD8FB5FD
:1009E0008F778FBD8FB58F7B8FBD8FB58F7D8FBD7F
:1009F0008FB58F7E8FBD08958FB580688FBD8FB501
:100A00008F7B8FBD08958FB580628FBD8FB58F7E30
:100A10008FBD08958FB58F778FBD8FB58F7B8FBDBD
:100A200008958FB58F7D8FBD8FB58F7E8FBD089553
:100A30009BBD8ABD089599BD88BD08951F920F92F0
:100A40000FB60F9211242F933F934F935F936F93A1
:100A50007F938F939F93AF93BF93EF93FF93809177
:100A6000990190919A01A0919B01B0919C010196EE
:100A7000A11DB11D8093990190939A01A0939B01B0
:100A8000B0939C0180919D0190919E01A0919F0146
:100A9000B091A0010196A11DB11D80939D0190937D
:100AA0009E01A0939F01B093A0018091820090913C
:100AB0008300892B29F0E0918200F0918300099551
:100AC000FF91EF91BF91AF919F918F917F916F9126
:100AD0005F914F913F912F910F900FBE0F901F90FC
:100AE00018951F920F920FB60F9211242F933F93D8
:100AF0004F935F936F937F938F939F93AF93BF9326
:100B0000EF93FF938091840090918500892B29F0C9
:100B1000E0918400F09185000995FF91EF91BF91DC
:100B2000AF919F918F917F916F915F914F913F9185
:100B30002F910F900FBE0F901F9018951F920F923C
:100B40000FB60F9211242F933F934F935F936F93A0
:100B50007F938F939F93AF93BF93EF93FF93809176
:100B6000A1019091A201A091A301B091A4010196CD
:100B7000A11DB11D8093A1019093A201A093A30197
:100B8000B093A40180918C0090918D00892B29F065
:100B9000E0918C00F0918D000995FF91EF91BF914C
:100BA000AF919F918F917F916F915F914F913F9105
:100BB0002F910F900FBE0F901F9018951F920F92BC
:100BC0000FB60F9211242F933F934F935F936F9320
:100BD0007F938F939F93AF93BF93EF93FF938091F6
:100BE000900090919100892B29F0E0919000F09174
:100BF00091000995FF91EF91BF91AF919F918F91D6
:100C00007F916F915F914F913F912F910F900FBE08
:100C10000F901F9018951F920F920FB60F921124EC
:100C20002F933F934F935F936F937F938F939F93F4
:100C3000AF93BF93EF93FF938091860090918700CD
:100C4000892B29F0E0918600F09187000995FF91AA
:100C5000EF91BF91AF919F918F917F916F915F9134
:100C60004F913F912F910F900FBE0F901F901895AD
:100C70001F920F920FB60F9211242F933F934F9311
:100C80005F936F937F938F939F93AF93BF93EF93F4
:100C9000FF938091880090918900892B29F0E09141
:100CA0008800F09189000995FF91EF91BF91AF9174
:100CB0009F918F917F916F915F914F913F912F9174
:100CC0000F900FBE0F901F9018951F920F920FB6A6
:100CD0000F9211242F933F934F935F936F937F93C2
:100CE0008F939F93AF93BF93EF93FF9380918A006D
:100CF00090918B00892B29F0E0918A00F0918B0074
:100D00000995FF91EF91BF91AF919F918F917F9145
:100D10006F915F914F913F912F910F900FBE0F9068
:100D20001F9018951F920F920FB60F9211242F93B8
:100D30003F934F935F936F937F938F939F93AF9363
:100D4000BF93EF93FF9380918E0090918F00892B3A
:100D500029F0E0918E00F0918F000995FF91EF91BD
:100D6000BF91AF919F918F917F916F915F914F91C3
:100D70003F912F910F900FBE0F901F901895282F25
:100D80008F3F31F41092930081E080939900089591
:100D90008E3F21F08D3F29F410929300109299001C
:100DA000089580919900882351F080919300E82F55
:100DB000F0E0ED59FE4F20838F5F80939300809188
:100DC000970090919800019668EC70E00E94E912FB
:100DD000FC019093980080939700809195009091EA
:100DE00096008E179F0759F4009719F487EC90E04E
:100DF00001C0019790939800809397000895E6565C
:100E0000FF4F2083089520919500309196008091A6
:100E10009700909198002817390711F480E0089501
:100E2000C901019668EC70E00E94E912FC01909300
:100E3000960080939500E656FF4F8081089540E02C
:100E400020919500309196008091970090919800A4
:100E50002817390709F441E0842F0895109296006D
:100E600010929500109298001092970010929300A3
:100E70001092940010926D0110926E0110926F0109
:100E800010927001E9E4F2E0119282E0EA35F8078D
:100E9000D9F708951F93CF93DF93982F282F30E031
:100EA000F901ED53FE4F1491662309F44EC080936F
:100EB000620110926D0110926E0110926F011092FA
:100EC00070011092A701E901CB59DD4F888181FFA4
:100ED0002EC0963421F0983409F065C00EC08FEF13
:100EE0000E94BF0680EE0E94BF0682E10E94BF06FC
:100EF00080EE0E94BF068CE724C08DEF0E94BF06E3
:100F000081EE0E94BF0684E10E94BF0687E70E942F
:100F1000BF0681EE0E94BF0680EF0E94BF0684E1FB
:100F20000E94BF0680EF0E94BF0687E737C08FEFA1
:100F30000E94BF06888180FF03C080EE0E94BF062A
:100F4000812F0E94BF068EEF29C080916201891710
:100F500011F410929300E92FF0E0EB59FD4F8081DE
:100F600081FF13C09634F9F480EE0E94BF0680EF33
:100F70000E94BF068CE70E94BF0680EE0E94BF065B
:100F800080EF0E94BF0682E109C080FF03C080EEAF
:100F90000E94BF0680EF0E94BF06812F0E94BF06FD
:100FA0008CEF0E94BF06DF91CF911F9108951F9390
:100FB000162F8E3F11F08093A6010E94CC0910934A
:100FC000A7011F910895EF92FF920F931F938091B5
:100FD000A701843009F4E1C0853030F4882371F032
:100FE000833009F0EAC0D7C0883009F4DBC08C3008
:100FF00009F45DC0853009F0E0C0D2C020919500B1
:1010000030919600809197009091980028173907A9
:1010100011F40E94190F0E940307182F8C3F09F446
:10102000CDC0882361F060E00E94D70710926D0167
:1010300010926E0110926F0110927001BFC08091EA
:101040009300882309F4BAC080916D0190916E01DC
:10105000A0916F01B09170010196A11DB11D809307
:101060006D0190936E01A0936F01B0937001209178
:10107000600066E9269F900111242A513F4F4427C2
:1010800037FD4095542F82179307A407B5070CF43A
:1010900095C010926D0110926E0110926F01109226
:1010A0007001109294008CE08093A70187C080911A
:1010B0009400882311F40E94190F809193008823D3
:1010C000C1F0209195003091960080919700909109
:1010D00098002817390769F480916D0190916E018D
:1010E000A0916F01B09170010197A105B10561F464
:1010F0000FC01092A70110926D0110926E01109214
:101100006F011092700159C0809194008823A9F05A
:1011100090919400E92FF0E0ED59FE4F80819F5FA0
:10112000909394006CE00E94D707609193008091A7
:1011300094000E94DD1290939400E0906D01F09075
:101140006E0100916F01109170010894E11CF11C77
:10115000011D111D6091610070916200809163001A
:10116000909164002AE030E040E050E00E94BE121E
:101170009B01AC012D5F3F4F4F4F5F4FC801B7013F
:101180000E941E1360936D0170936E0180936F0136
:101190009093700112C082E00DC08BEA65E00BC035
:1011A00083E808C00E942E0780E00E94A4100E94DD
:1011B0000D118AEA60E00E94D70710E0812F90E0CD
:1011C0001F910F91FF90EF9008951F930E94DB09EC
:1011D000182F6091A701623099F0633020F46130DC
:1011E00009F06DC007C0663009F448C0673009F0E7
:1011F00066C00FC0853F09F4A0C08AEF61E09FC0C0
:101200000E942E07112311F060E001C063E08AEF15
:1012100096C0682F70E0CB0180769070A5E0959520
:101220008795AA95E1F780936000AB0148715070F3
:10123000F3E055954795FA95E1F780E090E021E0DD
:1012400030E003C0220F331F019684179507D4F3B3
:1012500067707070269FC001279F900D369F900D7C
:101260001124AA2797FDA095BA2F8093610090932F
:101270006200A0936300B09364005FC02091640299
:1012800080FF02C0246001C02B7F20936402209164
:10129000640281FF02C0216001C02E7F209364029E
:1012A0002091640282FF02C0226001C02D7F209342
:1012B00064028091640290E00E9488103EC0133F57
:1012C00041F1143F60F41E3E99F01F3E18F41D3E9C
:1012D000A1F51CC0103FB9F0123F79F50BC0163FC5
:1012E000D9F0173F50F11E3F59F01F3F31F505C0AF
:1012F0008EEE25C08AEF64E022C08AEF68E01FC04E
:101300008091A6011CC08AEF62E019C08AEF66E0F6
:1013100016C08AEF67E013C081E08093600085E02B
:1013200090E0A0E0B0E08093610090936200A09311
:101330006300B09364000E942E078AEF60E00E9471
:10134000D70780E090E01F910895CF93DF9388E066
:101350008093A701F8940E94F30A7894C0E0D0E04B
:101360008091A90182FF10C0CC3FD10559F0209196
:1013700095003091960080919700909198002817E1
:10138000390711F40E94E5088091A90184FFE8CF94
:101390000E94E307EC01E4CF80937201F8948091FE
:1013A000A9018F7E8093A9018091A9018860809313
:1013B000A90178940895F8948091A9018B7F809376
:1013C000A90178948091710108958FEC84BD80917A
:1013D000A801833000F58B98939A8091A90180FF32
:1013E00023C0829BA3C08091A801813031F081305D
:1013F00040F0823009F0F6C006C0839902C08DE04B
:1014000096C082E094C08091A90183FFEBC09398BD
:101410008B9A84E28CC08091A8018A3108F079C04F
:101420008091A90180FD08C08091A901816080930D
:10143000A9018A98929A0895829B76C08091A8010A
:10144000873140F4803118F58D3061F08F3009F02C
:1014500055C00CC08831E1F1883158F1893109F06B
:101460004DC049C08091A9018D7F4DC08091A901D7
:101470008B7F8093A901839B05C080E880937101D5
:1014800081E014C0109274011092710137C08091F4
:101490007101869580937101839B30C080917101A9
:1014A000806880937101809174018F5F80937401D3
:1014B00025C0839B05C0809174018F5F8093740168
:1014C0008091740180FD1AC08091A901826010C0D2
:1014D000839905C08091A90182608093A9018091C0
:1014E000A90181FD0BC093988B9A8091A90184601A
:1014F0008093A90103C08B98939A6CC092988A9AA2
:101500008091A9018E7F8093A9018091A8018F5FAE
:101510000EC08091A8018F3208F064C08091A901AB
:1015200080FF10C0829906C08B98939A81E08093C7
:10153000A80108958091A9018E7F8093A9019298B6
:101540008A9A08958091A90181608093A9018A985F
:10155000929A8091A8018C3228F4853280F48432EA
:10156000E1F507C08D3299F18D32E8F08E32A9F5A0
:1015700031C0809172018093730110927401809147
:10158000730180FF08C08B98939A809174018F5FDC
:101590008093740102C093988B9A80917301869511
:1015A000809373011AC08091740180FF03C09398E7
:1015B0008B9A02C08B98939A8091A901877F809320
:1015C000A9018091A90180618093A90106C08B982F
:1015D000939A03C01092A80108958091A8018F5F8B
:1015E0008093A80108951092A80181E18093A90138
:1015F0008A98929A8B98939A0E94AE0382E00E94F6
:10160000CA0385E065EE79E00E94F6038FEC84BDA5
:101610000895FC0121E02093750189E791E0909302
:10162000C6018093C50180818076803269F5818111
:10163000813011F488E00895893041F486819781E2
:10164000019711F5209376018FEF0895823019F4F8
:1016500088E791E013C08A3029F483818093780170
:1016600080E00895833031F48381882369F41092F7
:10167000770008958B3041F487E790E09093C6019E
:101680008093C50181E0089580E00895982F8156E8
:101690008A3118F4292F2D5510C0892F81548A3191
:1016A00020F4292F2D5332E009C0892F815389302E
:1016B00010F020E002C0292F235130E0892F992714
:1016C00087FD9095A92FB92FFC01B097EF35F10553
:1016D000E0F5E65DFF4FEE0FFF1F0590F491E02D62
:1016E00009942EE135C021E233C022E231C023E269
:1016F0002FC024E22DC025E22BC026E229C027E21C
:1017000027C02CE226C02DE224C02DE221C02EE20B
:1017100020C02EE21DC02FE21CC02FE219C020E322
:1017200018C020E315C021E314C021E311C023E356
:1017300010C023E30DC026E30CC026E309C027E355
:1017400008C027E305C028E304C0222311F428E3DE
:1017500032E0832F922F089527E2FBCF25E3F8CFC5
:1017600025E3F7CF582FDB01642F282F392FF901FC
:1017700008C090818C91981711F081E008953196FE
:1017800011968E2F851B8617A0F380E00895E9E758
:10179000F1E0A1E8B1E090818C91981749F481E0E3
:1017A000E038F80711F480E0089531961196F3CFF0
:1017B00081E00895DF93CF93CDB7DEB728970FB6BA
:1017C000F894DEBF0FBECDBF982F8091B60184FF85
:1017D000FCCFFE01319688E0DF011D928A95E9F782
:1017E00099836B83CF0168E00E942A0E28960FB67A
:1017F000F894DEBF0FBECDBFCF91DF910895692F62
:101800000E94DA0B80E060E00E94DA0B0895982FC6
:101810008658883068F4E92FF0E0EE0FFF1FE55A94
:10182000F040808190917901892B8093790116C0D5
:101830008091AA01883050F08BE791E061E070E080
:1018400046E050E00E944D1382E009C0E82FF0E02E
:10185000E758FE4F90838F5F8093AA0180E08160FC
:10186000089582E08093AA0188E0E9E7F1E0DF01D2
:101870001D928A95E9F780E00895A9E7B1E0E1E8D3
:10188000F1E088E001900D928150E1F70895A1E820
:10189000B1E0E9E7F1E088E001900D928150E1F7D5
:1018A0000895FF920F931F93CF93DF9310927501CA
:1018B000F8940E94FA0C82B3837F82BB81B38C6060
:1018C00081BB80E395E70197F1F781B3837F81BB0B
:1018D00078942EE088E190E00FB6F894A89581BD49
:1018E0000FBE21BD00E0C0E0D0E0FF24F394809162
:1018F00075018823C1F48FE0C13AD80714F421960A
:1019000012C01092800088E10FB6F89481BD11BC1E
:101910000FBE8BB78F7B8BBF80E0DF91CF911F9184
:101920000F91FF900895A8950E94070D0E94190F2E
:10193000182F8823E1F280917801882329F40E94EE
:10194000C70B882309F410E008B600FE0AC0F8BEF1
:1019500080917801882329F0053010F4082F04C005
:101960000550112309F4C3CF8091B60184FFBFCF86
:1019700089E791E068E00E942A0EA1E8B1E0E9E77A
:10198000F1E088E001900D928150E1F7B0CFFF9235
:101990000F931F93CF93DF938C01FF2408C0C00FD8
:1019A000D11F88810E94460B0E94FF0BF394CF2D1C
:1019B000D0E0F80101900020E9F73197E01BF10B2E
:1019C000CE17DF0760F3DF91CF911F910F91FF904A
:1019D0000895FC0180917601882341F0613031F453
:1019E00080818093640290E00E94881010927601BA
:1019F00081E0089585B7836085BF8BB780648BBF16
:101A00008BE48093B7018AE58093B60108951F9314
:101A1000CF93DF936091C701635067FDBFC0809192
:101A2000C401CCE0D0E0C81BD109C553DE4F809182
:101A3000C3018D3209F09FC0683009F0ADC083EC5E
:101A40008093AB018AE580937800109289018881A8
:101A5000807641F0CE010E94090B282F8F3F09F4B8
:101A600079C07FC09A811092B4018981882321F4C2
:101A70001092B50122E067C0853019F49093C80137
:101A800061C0863009F04AC08B81813019F48FE83B
:101A900091E025C0823041F481EA91E09093C60143
:101AA0008093C50122E236C08330F9F48A8188230D
:101AB00041F48DE691E09093C6018093C50124E046
:101AC00029C0813041F481E791E09093C601809371
:101AD000C5012CE01FC08230E1F48DE791E09093C6
:101AE000C6018093C50122E115C0813241F483EB28
:101AF00091E09093C6018093C50129E00BC082322A
:101B000041F48EE291E09093C6018093C5012FE3EA
:101B100001C020E080E48093890123C0883021F453
:101B200021E08AEC91E011C0893019F49093CA0148
:101B300009C08A3011F421E006C08B3019F48BE41F
:101B40008093B70120E084EB91E09093C6018093ED
:101B5000C50107C0888187FD2E8180E880938901B7
:101B600006C08F81882319F48E81821708F0822F96
:101B70008093790011C08091890187FF0DC0CE014B
:101B80000E94E90C8F3F21F48EE18093780004C01D
:101B9000882311F0109279001092C701809178008B
:101BA00084FF4AC0809179008F3F09F445C0182F07
:101BB000893008F018E0811B809379008091AB0197
:101BC00098E889278093AB01112341F12091C50149
:101BD0003091C6018091890186FF0DC0ACEAB1E069
:101BE00080E090E0F901E80FF91FE491ED93019690
:101BF0001817C1F708C0912FD901ECEAF1E08D91D7
:101C000081939150E1F71150812F90E01F5F019671
:101C1000820F931F9093C6018093C5018CEA91E0D7
:101C2000612F0E942B02612F6C5F6C3019F08FEFD7
:101C3000809379006093780094E180B38C7031F4E4
:101C40009150D9F71092C8011092C201DF91CF9143
:101C50001F9108951F93DC01162F8091B60184FF18
:101C600007C08091B70198E889278093B70103C026
:101C70008AE58093B601912FE8EBF1E08D91819395
:101C800091501916DCF388EB91E0612F0E942B0232
:101C90001C5F1093B6011F910895E5E6F2E01192E2
:101CA00083E0E131F807D9F72FE632E006C0FC0106
:101CB000EB59FD4F808182608083F901849190E02F
:101CC0002F5F3F4F009799F722E732E006C0FC01F3
:101CD000EB59FD4F808184608083F901849190E00D
:101CE0002F5F3F4F009799F726E732E006C0FC01CF
:101CF000EB59FD4F808188608083F901849190E0E9
:101D00002F5F3F4F009799F72AE732E006C0FC01AA
:101D1000EB59FD4F808181608083F901849190E0CF
:101D20002F5F3F4F009799F727EA32E006C0FC018A
:101D3000EB59FD4F808180618083F901849190E0AF
:101D40002F5F3F4F009799F7E9E4F2E0119282E0AC
:101D5000E635F807D9F726EB32E040E011C0849170
:101D60008F3F29F4842F8295807F892B0DC09F5F40
:101D700038969D30A1F74F5F2F5F3F4F483019F0E5
:101D8000F90190E0ECCF80E0809363020895382F52
:101D90003F7082958F7041E050E0BA0102C0660F3B
:101DA000771F8A95E2F7CB0167BB809588BB88E2F5
:101DB0008A95F1F7383038F429B302C0440F551F23
:101DC0003A95E2F713C0632F70E03850383020F4B2
:101DD00023B38FE090E003C020B387E190E0861B3F
:101DE000970B02C0440F551F8A95E2F720952423D4
:101DF000822F09F081E008958E3F11F080E0089570
:101E000080919101909192018730910528F0109274
:101E100092011092910105C00196909392018093D6
:101E2000910180919101909192010E94F11081E0C5
:101E300008952F923F924F925F926F927F928F926E
:101E40009F92AF92BF92CF92DF92EF92FF920F9349
:101E50001F93CF93DF9380918A0190918B01A09182
:101E60008C01B0918D010196A11DB11D80938A0155
:101E700090938B01A0938C01B0938D010197A109E0
:101E8000B10980362AEE920720E0A20720E0B207CF
:101E9000D0F080938A0190938B01A0938C01B09332
:101EA0008D0181E080938E0187E090E09093920114
:101EB0008093910180E090E00E941B050E94030541
:101EC00082B38C7C82BB00E0A0E0B0E0C1E0D0E057
:101ED00058E2E52E47E1A42EB12C3FE0C32ED12CD1
:101EE0009E010A2E02C0220F331F0A94E2F727BB7D
:101EF000822F809588BB8E2D8A95F1F719B31095A6
:101F000073B3709530B33095E6E5F2E040E050E011
:101F1000F22EF094842F483048F4CE01042E02C0F3
:101F2000880F991F0A94E2F7612F1AC088508830F1
:101F300060F4C601841B950B4E0102C0880C991CED
:101F40008A95E2F7C401672F0BC0C501841B950B6E
:101F50004E0102C0880C991C8A95E2F7C401632FD8
:101F6000682309F004609081822F892331F0662371
:101F700049F49F219083016005C0662319F0922BDC
:101F8000908302604F5F5F4F31964D30510509F0ED
:101F9000C1CF1196A830B10509F0A2CF10E0C80159
:101FA0000E9419110E94561103701070012B11F03C
:101FB00080E09BC00E94310C809163020E94C70E9A
:101FC000482E8DE0489EE001112423E0CC0FDD1F58
:101FD0002A95E1F7CA54DD4F5524AA24BB2491E089
:101FE000292E312C5DC0F701E75BFD4F9081F70191
:101FF000EA5AFD4F2081F3011491812F81508E3FC9
:10200000C8F5DC2CD9220C2D0223809191019091EE
:102010009201029739F4DD2071F4002329F00E9427
:10202000D81002C0DD2039F4002329F0812F0E944E
:10203000FC0E8823F9F480918000882339F0002376
:10204000C9F0812F0E94070C582E14C0DD2049F4DE
:10205000002381F0812F61E00E944A07F401108380
:1020600009C0002339F41E3F29F0F401808160E0AB
:102070000E944A070894E11CF11C88E090E0680E79
:10208000791E880E991E9DE0E916F10409F0ABCF88
:102090000894A11CB11C2196E8E0AE16B10491F0A1
:1020A000C1010A2C02C0880F991F0A94E2F7C82EBA
:1020B00081EE882E81E0982E8A0C9B1C3E01EE2436
:1020C000FF2491CF20E030E0F901E75BFD4FD9011B
:1020D000AA5ABD4F8C9180832F5F3F4F2D30310521
:1020E00099F740929001852D8160DF91CF911F91EA
:1020F0000F91FF90EF90DF90CF90BF90AF909F90A7
:102100008F907F906F905F904F903F902F900895A9
:1021100080FF02C0909A01C0909820919101309167
:10212000920181FF06C0919A2630310539F4949AC4
:1021300005C091982630310509F4949882FF02C0B9
:10214000959A089595980895482F82B38C7C82BB08
:10215000442311F0909A01C0959A88EE93E02CE206
:1021600031E0F9013197F1F70197D9F782B38C7C0F
:1021700082BB919A88EE93E02CE231E0F90131972D
:10218000F1F70197D9F782B38C7C82BB442311F01D
:10219000959A01C0909A88EE93E02CE231E0F90123
:1021A0003197F1F70197D9F782B38C7C82BB089500
:1021B000209195012431A0F48FEF91E09093970145
:1021C00080939601922F9F5F909395018FEF989F38
:1021D000C001112464E170E00E94E912609398014B
:1021E00008958630910534F48430910534F40297D3
:1021F0006CF005C0089754F402C0949A07C00E947E
:10220000030580E090E00E941B0594988BE090E02D
:10221000609191010E945C1308958BE090E00E9410
:102220005413809391011092920190E00E94F1105A
:102230000895209191013091920182FF23C02330B3
:10224000310531F02430310529F02130310549F4D0
:10225000949A07C00E94030580E090E00E941B054D
:10226000949810928B0110928A0180918E01813096
:10227000E1F40E940D11809164020E948810109276
:102280008E0108952330310569F02430310561F065
:102290002130310551F480918A0190918B01895E42
:1022A00093401CF494980895949A08950F931F9363
:1022B0008091910190919201009761F08130910598
:1022C00009F0ACC080918A0190918B01895E9340A6
:1022D0000CF4E7C08091930190919401009731F53F
:1022E00060917C0070917D0080917E0090917F00D4
:1022F0000E94E912CB010E941B0520917C003091C5
:102300007D008FEF90E0A901489F9001499F300D1B
:10231000589F300D112480917E0090917F0082178C
:1023200093070CF46FC081E090E029C082309105E2
:1023300059F560917A0070917B0080917E009091B8
:102340007F000E94E9120FEF10E0C801861B970B77
:102350000E941B0580917A0090917B00809F9001E4
:10236000819F300D909F300D112480917E009091BF
:102370007F00821793070CF445C083E090E09093B0
:102380009401809393013EC081309105E1F4209146
:102390007A0030917B008FEF90E0A901489F900177
:1023A000499F300D589F300D112480917E009091EF
:1023B0007F008217930734F110927F0010927E0005
:1023C00082E090E0DCCF0397E9F420917C0030912B
:1023D0007D008FEF90E0A901489F9001499F300D4B
:1023E000589F300D112480917E0090917F008217BC
:1023F000930744F010927F0010927E001092940197
:10240000109293010E94030580917E0090917F00BD
:10241000019690937F0080937E0051C0029709F04F
:1024200040C08091960190919701009731F00197FB
:1024300090939701809396012EC040919801442378
:1024400021F180917E0090917F00019690937F0012
:1024500080937E0020917A0030917B008217930751
:10246000D4F010927F0010927E00242F21502093F0
:1024700098018FEF90E0821B910964EF7FEF0E943B
:10248000E9126C5E6093950106C01092950110925E
:102490007F0010927E008091980190E00E941B05C1
:1024A0000EC080E090E00E941B050E941105109272
:1024B0007F0010927E0010929401109293011F9160
:1024C0000F9108950895882319F0969A8E9808958B
:1024D0008E9A969808958FEF8BBB88BB85BB90E84A
:1024E00092BB1ABA87BB14BA8FE781BB80E090E039
:1024F000089584E087BB8BEF88BB88E28A95F1F76B
:1025000089B393B320B387FD07C08CE090E061E00E
:102510000E945C1381E00895892F809585FD02C09B
:1025200080E008958CE090E060E00E945C1380E021
:1025300008950E946B120E947912809380000E947D
:1025400063120E946A0388E00E94BE040E944D0E3E
:102550000E940D1180918000882331F081E00E945B
:10256000A4100E94510C07C00E94BC0380E00E948E
:10257000A4100E94A50980E090E00895629FD00118
:10258000739FF001829FE00DF11D649FE00DF11D2E
:10259000929FF00D839FF00D749FF00D659FF00DDD
:1025A0009927729FB00DE11DF91F639FB00DE11DCA
:1025B000F91FBD01CF0111240895991B79E004C0D2
:1025C000991F961708F0961B881F7A95C9F7809572
:1025D000089597FB092E07260AD077FD04D049D02D
:1025E00006D000201AF4709561957F4F0895F6F794
:1025F000909581959F4F0895A1E21A2EAA1BBB1BAF
:10260000FD010DC0AA1FBB1FEE1FFF1FA217B307BE
:10261000E407F50720F0A21BB30BE40BF50B661FD4
:10262000771F881F991F1A9469F760957095809598
:1026300090959B01AC01BD01CF01089597FB092E38
:1026400005260ED057FD04D0D7DF0AD0001C38F481
:1026500050954095309521953F4F4F4F5F4F0895CE
:10266000F6F790958095709561957F4F8F4F9F4FAE
:102670000895AA1BBB1B51E107C0AA1FBB1FA617C9
:10268000B70710F0A61BB70B881F991F5A95A9F71B
:1026900080959095BC01CD010895DC0101C06D933A
:1026A00041505040E0F70895E199FECF9FBB8EBBAB
:1026B000E09A99278DB30895262FE199FECF9FBB0D
:1026C0008EBB2DBB0FB6F894E29AE19A0FBE01962D
:0626D0000895F894FFCF0D
:1026D60002050000000000010002000400080010CE
:1026E60000200040008000015AFF04000A00040098
:0226F6000100E1
:00000001FF
