:100000000C943A010C9457010C9457010C9457012D
:100010000C946D040C9479030C9440040C94E60346
:100020000C9413040C944C030C94B9030C94F90233
:100030000C9457010C9457010C9457010C945701E0
:100040000C9457010C9457010C9457010C945701D0
:100050000C9457010000010008004000000100045A
:1000600000000100080020004000800000010004A2
:10007000000E161E26252E363D3E46454E55660D73
:10008000151D242D2C353C43444D545B5D581C1BE1
:10009000232B34333B424B4C525A121A22212A3220
:1000A000313A41494A59141F112911272F14760555
:1000B00006040C030B830A01097807777B4A717CDD
:1000C000795A7069727A6B73746C757D706C7D711E
:1000D000697A756B7274007E00F1F2373F5E4810EA
:1000E0003A38302820184D153B34233221502B400C
:1000F0004B1C43221D666800686A69006B6C6D00CA
:10010000373D3B3A3C665C5D5E5F6061626365649F
:100110004D516B6C6D6E6F7071727374757677780C
:10012000797A7B7C7D7E7F8081828384005C5F5DC9
:10013000605E61373B3C636562644D003E010F1DAC
:100140002A3659563F02101E2B385A574003111FAA
:100150002C395B58410412202D3A4C504205132192
:100160002EFF534E430614222F63543744071523A2
:100170003064553B450816243165513C4609172526
:10018000325C5F4B470A1826335D604D480B1927D8
:10019000345E614F490C1A28350E66674A0D1B29DB
:1001A000621C685202010FFE2A3659563F02101E89
:1001B0002B385A574003111F2C395B584104122029
:1001C0002D3A4C50420513212EFF534E4306142264
:1001D0002F635437440715233064553B45081624D4
:1001E0003165513C46091725325C5F4B470A18269A
:1001F000335D604D480B1927345E614F490C1A2856
:10020000350E66674A0D1B29621C68523E010F1DA0
:100210002A3659563F02101E2B385A574003111FD9
:100220002C395B58410412202D3A4C5042051321C1
:100230002EFF534E430614222F63543744071523D1
:100240003064553B450816243165513C4609172555
:10025000325C5F4B470A1826335D604D480B192707
:10026000345E614F490C1A28350E66684A0D1B2909
:10027000621C675211241FBECFE5D8E0DEBFCDBFA0
:1002800010E0A0E6B0E0E8E6FBE102C005900D92C8
:10029000A037B107D9F712E0A0E7B0E001C01D9286
:1002A000A73BB107E1F70E94060B0C94B20D0C942A
:1002B0000000089583B7887F826083BF12BE89B72C
:1002C000816089BF1092A4021092A5021092A6022A
:1002D0001092A70208958EB5887F83608EBD1DBCE5
:1002E0001CBC89B7846089BF089585B5887F846008
:1002F00085BD14BC89B7806489BF1092AC0210928E
:10030000AD021092AE021092AF02089580E090E02C
:10031000FC01EE0FFF1FE059FF4F11821082019682
:1003200088309105A9F70E945A010E946B010E9432
:1003300075017894089593B7987F982B93BF08958B
:100340009EB5987F982B9EBD089595B5987F982B64
:1003500095BD089583B7E82FF0E0E770F070EE0FD9
:10036000FF1FEC5AFF4F25913491C90108958EB5B6
:10037000E82FF0E0E770F070EE0FFF1FEC5AFF4F30
:1003800025913491C901089585B5E82FF0E0E77013
:10039000F070EE0FFF1FE05AFF4F25913491C90115
:1003A0000895883040F4E82FF0E0EE0FFF1FE05989
:1003B000FF4F718360830895883040F4E82FF0E0A8
:1003C000EE0FFF1FE059FF4F118210820895EF9248
:1003D000FF920F931F93CF93DF93EC0112B710920C
:1003E000A8021092A9021092AA021092AB0283B73F
:1003F000E82FF0E0E770F070EE0FFF1FEC5AFF4FB0
:100400002591349140E050E060E07BE187EB90E0A3
:100410000E94820DB901CA01693B2DE8720726E0EE
:10042000820720E09207A0F437E2C131D30780F4BD
:100430009E0140E050E00E940E0D28EE33E040E0C7
:1004400050E00E94600DC901DA01BC01CD0121C05C
:1004500028EE33E040E050E00E94600DCA01B9018F
:100460009E0140E050E00E940E0D13C08091A80252
:100470009091A902A091AA02B091AB0285B78F78A2
:1004800085BF85B7806885BF889585B78F7785BF1D
:1004900008C09B01AC01210F311D411D511D790187
:1004A0008A012091A8023091A9024091AA0250919C
:1004B000AB0282B790E0A0E0B0E0542F432F322F80
:1004C0002227822B932BA42BB52B8E159F05A007DB
:1004D000B10760F2DF91CF911F910F91FF90EF90E4
:1004E00008951092A4021092A5021092A6021092F2
:1004F000A70208952091A4023091A5024091A6027E
:100500005091A702B901CA0108951092AC0210924D
:10051000AD021092AE021092AF0208952091AC028B
:100520003091AD024091AE025091AF02B901CA01C3
:100530000895893031F48FB582608FBD8FB58E7F7D
:100540000AC08A3019F48FB5826002C08FB58D7FE2
:100550008FBD8FB581608FBD1BBC1ABC19BC18BC88
:1005600008952FB52E7F2FBD2FB522602FBD2EB53C
:1005700028602EBD2EB520612EBD97BD86BD1BBC4B
:100580001ABC19BC18BC08958FB58D7F8FBD8FB56F
:100590008E7F8FBD8FB58F778FBD8FB58F7B8FBDD2
:1005A0008FB58F7D8FBD8FB58F7E8FBD08958FB531
:1005B00080688FBD8FB58F7B8FBD08958FB58062AA
:1005C0008FBD8FB58F7E8FBD08958FB58F778FBD0F
:1005D0008FB58F7B8FBD08958FB58F7D8FBD8FB504
:1005E0008F7E8FBD08959BBD8ABD089599BD88BD3E
:1005F00008951F920F920FB60F9211242F933F93DD
:100600004F935F936F937F938F939F93AF93BF931A
:10061000EF93FF938091A4029091A502A091A6026E
:10062000B091A7020196A11DB11D8093A4029093E1
:10063000A502A093A602B093A7028091A802909170
:10064000A902A091AA02B091AB020196A11DB11D11
:100650008093A8029093A902A093AA02B093AB0240
:100660008091700090917100892B29F0E0917000C9
:10067000F09171000995FF91EF91BF91AF919F911A
:100680008F917F916F915F914F913F912F910F903B
:100690000FBE0F901F9018951F920F920FB60F92DA
:1006A00011242F933F934F935F936F937F938F9377
:1006B0009F93AF93BF93EF93FF93809172009091BC
:1006C0007300892B29F0E0917200F0917300099575
:1006D000FF91EF91BF91AF919F918F917F916F911A
:1006E0005F914F913F912F910F900FBE0F901F90F0
:1006F00018951F920F920FB60F9211242F933F93CC
:100700004F935F936F937F938F939F93AF93BF9319
:10071000EF93FF938091AC029091AD02A091AE0255
:10072000B091AF020196A11DB11D8093AC029093D0
:10073000AD02A093AE02B093AF0280917A00909187
:100740007B00892B29F0E0917A00F0917B000995DC
:10075000FF91EF91BF91AF919F918F917F916F9199
:100760005F914F913F912F910F900FBE0F901F906F
:1007700018951F920F920FB60F9211242F933F934B
:100780004F935F936F937F938F939F93AF93BF9399
:10079000EF93FF9380917E0090917F00892B29F049
:1007A000E0917E00F0917F000995FF91EF91BF915C
:1007B000AF919F918F917F916F915F914F913F91F9
:1007C0002F910F900FBE0F901F9018951F920F92B0
:1007D0000FB60F9211242F933F934F935F936F9314
:1007E0007F938F939F93AF93BF93EF93FF938091EA
:1007F000740090917500892B29F0E0917400F091BC
:1008000075000995FF91EF91BF91AF919F918F91E5
:100810007F916F915F914F913F912F910F900FBEFC
:100820000F901F9018951F920F920FB60F921124E0
:100830002F933F934F935F936F937F938F939F93E8
:10084000AF93BF93EF93FF938091760090917700E1
:10085000892B29F0E0917600F09177000995FF91BE
:10086000EF91BF91AF919F918F917F916F915F9128
:100870004F913F912F910F900FBE0F901F901895A1
:100880001F920F920FB60F9211242F933F934F9305
:100890005F936F937F938F939F93AF93BF93EF93E8
:1008A000FF938091780090917900892B29F0E09155
:1008B0007800F09179000995FF91EF91BF91AF9188
:1008C0009F918F917F916F915F914F913F912F9168
:1008D0000F900FBE0F901F9018951F920F920FB69A
:1008E0000F9211242F933F934F935F936F937F93B6
:1008F0008F939F93AF93BF93EF93FF9380917C006F
:1009000090917D00892B29F0E0917C00F0917D0091
:100910000995FF91EF91BF91AF919F918F917F9139
:100920006F915F914F913F912F910F900FBE0F905C
:100930001F90189580938100F8948091B1028F7E6A
:100940008093B1028091B10288608093B102789463
:100950000895F8948091B1028B7F8093B1027894CE
:100960008091800008958FEC84BD8091B002833027
:1009700000F58B98939A8091B10280FF23C0829BEF
:10098000A3C08091B002813031F0813040F08230DC
:1009900009F0F6C006C0839902C08DE096C082E0DF
:1009A00094C08091B10283FFEBC093988B9A84E24C
:1009B0008CC08091B0028A3108F079C08091B10278
:1009C00080FD08C08091B10281608093B1028A9855
:1009D000929A0895829B76C08091B002873140F44C
:1009E000803118F58D3061F08F3009F055C00CC0A2
:1009F0008831E1F1883158F1893109F04DC049C0A1
:100A00008091B1028D7F4DC08091B1028B7F809328
:100A1000B102839B05C080E88093800081E014C010
:100A2000109283001092800037C0809180008695DC
:100A300080938000839B30C0809180008068809389
:100A40008000809183008F5F8093830025C0839B0B
:100A500005C0809183008F5F809383008091830025
:100A600080FD1AC08091B102826010C0839905C0D8
:100A70008091B10282608093B1028091B10281FDC8
:100A80000BC093988B9A8091B10284608093B102DD
:100A900003C08B98939A6CC092988A9A8091B10205
:100AA0008E7F8093B1028091B0028F5F0EC08091E3
:100AB000B0028F3208F064C08091B10280FF10C094
:100AC000829906C08B98939A81E08093B002089532
:100AD0008091B1028E7F8093B10292988A9A089594
:100AE0008091B10281608093B1028A98929A80913C
:100AF000B0028C3228F4853280F48432E1F507C0EC
:100B00008D3299F18D32E8F08E32A9F531C08091A5
:100B1000810080938200109283008091820080FF88
:100B200008C08B98939A809183008F5F8093830095
:100B300002C093988B9A8091820086958093820060
:100B40001AC08091830080FF03C093988B9A02C0E3
:100B50008B98939A8091B102877F8093B1028091A4
:100B6000B10280618093B10206C08B98939A03C052
:100B70001092B00208958091B0028F5F8093B0020E
:100B800008951092B00281E18093B1028A98929AFE
:100B90008B98939A0E94750182E00E94A50185E0DE
:100BA00063EB74E00E94D1018FEC84BD0895282F7F
:100BB0008F3F31F41092850081E0809335010895D4
:100BC0008E3F21F08D3F29F410928500109235015F
:100BD000089580913501882351F080918500E82F98
:100BE000F0E0EC57FD4F20838F5F8093850080916C
:100BF000330190913401019668EC70E00E944D0D34
:100C0000FC019093340180933301809131019091E4
:100C100032018E179F0759F4009719F487EC90E082
:100C200001C0019790933401809333010895E554F6
:100C3000FE4F20830895209131013091320180913F
:100C40003301909134012817390711F480E0089599
:100C5000C901019668EC70E00E944D0DFC01909373
:100C6000320180933101E554FE4F8081089540E0C8
:100C70002091310130913201809133019091340102
:100C80002817390709F441E0842F089510923201A2
:100C900010923101109234011092330110928500AC
:100CA0001092860010928E0210928F021092900283
:100CB00010929102E3E9F2E0119282E0E43AF8073F
:100CC000D9F70895E6E3F1E0119281E0EB3BF807F4
:100CD000D9F725EF30E006C0FC01EA5CFE4F8081C9
:100CE00082608083F901849190E02F5F3F4F0097ED
:100CF00099F728EF30E006C0FC01EA5CFE4F8081E6
:100D000084608083F901849190E02F5F3F4F0097CA
:100D100099F72CEF30E006C0FC01EA5CFE4F8081C1
:100D200088608083F901849190E02F5F3F4F0097A6
:100D300099F720E031E006C0FC01EA5CFE4F8081BB
:100D400081608083F901849190E02F5F3F4F00978D
:100D500099F72DE231E006C0FC01EA5CFE4F80818C
:100D600080618083F901849190E02F5F3F4F00976D
:100D700099F7E3E9F2E0119282E0E43AF807D9F753
:100D800008950F931F930091B2021091B30203963E
:100D900065E070E00E94390D80E090E02CE030E0EA
:100DA00040E050E00E940E0D060F171F1093B30293
:100DB0000093B2021F910F9108954F925F926F922C
:100DC0007F928F929F92AF92BF92CF92DF92EF92DB
:100DD000FF920F931F93CF93DF93909190008DE03C
:100DE000989F8001112433E0000F111F3A95E1F71D
:100DF000045C1E4FCC24DD2421E0A22EB12C97E10F
:100E0000492E512C8FE0682E712C47C0F701849138
:100E10008F3F89F587BA98BA81E090E00E94C106B9
:100E20008C2FC83048F429B3C5010C2E02C0880F9E
:100E3000991F0A94E2F71AC08850883060F423B3EF
:100E4000C3018C1B9D0BA50102C0440F551F8A9541
:100E5000E2F7CA010BC020B3C2018C1B9D0BF50148
:100E600002C0EE0FFF1F8A95E2F7CF0120952823DD
:100E700011F081E027C0219648E050E0E40EF51E15
:100E8000C131D10509F0C2CF0894C11CD11C0F5F3C
:100E90001F4F58E0C516D10471F0C5010C2C02C0DB
:100EA000880F991F0A94E2F7882E982E9094780163
:100EB000C0E0D0E0ABCF80918B00813011F080E0BA
:100EC00001C082E0DF91CF911F910F91FF90EF90D1
:100ED000DF90CF90BF90AF909F908F907F906F905A
:100EE0005F904F9008951F9311B3909A82E390E022
:100EF0000E94E701909884E690E00E94E70111BB10
:100F00001F91089594980E94DE0280E090E00E9474
:100F1000F60283E080938C0086E280938F00089530
:100F20002091610030916200892BB9F023303105A6
:100F300031F02430310529F02130310549F4949AFB
:100F400007C00E94DE0280E090E00E94F6029498C2
:100F500010928A001092890008952330310569F0BB
:100F60002430310561F02130310551F48091890040
:100F700090918A00895E93401CF494980895949A05
:100F800008958091610090916200009761F0813036
:100F9000910509F07EC08091890090918A00895E58
:100FA00093400CF4B2C080912F01909130010097D2
:100FB000B1F480916D0090916E006AE070E00E9443
:100FC0004D0DCB010E94F60280916D0090916E0054
:100FD000865F99400CF446C081E090E01CC08230EE
:100FE0009105F1F480916D0090916E0064E070E0E5
:100FF0000E944D0DCB01909581959F4F81509F4F41
:101000000E94F60280916D0090916E008C5F93407B
:101010004CF183E090E09093300180932F0122C047
:101020008130910571F480916D0090916E008C5F1C
:101030009340C4F010926E0010926D0082E090E038
:10104000EACF039779F480916D0090916E00865FEE
:10105000994044F010926E0010926D001092300191
:1010600010922F010E94DE0280916D0090916E001F
:10107000019690936E0080936D008091B10281FF84
:1010800052C0F8948091B1028D7F8093B102789420
:1010900008950297D1F580918D0090918E00009770
:1010A00031F0019790938E0080938D0028C020919D
:1010B0008F002223F1F080916D0090916E000196D7
:1010C00090936E0080936D000497CCF010926E00A8
:1010D00010926D00215020938F008FEF90E0821BC3
:1010E000910964EF7FEF0E944D0D6C5E60938C0060
:1010F00006C010928C0010926E0010926D008091CC
:101100008F0090E00E94F602089580E090E00E9437
:10111000F6020E94EC0210926E0010926D00109286
:10112000300110922F01089580916100909162002A
:101130008630910530F48430910530F4029768F0E0
:1011400005C0089750F402C0949A07C00E94DE02BE
:1011500080E090E00E94F60294988BE090E060912D
:1011600061000E94A50D08950F931F93982F8F3F44
:1011700009F4CDC0E82FF0E0E059FF4F0491662359
:1011800009F491C08D3F49F080912E018823C1F070
:101190009E30B1F410928B0006C080918B0091E0DC
:1011A000892780938B0080918B00813009F4AFC038
:1011B00080919202813011F4909AA9C09098A7C0B2
:1011C0009E3321F481E080932E011EC0882311F00C
:1011D0009D3111F09E3FC1F48091610090916200B9
:1011E0008730910528F0109262001092610005C0CE
:1011F00001969093620080936100809161009091CC
:1012000062000E94940883C09093830210928E0221
:1012100010928F0210929002109291021092B602D8
:10122000E92FF0E0EA5CFE4F8081182F81FF2EC08D
:10123000963621F0983609F06AC00EC08FEF0E94F2
:10124000D70580EE0E94D70582E10E94D70580EE87
:101250000E94D7058CE723C08DEF0E94D70581EE51
:101260000E94D70584E10E94D70587E70E94D70531
:1012700081EE0E94D70580EF0E94D70584E10E948D
:10128000D70580EF0E94D70587E73CC08FEF0E940B
:10129000D70510FF03C080EE0E94D705802F0E9463
:1012A000D7058EEF2FC08D3F91F18E3311F4109240
:1012B0002E0180918302891711F410928500E92F85
:1012C000F0E0EA5CFE4F808181FF13C09636F9F4AE
:1012D00080EE0E94D70580EF0E94D7058CE70E9420
:1012E000D70580EE0E94D70580EF0E94D70582E1E6
:1012F00009C080FF03C080EE0E94D70580EF0E94E6
:10130000D705802F0E94D7058CEF0E94D7051F912B
:101310000F9108954F925F927F928F929F92AF921A
:10132000BF92CF92DF92EF92FF920F931F93CF93D2
:10133000DF938091890090918A00019690938A00B2
:1013400080938900019723E18838920724F09093D5
:101350008A0080938900CC24DD24AA24BB24C0E029
:10136000D0E0A1E08A2E912CF7E14F2E512CEFE036
:10137000EE2EF12C84010C2E02C0000F111F0A94D6
:10138000E2F707BB802F809588BB81E090E00E9448
:10139000C106EBE1F1E040E050E0302F3095842FC2
:1013A000483048F429B3C401042E02C0880F991FA5
:1013B0000A94E2F711C08850883018F423B3C701AB
:1013C00002C020B3C201841B950BB40102C0660F9A
:1013D000771F8A95E2F7CB012095282319F008940E
:1013E000A11CB11C9081802F892319F0222329F0A0
:1013F00009C0222339F0902B01C09323908371E020
:10140000C72ED12C4F5F5F4F31964131510539F6D0
:101410002196C830D10509F0ADCF80918B00813085
:10142000E1F4809191009091920001969093920046
:1014300080939100855F9140BCF090916C00913059
:1014400011F4909A01C0909881E0982790936C00D5
:10145000109292001092910007C010929200109288
:10146000910081E080936C00C5010E9490070E946A
:10147000C107CD2829F010922D0110922C010CC02B
:1014800080912C0190912D01843691052CF40196C8
:1014900090932D0180932C0180912C0190912D012E
:1014A000059719F020E030E094C0809161009091A0
:1014B00062000297C1F420918C002431A0F48FEFD8
:1014C00091E090938E0080938D00922F9F5F909378
:1014D0008C008FEF989FC001112464E170E00E949E
:1014E0004D0D60938F000E94DD06782E8DE0789E72
:1014F000E001112463E0CC0FDD1F6A95E1F7C45CC5
:10150000DE4FAA24BB2451E0452E512C3DC0F801EA
:10151000E55EFE4F90819E21F401F490F801ED56B6
:10152000FD4F80818E2119F0992319F01AC099235B
:10153000C1F0FF20B1F0FEEFFF1629F4992389F0E6
:101540008EEF61E00CC0992339F08F2D61E00E948D
:10155000B408F601F08205C0F601808160E00E94C7
:10156000B4080F5F1F4F68E070E0860E971EC60E2E
:10157000D71E0131110559F60894A11CB11C219602
:1015800078E0A716B10491F0C2010A2C02C0880FBE
:10159000991F0A94E2F7E82E43E9C42E40E0D42EC6
:1015A000CA0CDB1C4E0100E010E0B1CF20E030E0BF
:1015B000F901ED56FD4FD901A55EBE4F8C91808398
:1015C0002F5F3F4F2131310599F77092900021E054
:1015D00030E0C901DF91CF911F910F91FF90EF9003
:1015E000DF90CF90BF90AF909F908F907F905F9053
:1015F0004F9008951F93162F8E3F11F08093B502E0
:101600000E949A041093B6021F9108958F929F92A0
:10161000AF92BF92CF92DF92EF92FF920F931F9300
:101620008FEF87BB88BB1ABA14BA11BA8BBB85BBC4
:1016300082BB899A889A8C9A8D9A919A909A949A58
:10164000959A0E94860188E00E94990288E0809322
:10165000B6020E94C1050E94620678949924939470
:1016600095E0A92EB12CC12CD12C86E9882E809131
:10167000B10282FFC9C080918700909188008C3FA1
:10168000910561F020913101309132018091330157
:10169000909134012817390709F0B6C00E94A904B7
:1016A000182F6091B602623009F44FC0633018F40D
:1016B000613039F444C0663009F485C0673009F4FC
:1016C0004DC0133F61F1143F70F41E3EB9F01F3E50
:1016D00020F41D3E09F096C01FC0103FD1F0123F0C
:1016E00009F090C00DC0163FE9F0173F08F48AC01A
:1016F0001E3F61F01F3F09F085C005C08EEE8BC113
:101700008AEF64E088C18AEF68E085C18091B50204
:1017100082C18AEF62E07FC18AEF66E07CC18AEF16
:1017200067E079C190926700A0926800B09269006A
:10173000C0926A00D0926B000E94460663C0853F4B
:1017400009F460C08AEF61E066C10E944606112379
:1017500011F060E001C063E08AEF5DC1682F70E0C6
:10176000CB018076907005E0959587950A95E1F715
:1017700080936700AB014871507013E05595479511
:101780001A95E1F780E090E021E030E003C0220FFD
:10179000331F019684179507D4F367707070269FE6
:1017A000C001279F900D369F900D1124AA2797FD09
:1017B000A095BA2F8093680090936900A0936A0067
:1017C000B0936B001FC080FF02C0959A01C095982E
:1017D00081FF04C0909A9092920203C09098109258
:1017E0009202209161003091620082FF06C0919ABE
:1017F0002630310539F4949A05C091982630310588
:1018000009F494988AEF06C18091B10284FF2FCF2A
:101810008091B602843009F4DFC0853030F488232B
:1018200071F0833009F023CFD5C0883009F4D9C0D6
:101830008C3009F45BC0853009F019CFD0C02091FD
:101840003101309132018091330190913401281798
:10185000390711F40E948A090E941B06282F30E0E4
:1018600030938800209387002C3F310509F4FFCE88
:10187000232B21F060E00E94FA0A5CC08091850071
:10188000882309F4F4CE20918E0230918F0240918A
:101890009002509191022F5F3F4F4F4F5F4F209327
:1018A0008E0230938F024093900250939102809168
:1018B0006700889DC00111248A519F4FAA2797FD78
:1018C000A095BA2F281739074A075B070CF4CFCE2B
:1018D00010928E0210928F0210929002109291023A
:1018E000109286008CE08093B602C1CE8091860073
:1018F000882311F40E948A09809185008823C1F011
:101900002091310130913201809133019091340165
:101910002817390769F480918E0290918F02A09167
:101920009002B09191020197A105B10561F40FC039
:101930001092B60210928E0210928F0210929002B4
:101940001092910294CE809186008823A9F0909104
:101950008600E92FF0E0EC57FD4F80819F5F909368
:1019600086006CE00E94FA0A6091850080918600F2
:101970000E942D0D90938600E0908E02F0908F02D1
:1019800000919002109191020894E11CF11C011D3C
:10199000111D609168007091690080916A009091BA
:1019A0006B002AE030E040E050E00E940E0D9B0109
:1019B000AC012D5F3F4F4F4F5F4FC801B7010E94F1
:1019C000820D60938E0270938F02809390029093A9
:1019D00091024DCE82E01EC08BEA65E01CC083E818
:1019E00019C0919A909A949A949A0E94460684E615
:1019F00090E00E94E7018BE090E00E949D0D8093B3
:101A000061001092620090E00E9494089198909872
:101A100095988AEA60E00E94FA0A29CE629FD00176
:101A2000739FF001829FE00DF11D649FE00DF11D99
:101A3000929FF00D839FF00D749FF00D659FF00D48
:101A40009927729FB00DE11DF91F639FB00DE11D35
:101A5000F91FBD01CF0111240895991B79E004C03D
:101A6000991F961708F0961B881F7A95C9F78095DD
:101A70000895AA1BBB1B51E107C0AA1FBB1FA617D5
:101A8000B70710F0A61BB70B881F991F5A95A9F727
:101A900080959095BC01CD01089597FB092E0726EE
:101AA0000AD077FD04D0E5DF06D000201AF4709547
:101AB00061957F4F0895F6F7909581959F4F089512
:101AC000A1E21A2EAA1BBB1BFD010DC0AA1FBB1F42
:101AD000EE1FFF1FA217B307E407F50720F0A21BB4
:101AE000B30BE40BF50B661F771F881F991F1A9421
:101AF00069F760957095809590959B01AC01BD014B
:101B0000CF01089597FB092E05260ED057FD04D06E
:101B1000D7DF0AD0001C38F45095409530952195B8
:101B20003F4F4F4F5F4F0895F6F790958095709512
:101B300061957F4F8F4F9F4F0895E199FECF9FBBD7
:101B40008EBBE09A99278DB30895262FE199FECF99
:101B50009FBB8EBB2DBB0FB6F894E29AE19A0FBEE5
:081B600001960895F894FFCFEF
:101B680014070004000A0002050000000104000038
:00000001FF
